Component: ARM Compiler 5.06 update 5 (build 528) Tool: armlink [4d35e2]

==============================================================================

Section Cross References

    main.o(i.c_entry) refers to system_lpc17xx.o(i.SystemCoreClockUpdate) for SystemCoreClockUpdate
    main.o(i.c_entry) refers to mainrtx.o(i.startRTX) for startRTX
    main.o(i.main) refers to clock_17xx_40xx.o(i.Chip_Clock_EnablePeriphClock) for Chip_Clock_EnablePeriphClock
    main.o(i.main) refers to main.o(i.c_entry) for c_entry
    main.o(i.main) refers to rt_cmsis.o(i.osThreadYield) for osThreadYield
    delays.o(i.delayUs) refers to rt_cmsis.o(i.osMutexWait) for osMutexWait
    delays.o(i.delayUs) refers to rt_cmsis.o(i.osKernelSysTick) for osKernelSysTick
    delays.o(i.delayUs) refers to rt_cmsis.o(i.osMutexRelease) for osMutexRelease
    delays.o(i.delayUs) refers to delays.o(.data) for delay_mutex_id
    delays.o(i.delayUs) refers to rtx_conf_cm.o(.constdata) for os_tickus_i
    delays.o(i.delayUs_TurnOff) refers to rt_cmsis.o(i.osDelay) for osDelay
    delays.o(i.delayUs_TurnOff) refers to rt_cmsis.o(i.osMutexDelete) for osMutexDelete
    delays.o(i.delayUs_TurnOff) refers to delays.o(.data) for delay_mutex_id
    delays.o(i.initDelays) refers to rt_cmsis.o(i.osMutexCreate) for osMutexCreate
    delays.o(i.initDelays) refers to delays.o(.constdata) for os_mutex_def_delayMutex
    delays.o(i.initDelays) refers to delays.o(.data) for delay_mutex_id
    delays.o(.constdata) refers to delays.o(.bss) for os_mutex_cb_delayMutex
    mainrtx.o(i.startRTX) refers to rt_cmsis.o(i.osKernelInitialize) for osKernelInitialize
==============================================================================

Removing Unused input sections from the image.

    Removing main.o(.rev16_text), (4 bytes).
    Removing main.o(.revsh_text), (4 bytes).
    Removing main.o(.rrx_text), (6 bytes).
    Removing delays.o(i.delayUs), (72 bytes).
    Removing delays.o(i.delayUs_TurnOff), (40 bytes).
    Removing mainrtx.o(.rev16_text), (4 bytes).
    Removing mainrtx.o(.revsh_text), (4 bytes).
    Removing mainrtx.o(.rrx_text), (6 bytes).
    Removing adc_17xx_40xx.o(.rev16_text), (4 bytes).
    Removing adc_17xx_40xx.o(.revsh_text), (4 bytes).
    Removing adc_17xx_40xx.o(.rrx_text), (6 bytes).
    Removing adc_17xx_40xx.o(i.Chip_ADC_DeInit), (22 bytes).
    Removing adc_17xx_40xx.o(i.Chip_ADC_EnableChannel), (38 bytes).
    Removing adc_17xx_40xx.o(i.Chip_ADC_Init), (72 bytes).
    Removing adc_17xx_40xx.o(i.Chip_ADC_Int_SetChannelCmd), (30 bytes).
    Removing adc_17xx_40xx.o(i.Chip_ADC_ReadByte), (30 bytes).
    Removing adc_17xx_40xx.o(i.Chip_ADC_ReadStatus), (80 bytes).
    Removing adc_17xx_40xx.o(i.Chip_ADC_ReadValue), (20 bytes).
==============================================================================

Image Symbol Table

    Local Symbols

    Symbol Name                              Value     Ov Type        Size  Object(Section)

    RESET                                    0x00000000   Section      204  startup_lpc17xx.o(RESET)
    ../clib/microlib/ctype/ctype.c           0x00000000   Number         0  isspace_c.o ABSOLUTE
    ../clib/microlib/ctype/ctype.c           0x00000000   Number         0  isalpha_o.o ABSOLUTE
    ../clib/microlib/ctype/ctype.c           0x00000000   Number         0  isalnum_o.o ABSOLUTE
    ../clib/microlib/ctype/ctype.c           0x00000000   Number         0  isblank_o.o ABSOLUTE
    ../clib/microlib/ctype/ctype.c           0x00000000   Number         0  ctype_o.o ABSOLUTE
    ../clib/microlib/ctype/ctype.c           0x00000000   Number         0  ctype_c.o ABSOLUTE
    ../clib/microlib/ctype/ctype.c           0x00000000   Number         0  ispunct_o.o ABSOLUTE
    ../clib/microlib/ctype/ctype.c           0x00000000   Number         0  isspace_o.o ABSOLUTE
    ../clib/microlib/ctype/ctype.c           0x00000000   Number         0  isdigit_o.o ABSOLUTE
    ../clib/microlib/ctype/ctype.c           0x00000000   Number         0  isupper_o.o ABSOLUTE
    ../clib/microlib/ctype/ctype.c           0x00000000   Number         0  isxdigit_o.o ABSOLUTE
    ../clib/microlib/ctype/ctype.c           0x00000000   Number         0  iscntrl_o.o ABSOLUTE
    ../clib/microlib/ctype/ctype.c           0x00000000   Number         0  isgraph_o.o ABSOLUTE
    ../clib/microlib/ctype/ctype.c           0x00000000   Number         0  islower_o.o ABSOLUTE
    ../clib/microlib/ctype/ctype.c           0x00000000   Number         0  isprint_o.o ABSOLUTE
    ../clib/microlib/division.c              0x00000000   Number         0  uldiv.o ABSOLUTE
    ../clib/microlib/division.c              0x00000000   Number         0  uidiv.o ABSOLUTE
    ../clib/microlib/errno.c                 0x00000000   Number         0  errno.o ABSOLUTE
    ../clib/microlib/init/entry.s            0x00000000   Number         0  entry10b.o ABSOLUTE
    ../clib/microlib/init/entry.s            0x00000000   Number         0  entry11a.o ABSOLUTE
    ../clib/microlib/init/entry.s            0x00000000   Number         0  entry7a.o ABSOLUTE
    ../clib/microlib/init/entry.s            0x00000000   Number         0  entry2.o ABSOLUTE
    ../clib/microlib/init/entry.s            0x00000000   Number         0  entry7b.o ABSOLUTE
    ../clib/microlib/init/entry.s            0x00000000   Number         0  entry10a.o ABSOLUTE
    ../clib/microlib/init/entry.s            0x00000000   Number         0  entry8a.o ABSOLUTE
    ../clib/microlib/init/entry.s            0x00000000   Number         0  entry11b.o ABSOLUTE
    ../clib/microlib/init/entry.s            0x00000000   Number         0  entry8b.o ABSOLUTE
    ../clib/microlib/init/entry.s            0x00000000   Number         0  entry5.o ABSOLUTE
    ../clib/microlib/init/entry.s            0x00000000   Number         0  entry.o ABSOLUTE
    ../clib/microlib/longlong.c              0x00000000   Number         0  llsshr.o ABSOLUTE
    ../clib/microlib/longlong.c              0x00000000   Number         0  llshl.o ABSOLUTE
    ../clib/microlib/longlong.c              0x00000000   Number         0  llushr.o ABSOLUTE
    ../clib/microlib/malloc/malloc.c         0x00000000   Number         0  malloc.o ABSOLUTE
    ../clib/microlib/malloc/malloc.c         0x00000000   Number         0  mallocra.o ABSOLUTE
    ../clib/microlib/malloc/malloc.c         0x00000000   Number         0  mallocr.o ABSOLUTE
    ../clib/microlib/malloc/malloc.c         0x00000000   Number         0  malloca.o ABSOLUTE
    ../clib/microlib/malloc/mvars.c          0x00000000   Number         0  mvars.o ABSOLUTE
    ../clib/microlib/printf/printf.c         0x00000000   Number         0  printf0.o ABSOLUTE
    ../clib/microlib/printf/printf.c         0x00000000   Number         0  printf1.o ABSOLUTE
    ../clib/microlib/printf/printf.c         0x00000000   Number         0  printf2.o ABSOLUTE
    ../clib/microlib/printf/printf.c         0x00000000   Number         0  printfb.o ABSOLUTE
    ../clib/microlib/printf/printf.c         0x00000000   Number         0  printf3.o ABSOLUTE
    ../clib/microlib/printf/printf.c         0x00000000   Number         0  printf7.o ABSOLUTE
    ../clib/microlib/printf/printf.c         0x00000000   Number         0  printf4.o ABSOLUTE
    ../clib/microlib/printf/printf.c         0x00000000   Number         0  printf5.o ABSOLUTE
    ../clib/microlib/printf/printf.c         0x00000000   Number         0  printf8.o ABSOLUTE
    ../clib/microlib/printf/printf.c         0x00000000   Number         0  printfa.o ABSOLUTE
    ../clib/microlib/printf/printf.c         0x00000000   Number         0  printf6.o ABSOLUTE
    ../clib/microlib/printf/stubs.s          0x00000000   Number         0  stubs.o ABSOLUTE
    ../clib/microlib/stdio/fputc.c           0x00000000   Number         0  fputc.o ABSOLUTE
    ../clib/microlib/stdio/semi.s            0x00000000   Number         0  semi.o ABSOLUTE
    ../clib/microlib/stdio/streams.c         0x00000000   Number         0  stdout.o ABSOLUTE
    ../clib/microlib/string/memcpy.c         0x00000000   Number         0  memcpya.o ABSOLUTE
    ../clib/microlib/string/memcpy.c         0x00000000   Number         0  memcpyb.o ABSOLUTE
    ../clib/microlib/string/memset.c         0x00000000   Number         0  memseta.o ABSOLUTE
    ../clib/microlib/string/strcat.c         0x00000000   Number         0  strcat.o ABSOLUTE
    ../clib/microlib/string/strcpy.c         0x00000000   Number         0  strcpy.o ABSOLUTE
    ../clib/microlib/string/strlen.c         0x00000000   Number         0  strlen.o ABSOLUTE
    ../clib/microlib/string/strncmp.c        0x00000000   Number         0  strncmp.o ABSOLUTE
    ../clib/microlib/string/strstr.c         0x00000000   Number         0  strstr.o ABSOLUTE
    ../clib/microlib/stubs.s                 0x00000000   Number         0  iusefp.o ABSOLUTE
    ../clib/microlib/stubs.s                 0x00000000   Number         0  iusesemip.o ABSOLUTE
    ../clib/scanf.c                          0x00000000   Number         0  _chval.o ABSOLUTE
    ../clib/scanf.c                          0x00000000   Number         0  _strtoul.o ABSOLUTE
    ../clib/scanf.c                          0x00000000   Number         0  _scanf.o ABSOLUTE
    ../clib/scanf.c                          0x00000000   Number         0  strtol.o ABSOLUTE
    ../clib/scanf.c                          0x00000000   Number         0  _sgetc.o ABSOLUTE
    ../clib/scanf.c                          0x00000000   Number         0  scanf_char.o ABSOLUTE
    ../clib/scanf.c                          0x00000000   Number         0  __0sscanf.o ABSOLUTE
    ../clib/scanf.c                          0x00000000   Number         0  _scanf_int.o ABSOLUTE
    ../clib/scanf.c                          0x00000000   Number         0  atoi.o ABSOLUTE
    ../fplib/microlib/fpadd.c                0x00000000   Number         0  dadd.o ABSOLUTE
    ../fplib/microlib/fpdiv.c                0x00000000   Number         0  ddiv.o ABSOLUTE
    ../fplib/microlib/fpepilogue.c           0x00000000   Number         0  depilogue.o ABSOLUTE
    ../fplib/microlib/fpfix.c                0x00000000   Number         0  dfixi.o ABSOLUTE
    ../fplib/microlib/fpfix.c                0x00000000   Number         0  dfixul.o ABSOLUTE
    ../fplib/microlib/fpflt.c                0x00000000   Number         0  dflti.o ABSOLUTE
    ../fplib/microlib/fpmul.c                0x00000000   Number         0  dmul.o ABSOLUTE
    ..\HAL_CM.c                              0x00000000   Number         0  hal_cm.o ABSOLUTE
    ..\\rt_CMSIS.c                           0x00000000   Number         0  rt_cmsis.o ABSOLUTE
    ..\\rt_System.c                          0x00000000   Number         0  rt_system.o ABSOLUTE
    ..\rt_CMSIS.c                            0x00000000   Number         0  rt_cmsis.o ABSOLUTE
    ..\rt_Event.c                            0x00000000   Number         0  rt_event.o ABSOLUTE
    ..\rt_List.c                             0x00000000   Number         0  rt_list.o ABSOLUTE
    ..\rt_Mailbox.c                          0x00000000   Number         0  rt_mailbox.o ABSOLUTE
    ..\rt_MemBox.c                           0x00000000   Number         0  rt_membox.o ABSOLUTE
    ..\rt_Memory.c                           0x00000000   Number         0  rt_memory.o ABSOLUTE
    ..\rt_Mutex.c                            0x00000000   Number         0  rt_mutex.o ABSOLUTE
    ..\rt_Robin.c                            0x00000000   Number         0  rt_robin.o ABSOLUTE
    ..\rt_Semaphore.c                        0x00000000   Number         0  rt_semaphore.o ABSOLUTE
    ..\rt_System.c                           0x00000000   Number         0  rt_system.o ABSOLUTE
    ..\rt_Task.c                             0x00000000   Number         0  rt_task.o ABSOLUTE
    ..\rt_Time.c                             0x00000000   Number         0  rt_time.o ABSOLUTE
    HAL_CM3.c                                0x00000000   Number         0  hal_cm3.o ABSOLUTE
    HAL_CM3.c                                0x00000000   Number         0  hal_cm3.o ABSOLUTE
    Master\Ethernet.c                        0x00000000   Number         0  ethernet.o ABSOLUTE
    Master\RS485.c                           0x00000000   Number         0  rs485.o ABSOLUTE
    Master\\Ethernet.c                       0x00000000   Number         0  ethernet.o ABSOLUTE
    Master\\RS485.c                          0x00000000   Number         0  rs485.o ABSOLUTE
    Master\\bsp.c                            0x00000000   Number         0  bsp.o ABSOLUTE
    Master\\convertions.c                    0x00000000   Number         0  convertions.o ABSOLUTE
    Master\\crc.c                            0x00000000   Number         0  crc.o ABSOLUTE
    Master\\device.c                         0x00000000   Number         0  device.o ABSOLUTE
    Master\\displayDriver.c                  0x00000000   Number         0  displaydriver.o ABSOLUTE
    Master\\fifo8.c                          0x00000000   Number         0  fifo8.o ABSOLUTE
    Master\\internalFlash.c                  0x00000000   Number         0  internalflash.o ABSOLUTE
    Master\\main.c                           0x00000000   Number         0  main.o ABSOLUTE
    Master\\mainRTX.c                        0x00000000   Number         0  mainrtx.o ABSOLUTE
    Master\\master.c                         0x00000000   Number         0  master.o ABSOLUTE
    Master\\modbus.c                         0x00000000   Number         0  modbus.o ABSOLUTE
    Master\\sensorDriver.c                   0x00000000   Number         0  sensordriver.o ABSOLUTE
    Master\\settings.c                       0x00000000   Number         0  settings.o ABSOLUTE
    Master\bsp.c                             0x00000000   Number         0  bsp.o ABSOLUTE
    Master\convertions.c                     0x00000000   Number         0  convertions.o ABSOLUTE
    Master\crc.c                             0x00000000   Number         0  crc.o ABSOLUTE
    Master\delays.c                          0x00000000   Number         0  delays.o ABSOLUTE
    Master\device.c                          0x00000000   Number         0  device.o ABSOLUTE
    Master\displayDriver.c                   0x00000000   Number         0  displaydriver.o ABSOLUTE
    Master\fifo8.c                           0x00000000   Number         0  fifo8.o ABSOLUTE
    Master\internalFlash.c                   0x00000000   Number         0  internalflash.o ABSOLUTE
    Master\main.c                            0x00000000   Number         0  main.o ABSOLUTE
    Master\mainRTX.c                         0x00000000   Number         0  mainrtx.o ABSOLUTE
    Master\master.c                          0x00000000   Number         0  master.o ABSOLUTE
    Master\modbus.c                          0x00000000   Number         0  modbus.o ABSOLUTE
    Master\sensorDriver.c                    0x00000000   Number         0  sensordriver.o ABSOLUTE
    Master\settings.c                        0x00000000   Number         0  settings.o ABSOLUTE
    RTE\CMSIS\RTX_Conf_CM.c                  0x00000000   Number         0  rtx_conf_cm.o ABSOLUTE
    RTE\Device\LPC1766\startup_LPC17xx.s     0x00000000   Number         0  startup_lpc17xx.o ABSOLUTE
    RTE\Device\LPC1766\system_LPC17xx.c      0x00000000   Number         0  system_lpc17xx.o ABSOLUTE
    RTE\\Device\\LPC1766\\system_LPC17xx.c   0x00000000   Number         0  system_lpc17xx.o ABSOLUTE
    SVC_Table.s                              0x00000000   Number         0  svc_table.o ABSOLUTE
    cdcmple.s                                0x00000000   Number         0  cdcmple.o ABSOLUTE
    cdrcmple.s                               0x00000000   Number         0  cdrcmple.o ABSOLUTE
    dc.s                                     0x00000000   Number         0  dc.o ABSOLUTE
    drivers\\adc_17xx_40xx.c                 0x00000000   Number         0  adc_17xx_40xx.o ABSOLUTE
    drivers\\can_17xx_40xx.c                 0x00000000   Number         0  can_17xx_40xx.o ABSOLUTE
    drivers\\chip_17xx_40xx.c                0x00000000   Number         0  chip_17xx_40xx.o ABSOLUTE
    drivers\\clock_17xx_40xx.c               0x00000000   Number         0  clock_17xx_40xx.o ABSOLUTE
    drivers\\cmp_17xx_40xx.c                 0x00000000   Number         0  cmp_17xx_40xx.o ABSOLUTE
    drivers\\crc_17xx_40xx.c                 0x00000000   Number         0  crc_17xx_40xx.o ABSOLUTE
    drivers\\dac_17xx_40xx.c                 0x00000000   Number         0  dac_17xx_40xx.o ABSOLUTE
    drivers\\eeprom.c                        0x00000000   Number         0  eeprom.o ABSOLUTE
    drivers\\eeprom_17xx_40xx.c              0x00000000   Number         0  eeprom_17xx_40xx.o ABSOLUTE
    drivers\\emc_17xx_40xx.c                 0x00000000   Number         0  emc_17xx_40xx.o ABSOLUTE
    drivers\\enet_17xx_40xx.c                0x00000000   Number         0  enet_17xx_40xx.o ABSOLUTE
    drivers\\gpdma_17xx_40xx.c               0x00000000   Number         0  gpdma_17xx_40xx.o ABSOLUTE
    drivers\\gpio_17xx_40xx.c                0x00000000   Number         0  gpio_17xx_40xx.o ABSOLUTE
    drivers\\gpioint_17xx_40xx.c             0x00000000   Number         0  gpioint_17xx_40xx.o ABSOLUTE
    drivers\\i2c_17xx_40xx.c                 0x00000000   Number         0  i2c_17xx_40xx.o ABSOLUTE
    drivers\\i2s_17xx_40xx.c                 0x00000000   Number         0  i2s_17xx_40xx.o ABSOLUTE
    drivers\\iap.c                           0x00000000   Number         0  iap.o ABSOLUTE
    drivers\\iocon_17xx_40xx.c               0x00000000   Number         0  iocon_17xx_40xx.o ABSOLUTE
    drivers\\lcd_17xx_40xx.c                 0x00000000   Number         0  lcd_17xx_40xx.o ABSOLUTE
    drivers\\pmu_17xx_40xx.c                 0x00000000   Number         0  pmu_17xx_40xx.o ABSOLUTE
    drivers\\pwm_17xx_40xx.c                 0x00000000   Number         0  pwm_17xx_40xx.o ABSOLUTE
    drivers\\ritimer_17xx_40xx.c             0x00000000   Number         0  ritimer_17xx_40xx.o ABSOLUTE
    drivers\\rtc_17xx_40xx.c                 0x00000000   Number         0  rtc_17xx_40xx.o ABSOLUTE
    drivers\\sdc_17xx_40xx.c                 0x00000000   Number         0  sdc_17xx_40xx.o ABSOLUTE
    drivers\\sdmmc_17xx_40xx.c               0x00000000   Number         0  sdmmc_17xx_40xx.o ABSOLUTE
    drivers\\spi_17xx_40xx.c                 0x00000000   Number         0  spi_17xx_40xx.o ABSOLUTE
    drivers\\ssp_17xx_40xx.c                 0x00000000   Number         0  ssp_17xx_40xx.o ABSOLUTE
    drivers\\stopwatch_17xx_40xx.c           0x00000000   Number         0  stopwatch_17xx_40xx.o ABSOLUTE
    drivers\\sysctl_17xx_40xx.c              0x00000000   Number         0  sysctl_17xx_40xx.o ABSOLUTE
    drivers\\sysinit_17xx_40xx.c             0x00000000   Number         0  sysinit_17xx_40xx.o ABSOLUTE
    drivers\\timer_17xx_40xx.c               0x00000000   Number         0  timer_17xx_40xx.o ABSOLUTE
    drivers\\uart_17xx_40xx.c                0x00000000   Number         0  uart_17xx_40xx.o ABSOLUTE
    drivers\\wwdt_17xx_40xx.c                0x00000000   Number         0  wwdt_17xx_40xx.o ABSOLUTE
    drivers\adc_17xx_40xx.c                  0x00000000   Number         0  adc_17xx_40xx.o ABSOLUTE
    drivers\can_17xx_40xx.c                  0x00000000   Number         0  can_17xx_40xx.o ABSOLUTE
    drivers\chip_17xx_40xx.c                 0x00000000   Number         0  chip_17xx_40xx.o ABSOLUTE
    drivers\clock_17xx_40xx.c                0x00000000   Number         0  clock_17xx_40xx.o ABSOLUTE
    drivers\cmp_17xx_40xx.c                  0x00000000   Number         0  cmp_17xx_40xx.o ABSOLUTE
    drivers\crc_17xx_40xx.c                  0x00000000   Number         0  crc_17xx_40xx.o ABSOLUTE
    drivers\dac_17xx_40xx.c                  0x00000000   Number         0  dac_17xx_40xx.o ABSOLUTE
    drivers\eeprom.c                         0x00000000   Number         0  eeprom.o ABSOLUTE
    drivers\eeprom_17xx_40xx.c               0x00000000   Number         0  eeprom_17xx_40xx.o ABSOLUTE
    drivers\emc_17xx_40xx.c                  0x00000000   Number         0  emc_17xx_40xx.o ABSOLUTE
    drivers\enet_17xx_40xx.c                 0x00000000   Number         0  enet_17xx_40xx.o ABSOLUTE
    drivers\fpu_init.c                       0x00000000   Number         0  fpu_init.o ABSOLUTE
    drivers\gpdma_17xx_40xx.c                0x00000000   Number         0  gpdma_17xx_40xx.o ABSOLUTE
    drivers\gpio_17xx_40xx.c                 0x00000000   Number         0  gpio_17xx_40xx.o ABSOLUTE
    drivers\gpioint_17xx_40xx.c              0x00000000   Number         0  gpioint_17xx_40xx.o ABSOLUTE
    drivers\i2c_17xx_40xx.c                  0x00000000   Number         0  i2c_17xx_40xx.o ABSOLUTE
    drivers\i2s_17xx_40xx.c                  0x00000000   Number         0  i2s_17xx_40xx.o ABSOLUTE
    drivers\iap.c                            0x00000000   Number         0  iap.o ABSOLUTE
    drivers\iocon_17xx_40xx.c                0x00000000   Number         0  iocon_17xx_40xx.o ABSOLUTE
    drivers\lcd_17xx_40xx.c                  0x00000000   Number         0  lcd_17xx_40xx.o ABSOLUTE
    drivers\pmu_17xx_40xx.c                  0x00000000   Number         0  pmu_17xx_40xx.o ABSOLUTE
    drivers\pwm_17xx_40xx.c                  0x00000000   Number         0  pwm_17xx_40xx.o ABSOLUTE
    drivers\ring_buffer.c                    0x00000000   Number         0  ring_buffer.o ABSOLUTE
    drivers\ritimer_17xx_40xx.c              0x00000000   Number         0  ritimer_17xx_40xx.o ABSOLUTE
    drivers\rtc_17xx_40xx.c                  0x00000000   Number         0  rtc_17xx_40xx.o ABSOLUTE
    drivers\sdc_17xx_40xx.c                  0x00000000   Number         0  sdc_17xx_40xx.o ABSOLUTE
    drivers\sdmmc_17xx_40xx.c                0x00000000   Number         0  sdmmc_17xx_40xx.o ABSOLUTE
    drivers\spi_17xx_40xx.c                  0x00000000   Number         0  spi_17xx_40xx.o ABSOLUTE
    drivers\ssp_17xx_40xx.c                  0x00000000   Number         0  ssp_17xx_40xx.o ABSOLUTE
    drivers\stopwatch_17xx_40xx.c            0x00000000   Number         0  stopwatch_17xx_40xx.o ABSOLUTE
    drivers\sysctl_17xx_40xx.c               0x00000000   Number         0  sysctl_17xx_40xx.o ABSOLUTE
    drivers\sysinit_17xx_40xx.c              0x00000000   Number         0  sysinit_17xx_40xx.o ABSOLUTE
    drivers\timer_17xx_40xx.c                0x00000000   Number         0  timer_17xx_40xx.o ABSOLUTE
    drivers\uart_17xx_40xx.c                 0x00000000   Number         0  uart_17xx_40xx.o ABSOLUTE
    drivers\wwdt_17xx_40xx.c                 0x00000000   Number         0  wwdt_17xx_40xx.o ABSOLUTE
    handlers.s                               0x00000000   Number         0  handlers.o ABSOLUTE
    init.s                                   0x00000000   Number         0  init.o ABSOLUTE
    ioLibrary_Driver\Ethernet\W5500\w5500.c  0x00000000   Number         0  w5500.o ABSOLUTE
    ioLibrary_Driver\Ethernet\socket.c       0x00000000   Number         0  socket.o ABSOLUTE
    ioLibrary_Driver\Ethernet\wizchip_conf.c 0x00000000   Number         0  wizchip_conf.o ABSOLUTE
    ioLibrary_Driver\\Ethernet\\W5500\\w5500.c 0x00000000   Number         0  w5500.o ABSOLUTE
    ioLibrary_Driver\\Ethernet\\socket.c     0x00000000   Number         0  socket.o ABSOLUTE
    ioLibrary_Driver\\Ethernet\\wizchip_conf.c 0x00000000   Number         0  wizchip_conf.o ABSOLUTE
    .ARM.Collect$$$$00000000                 0x000000cc   Section        0  entry.o(.ARM.Collect$$$$00000000)
    .ARM.Collect$$$$00000001                 0x000000cc   Section        4  entry2.o(.ARM.Collect$$$$00000001)
    .ARM.Collect$$$$00000004                 0x000000d0   Section        4  entry5.o(.ARM.Collect$$$$00000004)
    .ARM.Collect$$$$00000008                 0x000000d4   Section        0  entry7b.o(.ARM.Collect$$$$00000008)
    .ARM.Collect$$$$0000000A                 0x000000d4   Section        0  entry8b.o(.ARM.Collect$$$$0000000A)
    .ARM.Collect$$$$0000000D                 0x000000d4   Section        0  entry10a.o(.ARM.Collect$$$$0000000D)
    .ARM.Collect$$$$0000000F                 0x000000d4   Section        0  entry11a.o(.ARM.Collect$$$$0000000F)
    .ARM.Collect$$$$000000FF                 0x000000d4   Section        0  rtx_conf_cm.o(.ARM.Collect$$$$000000FF)
    .ARM.Collect$$$$00002712                 0x000000ec   Section        4  entry2.o(.ARM.Collect$$$$00002712)
    __lit__00000000                          0x000000ec   Data           4  entry2.o(.ARM.Collect$$$$00002712)
    .emb_text                                0x000000f0   Section      304  hal_cm3.o(.emb_text)
    .text                                    0x00000220   Section       36  startup_lpc17xx.o(.text)
    .text                                    0x00000244   Section        0  uldiv.o(.text)
    .text                                    0x000002a6   Section        0  memcpya.o(.text)
    .text                                    0x000002ca   Section        0  memseta.o(.text)
    .text                                    0x000002ee   Section        0  strlen.o(.text)
    .ARM.__at_0x02FC                         0x000002fc   Section        4  startup_lpc17xx.o(.ARM.__at_0x02FC)
    .text                                    0x00000300   Section        0  strcat.o(.text)
    .text                                    0x00000318   Section        0  strstr.o(.text)
    .text                                    0x0000033c   Section        0  strncmp.o(.text)
    .text                                    0x0000035c   Section        0  __0sscanf.o(.text)
    .text                                    0x00000394   Section        0  _scanf_int.o(.text)
    .text                                    0x000004e0   Section        0  atoi.o(.text)
    .text                                    0x000004fa   Section        0  uidiv.o(.text)
    .text                                    0x00000526   Section        0  llshl.o(.text)
    .text                                    0x00000544   Section        0  llushr.o(.text)
    .text                                    0x00000564   Section        0  _chval.o(.text)
    .text                                    0x00000580   Section        0  scanf_char.o(.text)
    _scanf_char_input                        0x00000581   Thumb Code    12  scanf_char.o(.text)
    .text                                    0x000005a8   Section        0  _sgetc.o(.text)
    .text                                    0x000005e8   Section        0  strtol.o(.text)
    .text                                    0x00000658   Section       36  init.o(.text)
    .text                                    0x0000067c   Section        0  ctype_o.o(.text)
    .text                                    0x0000067c   Section        0  semi.o(.text)
    .text                                    0x00000684   Section        0  isspace_o.o(.text)
    .text                                    0x00000698   Section        0  _scanf.o(.text)
    .text                                    0x000009c4   Section        0  _strtoul.o(.text)
    .text                                    0x00000a62   Section        0  iusesemip.o(.text)
    SVC_TABLE                                0x00000a64   Section        4  svc_table.o(SVC_TABLE)
    i.Chip_Clock_EnablePeriphClock           0x00000a68   Section        0  clock_17xx_40xx.o(i.Chip_Clock_EnablePeriphClock)
    i.Chip_Clock_GetCPUClockDiv              0x00000a84   Section        0  clock_17xx_40xx.o(i.Chip_Clock_GetCPUClockDiv)
    i.Chip_Clock_GetCPUClockSource           0x00000a94   Section        0  clock_17xx_40xx.o(i.Chip_Clock_GetCPUClockSource)
    i.Chip_Clock_GetMainClockRate            0x00000aac   Section        0  clock_17xx_40xx.o(i.Chip_Clock_GetMainClockRate)
    i.Chip_Clock_GetMainPLLOutClockRate      0x00000ac8   Section        0  clock_17xx_40xx.o(i.Chip_Clock_GetMainPLLOutClockRate)
    i.Chip_Clock_GetPCLKDiv                  0x00000b08   Section        0  clock_17xx_40xx.o(i.Chip_Clock_GetPCLKDiv)
    i.Chip_Clock_GetPeripheralClockRate      0x00000b50   Section        0  clock_17xx_40xx.o(i.Chip_Clock_GetPeripheralClockRate)
    i.Chip_Clock_GetSYSCLKRate               0x00000b68   Section        0  clock_17xx_40xx.o(i.Chip_Clock_GetSYSCLKRate)
    i.Chip_Clock_GetSystemClockRate          0x00000ba8   Section        0  clock_17xx_40xx.o(i.Chip_Clock_GetSystemClockRate)
    i.Chip_GPIO_SetPinState                  0x00000bba   Section        0  ethernet.o(i.Chip_GPIO_SetPinState)
    Chip_GPIO_SetPinState                    0x00000bbb   Thumb Code    44  ethernet.o(i.Chip_GPIO_SetPinState)
    i.Chip_IAP_BlankCheckSector              0x00000be6   Section        0  iap.o(i.Chip_IAP_BlankCheckSector)
    i.Chip_IAP_CopyRamToFlash                0x00000c08   Section        0  iap.o(i.Chip_IAP_CopyRamToFlash)
    i.Chip_IAP_EraseSector                   0x00000c40   Section        0  iap.o(i.Chip_IAP_EraseSector)
    i.Chip_IAP_PreSectorForReadWrite         0x00000c74   Section        0  iap.o(i.Chip_IAP_PreSectorForReadWrite)
    i.Chip_IOCON_PinMux                      0x00000c94   Section        0  iocon_17xx_40xx.o(i.Chip_IOCON_PinMux)
    i.Chip_IOCON_PinMuxSet                   0x00000d12   Section        0  iocon_17xx_40xx.o(i.Chip_IOCON_PinMuxSet)
    i.Chip_SSP_ClearIntPending               0x00000d30   Section        0  ssp_17xx_40xx.o(i.Chip_SSP_ClearIntPending)
    Chip_SSP_ClearIntPending                 0x00000d31   Thumb Code     4  ssp_17xx_40xx.o(i.Chip_SSP_ClearIntPending)
    i.Chip_SSP_GetClkIndex                   0x00000d34   Section        0  ssp_17xx_40xx.o(i.Chip_SSP_GetClkIndex)
    Chip_SSP_GetClkIndex                     0x00000d35   Thumb Code    16  ssp_17xx_40xx.o(i.Chip_SSP_GetClkIndex)
    i.Chip_SSP_GetRawIntStatus               0x00000d48   Section        0  ssp_17xx_40xx.o(i.Chip_SSP_GetRawIntStatus)
    Chip_SSP_GetRawIntStatus                 0x00000d49   Thumb Code    16  ssp_17xx_40xx.o(i.Chip_SSP_GetRawIntStatus)
    i.Chip_SSP_GetStatus                     0x00000d58   Section        0  ssp_17xx_40xx.o(i.Chip_SSP_GetStatus)
    Chip_SSP_GetStatus                       0x00000d59   Thumb Code    16  ssp_17xx_40xx.o(i.Chip_SSP_GetStatus)
    i.Chip_SSP_RWFrames_Blocking             0x00000d68   Section        0  ssp_17xx_40xx.o(i.Chip_SSP_RWFrames_Blocking)
    i.Chip_SSP_ReadFrames_Blocking           0x00000e38   Section        0  ssp_17xx_40xx.o(i.Chip_SSP_ReadFrames_Blocking)
    i.Chip_SSP_ReceiveFrame                  0x00000f2c   Section        0  ssp_17xx_40xx.o(i.Chip_SSP_ReceiveFrame)
    Chip_SSP_ReceiveFrame                    0x00000f2d   Thumb Code     8  ssp_17xx_40xx.o(i.Chip_SSP_ReceiveFrame)
    i.Chip_SSP_SendFrame                     0x00000f34   Section        0  ssp_17xx_40xx.o(i.Chip_SSP_SendFrame)
    Chip_SSP_SendFrame                       0x00000f35   Thumb Code     6  ssp_17xx_40xx.o(i.Chip_SSP_SendFrame)
    i.Chip_SSP_SetBitRate                    0x00000f3a   Section        0  ssp_17xx_40xx.o(i.Chip_SSP_SetBitRate)
    i.Chip_SSP_SetClockRate                  0x00000f80   Section        0  ssp_17xx_40xx.o(i.Chip_SSP_SetClockRate)
    i.Chip_SSP_WriteFrames_Blocking          0x00000f94   Section        0  ssp_17xx_40xx.o(i.Chip_SSP_WriteFrames_Blocking)
    i.Chip_UART_ABIntHandler                 0x00001080   Section        0  uart_17xx_40xx.o(i.Chip_UART_ABIntHandler)
    Chip_UART_ABIntHandler                   0x00001081   Thumb Code    78  uart_17xx_40xx.o(i.Chip_UART_ABIntHandler)
    i.Chip_UART_IRQRBHandler                 0x000010d4   Section        0  uart_17xx_40xx.o(i.Chip_UART_IRQRBHandler)
    i.Chip_UART_IntDisable                   0x00001116   Section        0  uart_17xx_40xx.o(i.Chip_UART_IntDisable)
    Chip_UART_IntDisable                     0x00001117   Thumb Code     8  uart_17xx_40xx.o(i.Chip_UART_IntDisable)
    i.Chip_UART_RXIntHandlerRB               0x0000111e   Section        0  uart_17xx_40xx.o(i.Chip_UART_RXIntHandlerRB)
    i.Chip_UART_ReadLineStatus               0x00001148   Section        0  uart_17xx_40xx.o(i.Chip_UART_ReadLineStatus)
    Chip_UART_ReadLineStatus                 0x00001149   Thumb Code     6  uart_17xx_40xx.o(i.Chip_UART_ReadLineStatus)
    i.Chip_UART_SendByte                     0x0000114e   Section        0  uart_17xx_40xx.o(i.Chip_UART_SendByte)
    Chip_UART_SendByte                       0x0000114f   Thumb Code     4  uart_17xx_40xx.o(i.Chip_UART_SendByte)
    i.Chip_UART_SetAutoBaudReg               0x00001152   Section        0  uart_17xx_40xx.o(i.Chip_UART_SetAutoBaudReg)
    Chip_UART_SetAutoBaudReg                 0x00001153   Thumb Code     8  uart_17xx_40xx.o(i.Chip_UART_SetAutoBaudReg)
    i.Chip_UART_TXIntHandlerRB               0x0000115a   Section        0  uart_17xx_40xx.o(i.Chip_UART_TXIntHandlerRB)
    i.ETH_CheckConnectPortClosed             0x00001188   Section        0  ethernet.o(i.ETH_CheckConnectPortClosed)
    i.ETH_CheckIncomingDataOnListenPortPc    0x000011c0   Section        0  ethernet.o(i.ETH_CheckIncomingDataOnListenPortPc)
    i.ETH_DeleteCommands                     0x00001370   Section        0  ethernet.o(i.ETH_DeleteCommands)
    i.ETH_GetDefaultParameters               0x000013a4   Section        0  ethernet.o(i.ETH_GetDefaultParameters)
    i.ETH_GetNewNetworkParameters            0x0000141c   Section        0  ethernet.o(i.ETH_GetNewNetworkParameters)
    i.ETH_MasterFunc                         0x00001554   Section        0  ethernet.o(i.ETH_MasterFunc)
    i.ETH_PackageControl_PC                  0x00001b34   Section        0  ethernet.o(i.ETH_PackageControl_PC)
    i.ETH_ProgramController                  0x00001cc4   Section        0  ethernet.o(i.ETH_ProgramController)
    i.ETH_ReadMasterUpdateDisp               0x00001d04   Section        0  ethernet.o(i.ETH_ReadMasterUpdateDisp)
    i.ETH_RecordCommands                     0x00001eb8   Section        0  ethernet.o(i.ETH_RecordCommands)
    i.ETH_SaveNetworkParameters              0x00001ed8   Section        0  ethernet.o(i.ETH_SaveNetworkParameters)
    i.ETH_SendDataFromListenPortPC           0x00001ef8   Section        0  ethernet.o(i.ETH_SendDataFromListenPortPC)
    i.ETH_SendDataNOK                        0x00001fac   Section        0  ethernet.o(i.ETH_SendDataNOK)
    i.ETH_SendDataOK                         0x00001fe0   Section        0  ethernet.o(i.ETH_SendDataOK)
    i.ETH_SendETX                            0x00002014   Section        0  ethernet.o(i.ETH_SendETX)
    i.ETH_SendNetworkParameters              0x00002034   Section        0  ethernet.o(i.ETH_SendNetworkParameters)
    i.ETH_SendSTX                            0x000020c4   Section        0  ethernet.o(i.ETH_SendSTX)
    i.ETH_SendStatus                         0x000020e4   Section        0  ethernet.o(i.ETH_SendStatus)
    i.ETH_SetNetworkParameters               0x000022dc   Section        0  ethernet.o(i.ETH_SetNetworkParameters)
    i.ETH_addFreeLot                         0x0000230c   Section        0  ethernet.o(i.ETH_addFreeLot)
    i.ETH_checkEmptySocket                   0x00002594   Section        0  ethernet.o(i.ETH_checkEmptySocket)
    i.ETH_checkSocketClosed                  0x000025f8   Section        0  ethernet.o(i.ETH_checkSocketClosed)
    i.ETH_closeAllSocket                     0x00002618   Section        0  ethernet.o(i.ETH_closeAllSocket)
    i.ETH_commInProgress                     0x000026a4   Section        0  ethernet.o(i.ETH_commInProgress)
    i.ETH_connectToMaster                    0x000026cc   Section        0  ethernet.o(i.ETH_connectToMaster)
    i.ETH_getListenPackageFromFifo           0x0000278c   Section        0  ethernet.o(i.ETH_getListenPackageFromFifo)
    i.ETH_getNextMasterAddress               0x0000280c   Section        0  ethernet.o(i.ETH_getNextMasterAddress)
    i.ETH_getPackageFromFifo                 0x000028f0   Section        0  ethernet.o(i.ETH_getPackageFromFifo)
    i.ETH_readMasters                        0x00002960   Section        0  ethernet.o(i.ETH_readMasters)
    i.ETH_setDisplayReg                      0x00002bac   Section        0  ethernet.o(i.ETH_setDisplayReg)
    i.ETH_socketComm                         0x00002ee0   Section        0  ethernet.o(i.ETH_socketComm)
    i.ETH_socketCommReceive                  0x00002fd4   Section        0  ethernet.o(i.ETH_socketCommReceive)
    i.Ethernet_Task                          0x00003180   Section        0  ethernet.o(i.Ethernet_Task)
    i.GetData                                0x0000329c   Section        0  internalflash.o(i.GetData)
    i.RingBuffer_GetCount                    0x000032cc   Section        0  ring_buffer.o(i.RingBuffer_GetCount)
    RingBuffer_GetCount                      0x000032cd   Thumb Code    10  ring_buffer.o(i.RingBuffer_GetCount)
    i.RingBuffer_Insert                      0x000032d6   Section        0  ring_buffer.o(i.RingBuffer_Insert)
    i.RingBuffer_IsEmpty                     0x0000330c   Section        0  ring_buffer.o(i.RingBuffer_IsEmpty)
    RingBuffer_IsEmpty                       0x0000330d   Thumb Code    18  ring_buffer.o(i.RingBuffer_IsEmpty)
    i.RingBuffer_IsFull                      0x0000331e   Section        0  ring_buffer.o(i.RingBuffer_IsFull)
    RingBuffer_IsFull                        0x0000331f   Thumb Code    24  ring_buffer.o(i.RingBuffer_IsFull)
    i.RingBuffer_Pop                         0x00003336   Section        0  ring_buffer.o(i.RingBuffer_Pop)
    i.SSP_Read1BFifo                         0x0000336c   Section        0  ssp_17xx_40xx.o(i.SSP_Read1BFifo)
    SSP_Read1BFifo                           0x0000336d   Thumb Code    54  ssp_17xx_40xx.o(i.SSP_Read1BFifo)
    i.SSP_Read2BFifo                         0x000033a2   Section        0  ssp_17xx_40xx.o(i.SSP_Read2BFifo)
    SSP_Read2BFifo                           0x000033a3   Thumb Code    54  ssp_17xx_40xx.o(i.SSP_Read2BFifo)
    i.SSP_Write1BFifo                        0x000033d8   Section        0  ssp_17xx_40xx.o(i.SSP_Write1BFifo)
    SSP_Write1BFifo                          0x000033d9   Thumb Code    40  ssp_17xx_40xx.o(i.SSP_Write1BFifo)
    i.SSP_Write2BFifo                        0x00003400   Section        0  ssp_17xx_40xx.o(i.SSP_Write2BFifo)
    SSP_Write2BFifo                          0x00003401   Thumb Code    42  ssp_17xx_40xx.o(i.SSP_Write2BFifo)
    i.SaveAllParameterToFlash                0x0000342a   Section        0  settings.o(i.SaveAllParameterToFlash)
    i.SaveDataReadyDataToRAM                 0x00003444   Section        0  settings.o(i.SaveDataReadyDataToRAM)
    i.SaveEthernetDataToRAM                  0x00003460   Section        0  settings.o(i.SaveEthernetDataToRAM)
    i.SaveToRAMbuff                          0x000034c0   Section        0  internalflash.o(i.SaveToRAMbuff)
    i.SystemCoreClockUpdate                  0x000034f0   Section        0  system_lpc17xx.o(i.SystemCoreClockUpdate)
    i.SystemInit                             0x00003698   Section        0  system_lpc17xx.o(i.SystemInit)
    i.UART0_IRQHandler                       0x0000376c   Section        0  rs485.o(i.UART0_IRQHandler)
    i.UART1_IRQHandler                       0x00003784   Section        0  rs485.o(i.UART1_IRQHandler)
    i.UART2_IRQHandler                       0x0000379c   Section        0  rs485.o(i.UART2_IRQHandler)
    i.UART3_IRQHandler                       0x000037b4   Section        0  rs485.o(i.UART3_IRQHandler)
    i.WIZCHIP_READ                           0x000037cc   Section        0  w5500.o(i.WIZCHIP_READ)
    i.WIZCHIP_READ_BUF                       0x00003828   Section        0  w5500.o(i.WIZCHIP_READ_BUF)
    i.WIZCHIP_WRITE                          0x00003898   Section        0  w5500.o(i.WIZCHIP_WRITE)
    i.WIZCHIP_WRITE_BUF                      0x000038f8   Section        0  w5500.o(i.WIZCHIP_WRITE_BUF)
    i.__0printf$1                            0x0000396c   Section        0  printf1.o(i.__0printf$1)
    i.__0sprintf$1                           0x0000398c   Section        0  printf1.o(i.__0sprintf$1)
    i.__aeabi_errno_addr                     0x000039b4   Section        0  errno.o(i.__aeabi_errno_addr)
    i.__scatterload_copy                     0x000039bc   Section       14  handlers.o(i.__scatterload_copy)
    i.__scatterload_null                     0x000039ca   Section        2  handlers.o(i.__scatterload_null)
    i.__scatterload_zeroinit                 0x000039cc   Section       14  handlers.o(i.__scatterload_zeroinit)
    i._init_box                              0x000039da   Section        0  rt_membox.o(i._init_box)
    i._printf_core                           0x00003a20   Section        0  printf1.o(i._printf_core)
    _printf_core                             0x00003a21   Thumb Code   336  printf1.o(i._printf_core)
    i._sputc                                 0x00003b74   Section        0  printf1.o(i._sputc)
    _sputc                                   0x00003b75   Thumb Code    10  printf1.o(i._sputc)
    i.addControllerCommandsToRAM             0x00003b7e   Section        0  settings.o(i.addControllerCommandsToRAM)
    i.addElement_fifo8                       0x00003bbc   Section        0  fifo8.o(i.addElement_fifo8)
    i.c_entry                                0x00003bf0   Section        0  main.o(i.c_entry)
    i.checkFlashCRC                          0x00003c00   Section        0  internalflash.o(i.checkFlashCRC)
    i.clearDeviceRegs                        0x00003c6c   Section        0  device.o(i.clearDeviceRegs)
    i.clear_fifo8                            0x00003c6e   Section        0  fifo8.o(i.clear_fifo8)
    i.close                                  0x00003c90   Section        0  socket.o(i.close)
    i.compareFlash                           0x00003d5c   Section        0  internalflash.o(i.compareFlash)
    i.connect                                0x00003da8   Section        0  socket.o(i.connect)
    i.crc16                                  0x00003f30   Section        0  crc.o(i.crc16)
    i.ctlwizchip                             0x00003f68   Section        0  wizchip_conf.o(i.ctlwizchip)
    i.dbg_init                               0x00004080   Section        0  hal_cm.o(i.dbg_init)
    i.dbg_task_notify                        0x000040b0   Section        0  hal_cm.o(i.dbg_task_notify)
    i.dbg_task_switch                        0x000040d0   Section        0  hal_cm.o(i.dbg_task_switch)
    i.disconnect                             0x000040e0   Section        0  socket.o(i.disconnect)
    i.eraseCommandsRamArea                   0x000041c8   Section        0  internalflash.o(i.eraseCommandsRamArea)
    i.eraseFlashRamArea                      0x000041e4   Section        0  internalflash.o(i.eraseFlashRamArea)
    i.extract_between                        0x000041fc   Section        0  master.o(i.extract_between)
    i.flashDiagnostic                        0x00004274   Section        0  settings.o(i.flashDiagnostic)
    i.flashErase                             0x00004320   Section        0  internalflash.o(i.flashErase)
    i.flashInit                              0x000043c4   Section        0  internalflash.o(i.flashInit)
    i.flashWrite                             0x000044c4   Section        0  internalflash.o(i.flashWrite)
    i.flashWriteBackup                       0x0000464c   Section        0  internalflash.o(i.flashWriteBackup)
    i.fputc                                  0x000046f4   Section        0  fputc.o(i.fputc)
    i.free                                   0x00004708   Section        0  malloc.o(i.free)
    i.getCmdBuffEndAdress                    0x00004758   Section        0  settings.o(i.getCmdBuffEndAdress)
    i.getCmdBuffStartAdress                  0x00004768   Section        0  settings.o(i.getCmdBuffStartAdress)
    i.getCommand                             0x00004774   Section        0  device.o(i.getCommand)
    i.getDataFromFlash                       0x000047da   Section        0  settings.o(i.getDataFromFlash)
    i.getDataFromFlashToRAM                  0x000047ec   Section        0  internalflash.o(i.getDataFromFlashToRAM)
    i.getElement_fifo8                       0x0000480c   Section        0  fifo8.o(i.getElement_fifo8)
    i.getElementsNumber_fifo8                0x0000483c   Section        0  fifo8.o(i.getElementsNumber_fifo8)
    i.getEmptyAdressForCommandFromRAMbuff    0x00004844   Section        0  internalflash.o(i.getEmptyAdressForCommandFromRAMbuff)
    i.getEthernetDataFromFlash               0x00004884   Section        0  settings.o(i.getEthernetDataFromFlash)
    i.getFlashData                           0x000048d0   Section        0  settings.o(i.getFlashData)
    i.getFlashPointers                       0x000048f4   Section        0  internalflash.o(i.getFlashPointers)
    i.getLastRecordFromFlashToRAM            0x000049c0   Section        0  settings.o(i.getLastRecordFromFlashToRAM)
    i.getLastRecordStartAdress               0x000049d0   Section        0  internalflash.o(i.getLastRecordStartAdress)
    i.getSn_RX_RSR                           0x00004a78   Section        0  w5500.o(i.getSn_RX_RSR)
    i.getSn_TX_FSR                           0x00004ae4   Section        0  w5500.o(i.getSn_TX_FSR)
    i.getparametersRAMStartAdress            0x00004b50   Section        0  internalflash.o(i.getparametersRAMStartAdress)
    i.iap_entry                              0x00004b58   Section        0  iap.o(i.iap_entry)
    iap_entry                                0x00004b59   Thumb Code    16  iap.o(i.iap_entry)
    i.initDelays                             0x00004b6c   Section        0  delays.o(i.initDelays)
    i.init_fifo8                             0x00004b84   Section        0  fifo8.o(i.init_fifo8)
    i.isEmpty_fifo8                          0x00004b90   Section        0  fifo8.o(i.isEmpty_fifo8)
    i.isFull_fifo8                           0x00004b9e   Section        0  fifo8.o(i.isFull_fifo8)
    i.isrMessageGet                          0x00004bb6   Section        0  rt_cmsis.o(i.isrMessageGet)
    i.isrMessagePut                          0x00004be0   Section        0  rt_cmsis.o(i.isrMessagePut)
    i.isr_mbx_receive                        0x00004c0c   Section        0  rt_mailbox.o(i.isr_mbx_receive)
    i.isr_mbx_send                           0x00004c62   Section        0  rt_mailbox.o(i.isr_mbx_send)
    i.listen                                 0x00004c70   Section        0  socket.o(i.listen)
    i.loadDefaultValues                      0x00004d34   Section        0  settings.o(i.loadDefaultValues)
    i.main                                   0x00004d4c   Section        0  main.o(i.main)
    i.malloc                                 0x00004d64   Section        0  malloc.o(i.malloc)
    i.osDelay                                0x00004dd0   Section        0  rt_cmsis.o(i.osDelay)
    i.osKernelInitialize                     0x00004de8   Section        0  rt_cmsis.o(i.osKernelInitialize)
    i.osKernelStart                          0x00004e0c   Section        0  rt_cmsis.o(i.osKernelStart)
    i.osMessageGet                           0x00004e78   Section        0  rt_cmsis.o(i.osMessageGet)
    i.osMutexCreate                          0x00004e90   Section        0  rt_cmsis.o(i.osMutexCreate)
    i.osThreadCreate                         0x00004ebc   Section        0  rt_cmsis.o(i.osThreadCreate)
    i.osThreadExit                           0x00004ee8   Section        0  rt_cmsis.o(i.osThreadExit)
    i.osThreadYield                          0x00004f00   Section        0  rt_cmsis.o(i.osThreadYield)
    i.osTimerCall                            0x00004f18   Section        0  rt_cmsis.o(i.osTimerCall)
    i.osTimerCreate                          0x00004f24   Section        0  rt_cmsis.o(i.osTimerCreate)
    i.osTimerStart                           0x00004f50   Section        0  rt_cmsis.o(i.osTimerStart)
    i.osTimerThread                          0x00004f68   Section        0  rt_cmsis.o(i.osTimerThread)
    i.os_error                               0x00004f94   Section        0  rtx_conf_cm.o(i.os_error)
    i.os_idle_demon                          0x00004fb6   Section        0  rtx_conf_cm.o(i.os_idle_demon)
    i.os_tick_init                           0x00004fbc   Section        0  rt_system.o(i.os_tick_init)
    i.os_tick_irqack                         0x00004fe4   Section        0  rt_system.o(i.os_tick_irqack)
    i.recv                                   0x00004fe8   Section        0  socket.o(i.recv)
    i.reg_wizchip_cs_cbfunc                  0x0000513c   Section        0  wizchip_conf.o(i.reg_wizchip_cs_cbfunc)
    i.reg_wizchip_spi_cbfunc                 0x00005164   Section        0  wizchip_conf.o(i.reg_wizchip_spi_cbfunc)
    i.restoreFlashBackup                     0x00005198   Section        0  internalflash.o(i.restoreFlashBackup)
    i.rt_alloc_box                           0x0000523c   Section        0  rt_membox.o(i.rt_alloc_box)
    i.rt_alloc_mem                           0x00005256   Section        0  rt_memory.o(i.rt_alloc_mem)
    i.rt_block                               0x00005294   Section        0  rt_task.o(i.rt_block)
    i.rt_chk_robin                           0x000052cc   Section        0  rt_robin.o(i.rt_chk_robin)
    i.rt_dec_dly                             0x00005314   Section        0  rt_list.o(i.rt_dec_dly)
    i.rt_dispatch                            0x00005384   Section        0  rt_task.o(i.rt_dispatch)
    i.rt_dly_wait                            0x000053c8   Section        0  rt_time.o(i.rt_dly_wait)
    i.rt_evt_psh                             0x000053d0   Section        0  rt_event.o(i.rt_evt_psh)
    i.rt_free_box                            0x00005420   Section        0  rt_membox.o(i.rt_free_box)
    i.rt_free_mem                            0x0000544c   Section        0  rt_memory.o(i.rt_free_mem)
    i.rt_get_first                           0x00005474   Section        0  rt_list.o(i.rt_get_first)
    i.rt_get_same_rdy_prio                   0x0000549c   Section        0  rt_list.o(i.rt_get_same_rdy_prio)
    i.rt_id2obj                              0x000054c0   Section        0  rt_cmsis.o(i.rt_id2obj)
    rt_id2obj                                0x000054c1   Thumb Code     8  rt_cmsis.o(i.rt_id2obj)
    i.rt_init_context                        0x000054c8   Section        0  rt_task.o(i.rt_init_context)
    rt_init_context                          0x000054c9   Thumb Code    66  rt_task.o(i.rt_init_context)
    i.rt_init_mem                            0x00005510   Section        0  rt_memory.o(i.rt_init_mem)
    i.rt_init_robin                          0x0000552c   Section        0  rt_robin.o(i.rt_init_robin)
    i.rt_init_stack                          0x00005544   Section        0  hal_cm.o(i.rt_init_stack)
    i.rt_mbx_check                           0x000055c4   Section        0  rt_mailbox.o(i.rt_mbx_check)
    i.rt_mbx_init                            0x000055cc   Section        0  rt_mailbox.o(i.rt_mbx_init)
    i.rt_mbx_psh                             0x000055e8   Section        0  rt_mailbox.o(i.rt_mbx_psh)
    i.rt_mbx_wait                            0x000056d8   Section        0  rt_mailbox.o(i.rt_mbx_wait)
    i.rt_ms2tick                             0x0000578c   Section        0  rt_cmsis.o(i.rt_ms2tick)
    rt_ms2tick                               0x0000578d   Thumb Code    58  rt_cmsis.o(i.rt_ms2tick)
    i.rt_mut_init                            0x000057d0   Section        0  rt_mutex.o(i.rt_mut_init)
    i.rt_pop_req                             0x000057e0   Section        0  rt_system.o(i.rt_pop_req)
    i.rt_psh_req                             0x0000585c   Section        0  rt_system.o(i.rt_psh_req)
    i.rt_psq_enq                             0x0000587c   Section        0  rt_list.o(i.rt_psq_enq)
    i.rt_put_dly                             0x000058d8   Section        0  rt_list.o(i.rt_put_dly)
    i.rt_put_prio                            0x00005920   Section        0  rt_list.o(i.rt_put_prio)
    i.rt_put_rdy_first                       0x00005958   Section        0  rt_list.o(i.rt_put_rdy_first)
    i.rt_resort_prio                         0x0000596c   Section        0  rt_list.o(i.rt_resort_prio)
    i.rt_ret_val                             0x000059a0   Section        0  hal_cm.o(i.rt_ret_val)
    i.rt_ret_val2                            0x000059a6   Section        0  hal_cm.o(i.rt_ret_val2)
    i.rt_rmv_dly                             0x000059ae   Section        0  rt_list.o(i.rt_rmv_dly)
    i.rt_rmv_list                            0x000059d8   Section        0  rt_list.o(i.rt_rmv_list)
    i.rt_sem_psh                             0x00005a08   Section        0  rt_semaphore.o(i.rt_sem_psh)
    i.rt_stk_check                           0x00005a3c   Section        0  rt_system.o(i.rt_stk_check)
    i.rt_switch_req                          0x00005a60   Section        0  rt_task.o(i.rt_switch_req)
    i.rt_sys_init                            0x00005a88   Section        0  rt_task.o(i.rt_sys_init)
    i.rt_sys_start                           0x00005b54   Section        0  rt_task.o(i.rt_sys_start)
    i.rt_systick                             0x00005bcc   Section        0  rt_system.o(i.rt_systick)
    i.rt_tid2ptcb                            0x00005c0c   Section        0  rt_cmsis.o(i.rt_tid2ptcb)
    rt_tid2ptcb                              0x00005c0d   Thumb Code    18  rt_cmsis.o(i.rt_tid2ptcb)
    i.rt_timer_insert                        0x00005c20   Section        0  rt_cmsis.o(i.rt_timer_insert)
    rt_timer_insert                          0x00005c21   Thumb Code    48  rt_cmsis.o(i.rt_timer_insert)
    i.rt_timer_remove                        0x00005c54   Section        0  rt_cmsis.o(i.rt_timer_remove)
    rt_timer_remove                          0x00005c55   Thumb Code    56  rt_cmsis.o(i.rt_timer_remove)
    i.rt_tsk_create                          0x00005c90   Section        0  rt_task.o(i.rt_tsk_create)
    i.rt_tsk_delete                          0x00005d18   Section        0  rt_task.o(i.rt_tsk_delete)
    i.rt_tsk_pass                            0x00005e94   Section        0  rt_task.o(i.rt_tsk_pass)
    i.rt_tsk_prio                            0x00005ec4   Section        0  rt_task.o(i.rt_tsk_prio)
    i.rt_tsk_self                            0x00005f40   Section        0  rt_task.o(i.rt_tsk_self)
    i.selectFlashArea                        0x00005f50   Section        0  internalflash.o(i.selectFlashArea)
    i.send                                   0x00005f68   Section        0  socket.o(i.send)
    i.sendDataAndRetyIfBusy                  0x000062ec   Section        0  ethernet.o(i.sendDataAndRetyIfBusy)
    i.socket                                 0x00006330   Section        0  socket.o(i.socket)
    i.startRTX                               0x000064f8   Section        0  mainrtx.o(i.startRTX)
    i.svcDelay                               0x00006540   Section        0  rt_cmsis.o(i.svcDelay)
    i.svcKernelInitialize                    0x00006554   Section        0  rt_cmsis.o(i.svcKernelInitialize)
    i.svcKernelStart                         0x000065c4   Section        0  rt_cmsis.o(i.svcKernelStart)
    i.svcMessageCreate                       0x0000660c   Section        0  rt_cmsis.o(i.svcMessageCreate)
    i.svcMessageGet                          0x00006630   Section        0  rt_cmsis.o(i.svcMessageGet)
    i.svcMutexCreate                         0x0000666a   Section        0  rt_cmsis.o(i.svcMutexCreate)
    i.svcThreadCreate                        0x00006688   Section        0  rt_cmsis.o(i.svcThreadCreate)
    i.svcThreadGetId                         0x000066f4   Section        0  rt_cmsis.o(i.svcThreadGetId)
    i.svcThreadTerminate                     0x00006710   Section        0  rt_cmsis.o(i.svcThreadTerminate)
    i.svcThreadYield                         0x00006748   Section        0  rt_cmsis.o(i.svcThreadYield)
    i.svcTimerCall                           0x00006752   Section        0  rt_cmsis.o(i.svcTimerCall)
    i.svcTimerCreate                         0x0000676c   Section        0  rt_cmsis.o(i.svcTimerCreate)
    i.svcTimerStart                          0x000067a4   Section        0  rt_cmsis.o(i.svcTimerStart)
    i.sysTimerTick                           0x00006808   Section        0  rt_cmsis.o(i.sysTimerTick)
    i.timerETH_CallBack                      0x00006864   Section        0  ethernet.o(i.timerETH_CallBack)
    i.wizETH_Init                            0x0000692c   Section        0  ethernet.o(i.wizETH_Init)
    i.wizETH_SetServerSocket                 0x000069c4   Section        0  ethernet.o(i.wizETH_SetServerSocket)
    i.wiz_recv_data                          0x00006a04   Section        0  w5500.o(i.wiz_recv_data)
    i.wiz_send_data                          0x00006a88   Section        0  w5500.o(i.wiz_send_data)
    i.wizchip_Init                           0x00006d70   Section        0  ethernet.o(i.wizchip_Init)
    i.wizchip_bus_readdata                   0x00006e54   Section        0  wizchip_conf.o(i.wizchip_bus_readdata)
    i.wizchip_bus_writedata                  0x00006e5a   Section        0  wizchip_conf.o(i.wizchip_bus_writedata)
    i.wizchip_clrinterrupt                   0x00006e5e   Section        0  wizchip_conf.o(i.wizchip_clrinterrupt)
    i.wizchip_cris_enter                     0x00006e7e   Section        0  wizchip_conf.o(i.wizchip_cris_enter)
    i.wizchip_cris_exit                      0x00006e80   Section        0  wizchip_conf.o(i.wizchip_cris_exit)
    i.wizchip_cs_deselect                    0x00006e82   Section        0  wizchip_conf.o(i.wizchip_cs_deselect)
    i.wizchip_cs_select                      0x00006e84   Section        0  wizchip_conf.o(i.wizchip_cs_select)
    i.wizchip_deselect                       0x00006e88   Section        0  ethernet.o(i.wizchip_deselect)
    i.wizchip_getinterrupt                   0x00006e9c   Section        0  wizchip_conf.o(i.wizchip_getinterrupt)
    i.wizchip_getinterruptmask               0x00006ec6   Section        0  wizchip_conf.o(i.wizchip_getinterruptmask)
    i.wizchip_init                           0x00006eee   Section        0  wizchip_conf.o(i.wizchip_init)
    i.wizchip_noReset                        0x00006f80   Section        0  ethernet.o(i.wizchip_noReset)
    i.wizchip_read                           0x00006f94   Section        0  ethernet.o(i.wizchip_read)
    i.wizchip_reset                          0x00006fac   Section        0  ethernet.o(i.wizchip_reset)
    i.wizchip_select                         0x00006fc0   Section        0  ethernet.o(i.wizchip_select)
    i.wizchip_setinterruptmask               0x00006fd4   Section        0  wizchip_conf.o(i.wizchip_setinterruptmask)
    i.wizchip_spi_readbyte                   0x00006ff2   Section        0  wizchip_conf.o(i.wizchip_spi_readbyte)
    i.wizchip_spi_writebyte                  0x00006ff6   Section        0  wizchip_conf.o(i.wizchip_spi_writebyte)
    i.wizchip_sw_reset                       0x00006ff8   Section        0  wizchip_conf.o(i.wizchip_sw_reset)
    i.wizchip_write                          0x0000706c   Section        0  ethernet.o(i.wizchip_write)
    i.wizphy_getphyconf                      0x00007080   Section        0  wizchip_conf.o(i.wizphy_getphyconf)
    i.wizphy_getphylink                      0x000070f8   Section        0  wizchip_conf.o(i.wizphy_getphylink)
    i.wizphy_getphypmode                     0x00007112   Section        0  wizchip_conf.o(i.wizphy_getphypmode)
    i.wizphy_reset                           0x0000712e   Section        0  wizchip_conf.o(i.wizphy_reset)
    i.wizphy_setphyconf                      0x00007162   Section        0  wizchip_conf.o(i.wizphy_setphyconf)
    i.wizphy_setphypmode                     0x000071ba   Section        0  wizchip_conf.o(i.wizphy_setphypmode)
    .constdata                               0x00007220   Section       12  main.o(.constdata)
    .constdata                               0x0000722c   Section        4  delays.o(.constdata)
    .constdata                               0x00007230   Section      512  crc.o(.constdata)
    aucCRCHi                                 0x00007230   Data         256  crc.o(.constdata)
    aucCRCLo                                 0x00007330   Data         256  crc.o(.constdata)
    .constdata                               0x00007430   Section        8  ethernet.o(.constdata)
    .constdata                               0x00007438   Section      104  rtx_conf_cm.o(.constdata)
    __tagsym$$used                           0x00007454   Number         0  rtx_conf_cm.o(.constdata)
    __tagsym$$used                           0x00007458   Number         0  rtx_conf_cm.o(.constdata)
    __tagsym$$used                           0x0000745c   Number         0  rtx_conf_cm.o(.constdata)
    __tagsym$$used                           0x00007460   Number         0  rtx_conf_cm.o(.constdata)
    .constdata                               0x000074a0   Section      129  ctype_o.o(.constdata)
    .constdata                               0x00007524   Section        4  ctype_o.o(.constdata)
    table                                    0x00007524   Data           4  ctype_o.o(.constdata)
    .conststring                             0x00007528   Section       98  ethernet.o(.conststring)
    .data                                    0x10000000   Section        4  delays.o(.data)
    .data                                    0x10000004   Section        1  uart_17xx_40xx.o(.data)
    ABsyncSts                                0x10000004   Data           1  uart_17xx_40xx.o(.data)
    .data                                    0x10000008   Section       16  internalflash.o(.data)
    flashPointer                             0x10000008   Data           4  internalflash.o(.data)
    selectedFlashNo                          0x1000000c   Data           1  internalflash.o(.data)
    ptr                                      0x10000010   Data           4  internalflash.o(.data)
    ptr                                      0x10000014   Data           4  internalflash.o(.data)
    .data                                    0x10000018   Section       10  device.o(.data)
    .data                                    0x10000024   Section       44  ethernet.o(.data)
    .data                                    0x10000050   Section       22  w5500.o(.data)
    firstread                                0x10000050   Data           2  w5500.o(.data)
    ptr                                      0x10000052   Data           2  w5500.o(.data)
    ptr1                                     0x10000054   Data           2  w5500.o(.data)
    ptr2                                     0x10000056   Data           2  w5500.o(.data)
    ptr3                                     0x10000058   Data           2  w5500.o(.data)
    ptr4                                     0x1000005a   Data           2  w5500.o(.data)
    readback1                                0x1000005c   Data           2  w5500.o(.data)
    readback2                                0x1000005e   Data           2  w5500.o(.data)
    readback3                                0x10000060   Data           2  w5500.o(.data)
    readback4                                0x10000062   Data           2  w5500.o(.data)
    temp                                     0x10000064   Data           2  w5500.o(.data)
    .data                                    0x10000066   Section       14  socket.o(.data)
    sock_any_port                            0x10000066   Data           2  socket.o(.data)
    sock_io_mode                             0x10000068   Data           2  socket.o(.data)
    sock_is_sending                          0x1000006a   Data           2  socket.o(.data)
    .data                                    0x10000074   Section       45  wizchip_conf.o(.data)
    _DNS_                                    0x1000009c   Data           4  wizchip_conf.o(.data)
    _DHCP_                                   0x100000a0   Data           1  wizchip_conf.o(.data)
    .data                                    0x100000a4   Section       16  rtx_conf_cm.o(.data)
    .data                                    0x100000b4   Section        4  system_lpc17xx.o(.data)
    .data                                    0x100000b8   Section        8  rt_cmsis.o(.data)
    .data                                    0x100000c0   Section        8  rt_task.o(.data)
    .data                                    0x100000c8   Section        8  rt_system.o(.data)
    os_lock                                  0x100000c8   Data           1  rt_system.o(.data)
    os_psh_flag                              0x100000c9   Data           1  rt_system.o(.data)
    pend_flags                               0x100000ca   Data           1  rt_system.o(.data)
    .data                                    0x100000d0   Section        4  rt_time.o(.data)
    .data                                    0x100000d4   Section        1  hal_cm.o(.data)
    .data                                    0x100000d8   Section        8  rt_robin.o(.data)
    .data                                    0x100000e0   Section        4  stdout.o(.data)
    .data                                    0x100000e4   Section        4  mvars.o(.data)
    .data                                    0x100000e8   Section        4  mvars.o(.data)
    .data                                    0x100000ec   Section        4  errno.o(.data)
    _errno                                   0x100000ec   Data           4  errno.o(.data)
    .bss                                     0x100000f0   Section       16  delays.o(.bss)
    .bss                                     0x10000100   Section       32  mainrtx.o(.bss)
    .bss                                     0x10000120   Section     1288  rs485.o(.bss)
    rs485_1                                  0x10000138   Data         316  rs485.o(.bss)
    rs485_2                                  0x10000274   Data         316  rs485.o(.bss)
    rs485_3                                  0x100003b0   Data         316  rs485.o(.bss)
    rs485_4                                  0x100004ec   Data         316  rs485.o(.bss)
    .bss                                     0x10000628   Section       20  w5500.o(.bss)
    SSPdata                                  0x10000628   Data          20  w5500.o(.bss)
    .bss                                     0x1000063c   Section       16  socket.o(.bss)
    sock_remained_size                       0x1000063c   Data          16  socket.o(.bss)
    .bss                                     0x10000650   Section     9800  rtx_conf_cm.o(.bss)
    .bss                                     0x10002c98   Section       52  rt_task.o(.bss)
    .bss                                     0x10002ccc   Section       48  rt_list.o(.bss)
    HEAP                                     0x10002d00   Section        0  startup_lpc17xx.o(HEAP)
    STACK                                    0x10002d00   Section      512  startup_lpc17xx.o(STACK)
    .bss                                     0x2007c000   Section     8192  internalflash.o(.bss)
    flashArea                                0x2007c000   Data        8192  internalflash.o(.bss)
    .bss                                     0x2007e000   Section     7732  ethernet.o(.bss)
    buf                                      0x2007fc40   Data         500  ethernet.o(.bss)

    Global Symbols

    Symbol Name                              Value     Ov Type        Size  Object(Section)

    BuildAttributes$$THM_ISAv4$P$D$K$B$S$PE$A:L22UL41UL21$X:L11$S22US41US21$IEEE1$IW$USESV6$~STKCKD$USESV7$~SHL$OSPACE$ROPI$EBA8$MICROLIB$REQ8$PRES8$EABIv2 0x00000000   Number         0  anon$$obj.o ABSOLUTE
    __ARM_use_no_argv                        0x00000000   Number         0  main.o ABSOLUTE
    __Vectors                                0x00000000   Data           4  startup_lpc17xx.o(RESET)
    _printf_a                                0x00000000   Number         0  stubs.o ABSOLUTE
    _printf_c                                0x00000000   Number         0  stubs.o ABSOLUTE
    _printf_charcount                        0x00000000   Number         0  stubs.o ABSOLUTE
    _printf_d                                0x00000000   Number         0  stubs.o ABSOLUTE
    _printf_e                                0x00000000   Number         0  stubs.o ABSOLUTE
    _printf_f                                0x00000000   Number         0  stubs.o ABSOLUTE
    _printf_flags                            0x00000000   Number         0  stubs.o ABSOLUTE
    _printf_fp_dec                           0x00000000   Number         0  stubs.o ABSOLUTE
    _printf_fp_hex                           0x00000000   Number         0  stubs.o ABSOLUTE
    _printf_g                                0x00000000   Number         0  stubs.o ABSOLUTE
    _printf_i                                0x00000000   Number         0  stubs.o ABSOLUTE
    _printf_int_dec                          0x00000000   Number         0  stubs.o ABSOLUTE
    _printf_l                                0x00000000   Number         0  stubs.o ABSOLUTE
    _printf_lc                               0x00000000   Number         0  stubs.o ABSOLUTE
    _printf_ll                               0x00000000   Number         0  stubs.o ABSOLUTE
    _printf_lld                              0x00000000   Number         0  stubs.o ABSOLUTE
    _printf_lli                              0x00000000   Number         0  stubs.o ABSOLUTE
    _printf_llo                              0x00000000   Number         0  stubs.o ABSOLUTE
    _printf_llu                              0x00000000   Number         0  stubs.o ABSOLUTE
    _printf_llx                              0x00000000   Number         0  stubs.o ABSOLUTE
    _printf_longlong_dec                     0x00000000   Number         0  stubs.o ABSOLUTE
    _printf_longlong_hex                     0x00000000   Number         0  stubs.o ABSOLUTE
    _printf_longlong_oct                     0x00000000   Number         0  stubs.o ABSOLUTE
    _printf_ls                               0x00000000   Number         0  stubs.o ABSOLUTE
    _printf_mbtowc                           0x00000000   Number         0  stubs.o ABSOLUTE
    _printf_n                                0x00000000   Number         0  stubs.o ABSOLUTE
    _printf_o                                0x00000000   Number         0  stubs.o ABSOLUTE
    _printf_p                                0x00000000   Number         0  stubs.o ABSOLUTE
    _printf_percent                          0x00000000   Number         0  stubs.o ABSOLUTE
    _printf_pre_padding                      0x00000000   Number         0  stubs.o ABSOLUTE
    _printf_return_value                     0x00000000   Number         0  stubs.o ABSOLUTE
    _printf_s                                0x00000000   Number         0  stubs.o ABSOLUTE
    _printf_sizespec                         0x00000000   Number         0  stubs.o ABSOLUTE
    _printf_str                              0x00000000   Number         0  stubs.o ABSOLUTE
    _printf_truncate_signed                  0x00000000   Number         0  stubs.o ABSOLUTE
    _printf_truncate_unsigned                0x00000000   Number         0  stubs.o ABSOLUTE
    _printf_u                                0x00000000   Number         0  stubs.o ABSOLUTE
    _printf_wc                               0x00000000   Number         0  stubs.o ABSOLUTE
    _printf_wctomb                           0x00000000   Number         0  stubs.o ABSOLUTE
    _printf_widthprec                        0x00000000   Number         0  stubs.o ABSOLUTE
    _printf_x                                0x00000000   Number         0  stubs.o ABSOLUTE
    __cpp_initialize__aeabi_                  - Undefined Weak Reference
    __cxa_finalize                            - Undefined Weak Reference
    __decompress                              - Undefined Weak Reference
    _clock_init                               - Undefined Weak Reference
    _microlib_exit                            - Undefined Weak Reference
    _scanf_longlong                           - Undefined Weak Reference
    _scanf_real                               - Undefined Weak Reference
    _scanf_string                             - Undefined Weak Reference
    __main                                   0x000000cd   Thumb Code     0  entry.o(.ARM.Collect$$$$00000000)
    _main_stk                                0x000000cd   Thumb Code     0  entry2.o(.ARM.Collect$$$$00000001)
    _main_scatterload                        0x000000d1   Thumb Code     0  entry5.o(.ARM.Collect$$$$00000004)
    __main_after_scatterload                 0x000000d5   Thumb Code     0  entry5.o(.ARM.Collect$$$$00000004)
    __rt_final_cpp                           0x000000d5   Thumb Code     0  entry10a.o(.ARM.Collect$$$$0000000D)
    __rt_final_exit                          0x000000d5   Thumb Code     0  entry11a.o(.ARM.Collect$$$$0000000F)
    _main_clock                              0x000000d5   Thumb Code     0  entry7b.o(.ARM.Collect$$$$00000008)
    _main_cpp_init                           0x000000d5   Thumb Code     0  entry8b.o(.ARM.Collect$$$$0000000A)
    _main_init                               0x000000d5   Thumb Code    18  rtx_conf_cm.o(.ARM.Collect$$$$000000FF)
    rt_set_PSP                               0x000000f1   Thumb Code     6  hal_cm3.o(.emb_text)
    rt_get_PSP                               0x000000f7   Thumb Code     6  hal_cm3.o(.emb_text)
    os_set_env                               0x000000fd   Thumb Code    24  hal_cm3.o(.emb_text)
    _alloc_box                               0x00000119   Thumb Code    28  hal_cm3.o(.emb_text)
    _free_box                                0x00000139   Thumb Code    28  hal_cm3.o(.emb_text)
    SVC_Handler                              0x00000159   Thumb Code   108  hal_cm3.o(.emb_text)
    PendSV_Handler                           0x000001d1   Thumb Code    56  hal_cm3.o(.emb_text)
    SysTick_Handler                          0x0000020d   Thumb Code     8  hal_cm3.o(.emb_text)
    OS_Tick_Handler                          0x00000215   Thumb Code    12  hal_cm3.o(.emb_text)
    Reset_Handler                            0x00000221   Thumb Code     8  startup_lpc17xx.o(.text)
    NMI_Handler                              0x00000229   Thumb Code     2  startup_lpc17xx.o(.text)
    HardFault_Handler                        0x0000022b   Thumb Code     2  startup_lpc17xx.o(.text)
    MemManage_Handler                        0x0000022d   Thumb Code     2  startup_lpc17xx.o(.text)
    BusFault_Handler                         0x0000022f   Thumb Code     2  startup_lpc17xx.o(.text)
    UsageFault_Handler                       0x00000231   Thumb Code     2  startup_lpc17xx.o(.text)
    DebugMon_Handler                         0x00000235   Thumb Code     2  startup_lpc17xx.o(.text)
    ADC_IRQHandler                           0x0000023b   Thumb Code     0  startup_lpc17xx.o(.text)
    BOD_IRQHandler                           0x0000023b   Thumb Code     0  startup_lpc17xx.o(.text)
    CANActivity_IRQHandler                   0x0000023b   Thumb Code     0  startup_lpc17xx.o(.text)
    CAN_IRQHandler                           0x0000023b   Thumb Code     0  startup_lpc17xx.o(.text)
    DMA_IRQHandler                           0x0000023b   Thumb Code     0  startup_lpc17xx.o(.text)
    EINT0_IRQHandler                         0x0000023b   Thumb Code     0  startup_lpc17xx.o(.text)
    EINT1_IRQHandler                         0x0000023b   Thumb Code     0  startup_lpc17xx.o(.text)
    EINT2_IRQHandler                         0x0000023b   Thumb Code     0  startup_lpc17xx.o(.text)
    EINT3_IRQHandler                         0x0000023b   Thumb Code     0  startup_lpc17xx.o(.text)
    ENET_IRQHandler                          0x0000023b   Thumb Code     0  startup_lpc17xx.o(.text)
    I2C0_IRQHandler                          0x0000023b   Thumb Code     0  startup_lpc17xx.o(.text)
    I2C1_IRQHandler                          0x0000023b   Thumb Code     0  startup_lpc17xx.o(.text)
    I2C2_IRQHandler                          0x0000023b   Thumb Code     0  startup_lpc17xx.o(.text)
    I2S_IRQHandler                           0x0000023b   Thumb Code     0  startup_lpc17xx.o(.text)
    MCPWM_IRQHandler                         0x0000023b   Thumb Code     0  startup_lpc17xx.o(.text)
    PLL0_IRQHandler                          0x0000023b   Thumb Code     0  startup_lpc17xx.o(.text)
    PLL1_IRQHandler                          0x0000023b   Thumb Code     0  startup_lpc17xx.o(.text)
    PWM1_IRQHandler                          0x0000023b   Thumb Code     0  startup_lpc17xx.o(.text)
    QEI_IRQHandler                           0x0000023b   Thumb Code     0  startup_lpc17xx.o(.text)
    RIT_IRQHandler                           0x0000023b   Thumb Code     0  startup_lpc17xx.o(.text)
    RTC_IRQHandler                           0x0000023b   Thumb Code     0  startup_lpc17xx.o(.text)
    SPI_IRQHandler                           0x0000023b   Thumb Code     0  startup_lpc17xx.o(.text)
    SSP0_IRQHandler                          0x0000023b   Thumb Code     0  startup_lpc17xx.o(.text)
    SSP1_IRQHandler                          0x0000023b   Thumb Code     0  startup_lpc17xx.o(.text)
    TIMER0_IRQHandler                        0x0000023b   Thumb Code     0  startup_lpc17xx.o(.text)
    TIMER1_IRQHandler                        0x0000023b   Thumb Code     0  startup_lpc17xx.o(.text)
    TIMER2_IRQHandler                        0x0000023b   Thumb Code     0  startup_lpc17xx.o(.text)
    TIMER3_IRQHandler                        0x0000023b   Thumb Code     0  startup_lpc17xx.o(.text)
    USBActivity_IRQHandler                   0x0000023b   Thumb Code     0  startup_lpc17xx.o(.text)
    USB_IRQHandler                           0x0000023b   Thumb Code     0  startup_lpc17xx.o(.text)
    WDT_IRQHandler                           0x0000023b   Thumb Code     0  startup_lpc17xx.o(.text)
    __aeabi_uldivmod                         0x00000245   Thumb Code    98  uldiv.o(.text)
    __aeabi_memcpy                           0x000002a7   Thumb Code    36  memcpya.o(.text)
    __aeabi_memcpy4                          0x000002a7   Thumb Code     0  memcpya.o(.text)
    __aeabi_memcpy8                          0x000002a7   Thumb Code     0  memcpya.o(.text)
    __aeabi_memset                           0x000002cb   Thumb Code    14  memseta.o(.text)
    __aeabi_memset4                          0x000002cb   Thumb Code     0  memseta.o(.text)
    __aeabi_memset8                          0x000002cb   Thumb Code     0  memseta.o(.text)
    __aeabi_memclr                           0x000002d9   Thumb Code     4  memseta.o(.text)
    __aeabi_memclr4                          0x000002d9   Thumb Code     0  memseta.o(.text)
    __aeabi_memclr8                          0x000002d9   Thumb Code     0  memseta.o(.text)
    _memset$wrapper                          0x000002dd   Thumb Code    18  memseta.o(.text)
    strlen                                   0x000002ef   Thumb Code    14  strlen.o(.text)
    strcat                                   0x00000301   Thumb Code    24  strcat.o(.text)
    strstr                                   0x00000319   Thumb Code    36  strstr.o(.text)
    strncmp                                  0x0000033d   Thumb Code    30  strncmp.o(.text)
    __0sscanf                                0x0000035d   Thumb Code    48  __0sscanf.o(.text)
    _scanf_int                               0x00000395   Thumb Code   332  _scanf_int.o(.text)
    __RL_RTX_VER                             0x00000482   Number         0  rt_system.o ABSOLUTE
    atoi                                     0x000004e1   Thumb Code    26  atoi.o(.text)
    __aeabi_uidiv                            0x000004fb   Thumb Code     0  uidiv.o(.text)
    __aeabi_uidivmod                         0x000004fb   Thumb Code    44  uidiv.o(.text)
    __aeabi_llsl                             0x00000527   Thumb Code    30  llshl.o(.text)
    _ll_shift_l                              0x00000527   Thumb Code     0  llshl.o(.text)
    __aeabi_llsr                             0x00000545   Thumb Code    32  llushr.o(.text)
    _ll_ushift_r                             0x00000545   Thumb Code     0  llushr.o(.text)
    _chval                                   0x00000565   Thumb Code    28  _chval.o(.text)
    __vfscanf_char                           0x0000058d   Thumb Code    20  scanf_char.o(.text)
    _sgetc                                   0x000005a9   Thumb Code    30  _sgetc.o(.text)
    _sbackspace                              0x000005c7   Thumb Code    34  _sgetc.o(.text)
    strtol                                   0x000005e9   Thumb Code   112  strtol.o(.text)
    __scatterload                            0x00000659   Thumb Code    28  init.o(.text)
    __scatterload_rt2                        0x00000659   Thumb Code     0  init.o(.text)
    __rt_ctype_table                         0x0000067d   Thumb Code     4  ctype_o.o(.text)
    __semihosting_library_function           0x0000067d   Thumb Code     0  semi.o(.text)
    isspace                                  0x00000685   Thumb Code    18  isspace_o.o(.text)
    __vfscanf                                0x00000699   Thumb Code   808  _scanf.o(.text)
    _strtoul                                 0x000009c5   Thumb Code   158  _strtoul.o(.text)
    __I$use$semihosting$fputc                0x00000a63   Thumb Code     0  iusesemip.o(.text)
    SVC_Count                                0x00000a64   Data           4  svc_table.o(SVC_TABLE)
    Chip_Clock_EnablePeriphClock             0x00000a69   Thumb Code    22  clock_17xx_40xx.o(i.Chip_Clock_EnablePeriphClock)
    SVC_Table                                0x00000a68   Data           0  svc_table.o(SVC_TABLE)
    Chip_Clock_GetCPUClockDiv                0x00000a85   Thumb Code    10  clock_17xx_40xx.o(i.Chip_Clock_GetCPUClockDiv)
    Chip_Clock_GetCPUClockSource             0x00000a95   Thumb Code    20  clock_17xx_40xx.o(i.Chip_Clock_GetCPUClockSource)
    Chip_Clock_GetMainClockRate              0x00000aad   Thumb Code    28  clock_17xx_40xx.o(i.Chip_Clock_GetMainClockRate)
    Chip_Clock_GetMainPLLOutClockRate        0x00000ac9   Thumb Code    60  clock_17xx_40xx.o(i.Chip_Clock_GetMainPLLOutClockRate)
    Chip_Clock_GetPCLKDiv                    0x00000b09   Thumb Code    66  clock_17xx_40xx.o(i.Chip_Clock_GetPCLKDiv)
    Chip_Clock_GetPeripheralClockRate        0x00000b51   Thumb Code    22  clock_17xx_40xx.o(i.Chip_Clock_GetPeripheralClockRate)
    Chip_Clock_GetSYSCLKRate                 0x00000b69   Thumb Code    48  clock_17xx_40xx.o(i.Chip_Clock_GetSYSCLKRate)
    Chip_Clock_GetSystemClockRate            0x00000ba9   Thumb Code    18  clock_17xx_40xx.o(i.Chip_Clock_GetSystemClockRate)
    Chip_IAP_BlankCheckSector                0x00000be7   Thumb Code    32  iap.o(i.Chip_IAP_BlankCheckSector)
    Chip_IAP_CopyRamToFlash                  0x00000c09   Thumb Code    50  iap.o(i.Chip_IAP_CopyRamToFlash)
    Chip_IAP_EraseSector                     0x00000c41   Thumb Code    46  iap.o(i.Chip_IAP_EraseSector)
    Chip_IAP_PreSectorForReadWrite           0x00000c75   Thumb Code    32  iap.o(i.Chip_IAP_PreSectorForReadWrite)
    Chip_IOCON_PinMux                        0x00000c95   Thumb Code   126  iocon_17xx_40xx.o(i.Chip_IOCON_PinMux)
    Chip_IOCON_PinMuxSet                     0x00000d13   Thumb Code    30  iocon_17xx_40xx.o(i.Chip_IOCON_PinMuxSet)
    Chip_SSP_RWFrames_Blocking               0x00000d69   Thumb Code   208  ssp_17xx_40xx.o(i.Chip_SSP_RWFrames_Blocking)
    Chip_SSP_ReadFrames_Blocking             0x00000e39   Thumb Code   244  ssp_17xx_40xx.o(i.Chip_SSP_ReadFrames_Blocking)
    Chip_SSP_SetBitRate                      0x00000f3b   Thumb Code    70  ssp_17xx_40xx.o(i.Chip_SSP_SetBitRate)
    Chip_SSP_SetClockRate                    0x00000f81   Thumb Code    20  ssp_17xx_40xx.o(i.Chip_SSP_SetClockRate)
    Chip_SSP_WriteFrames_Blocking            0x00000f95   Thumb Code   234  ssp_17xx_40xx.o(i.Chip_SSP_WriteFrames_Blocking)
    Chip_UART_IRQRBHandler                   0x000010d5   Thumb Code    66  uart_17xx_40xx.o(i.Chip_UART_IRQRBHandler)
    Chip_UART_RXIntHandlerRB                 0x0000111f   Thumb Code    42  uart_17xx_40xx.o(i.Chip_UART_RXIntHandlerRB)
    Chip_UART_TXIntHandlerRB                 0x0000115b   Thumb Code    44  uart_17xx_40xx.o(i.Chip_UART_TXIntHandlerRB)
    ETH_CheckConnectPortClosed               0x00001189   Thumb Code    50  ethernet.o(i.ETH_CheckConnectPortClosed)
    ETH_CheckIncomingDataOnListenPortPc      0x000011c1   Thumb Code   428  ethernet.o(i.ETH_CheckIncomingDataOnListenPortPc)
    ETH_DeleteCommands                       0x00001371   Thumb Code    48  ethernet.o(i.ETH_DeleteCommands)
    ETH_GetDefaultParameters                 0x000013a5   Thumb Code   102  ethernet.o(i.ETH_GetDefaultParameters)
    ETH_GetNewNetworkParameters              0x0000141d   Thumb Code   234  ethernet.o(i.ETH_GetNewNetworkParameters)
    ETH_MasterFunc                           0x00001555   Thumb Code  1502  ethernet.o(i.ETH_MasterFunc)
    ETH_PackageControl_PC                    0x00001b35   Thumb Code   266  ethernet.o(i.ETH_PackageControl_PC)
    ETH_ProgramController                    0x00001cc5   Thumb Code    64  ethernet.o(i.ETH_ProgramController)
    ETH_ReadMasterUpdateDisp                 0x00001d05   Thumb Code   426  ethernet.o(i.ETH_ReadMasterUpdateDisp)
    ETH_RecordCommands                       0x00001eb9   Thumb Code    26  ethernet.o(i.ETH_RecordCommands)
    ETH_SaveNetworkParameters                0x00001ed9   Thumb Code    32  ethernet.o(i.ETH_SaveNetworkParameters)
    ETH_SendDataFromListenPortPC             0x00001ef9   Thumb Code   178  ethernet.o(i.ETH_SendDataFromListenPortPC)
    ETH_SendDataNOK                          0x00001fad   Thumb Code    38  ethernet.o(i.ETH_SendDataNOK)
    ETH_SendDataOK                           0x00001fe1   Thumb Code    38  ethernet.o(i.ETH_SendDataOK)
    ETH_SendETX                              0x00002015   Thumb Code    30  ethernet.o(i.ETH_SendETX)
    ETH_SendNetworkParameters                0x00002035   Thumb Code   134  ethernet.o(i.ETH_SendNetworkParameters)
    ETH_SendSTX                              0x000020c5   Thumb Code    30  ethernet.o(i.ETH_SendSTX)
    ETH_SendStatus                           0x000020e5   Thumb Code   302  ethernet.o(i.ETH_SendStatus)
    ETH_SetNetworkParameters                 0x000022dd   Thumb Code    42  ethernet.o(i.ETH_SetNetworkParameters)
    ETH_addFreeLot                           0x0000230d   Thumb Code   566  ethernet.o(i.ETH_addFreeLot)
    ETH_checkEmptySocket                     0x00002595   Thumb Code    94  ethernet.o(i.ETH_checkEmptySocket)
    ETH_checkSocketClosed                    0x000025f9   Thumb Code    30  ethernet.o(i.ETH_checkSocketClosed)
    ETH_closeAllSocket                       0x00002619   Thumb Code   136  ethernet.o(i.ETH_closeAllSocket)
    ETH_commInProgress                       0x000026a5   Thumb Code    34  ethernet.o(i.ETH_commInProgress)
    ETH_connectToMaster                      0x000026cd   Thumb Code   184  ethernet.o(i.ETH_connectToMaster)
    ETH_getListenPackageFromFifo             0x0000278d   Thumb Code   122  ethernet.o(i.ETH_getListenPackageFromFifo)
    ETH_getNextMasterAddress                 0x0000280d   Thumb Code   224  ethernet.o(i.ETH_getNextMasterAddress)
    ETH_getPackageFromFifo                   0x000028f1   Thumb Code   110  ethernet.o(i.ETH_getPackageFromFifo)
    ETH_readMasters                          0x00002961   Thumb Code   556  ethernet.o(i.ETH_readMasters)
    ETH_setDisplayReg                        0x00002bad   Thumb Code   738  ethernet.o(i.ETH_setDisplayReg)
    ETH_socketComm                           0x00002ee1   Thumb Code   244  ethernet.o(i.ETH_socketComm)
    ETH_socketCommReceive                    0x00002fd5   Thumb Code   424  ethernet.o(i.ETH_socketCommReceive)
    Ethernet_Task                            0x00003181   Thumb Code   262  ethernet.o(i.Ethernet_Task)
    GetData                                  0x0000329d   Thumb Code    38  internalflash.o(i.GetData)
    RingBuffer_Insert                        0x000032d7   Thumb Code    54  ring_buffer.o(i.RingBuffer_Insert)
    RingBuffer_Pop                           0x00003337   Thumb Code    54  ring_buffer.o(i.RingBuffer_Pop)
    SaveAllParameterToFlash                  0x0000342b   Thumb Code    26  settings.o(i.SaveAllParameterToFlash)
    SaveDataReadyDataToRAM                   0x00003445   Thumb Code    22  settings.o(i.SaveDataReadyDataToRAM)
    SaveEthernetDataToRAM                    0x00003461   Thumb Code    92  settings.o(i.SaveEthernetDataToRAM)
    SaveToRAMbuff                            0x000034c1   Thumb Code    42  internalflash.o(i.SaveToRAMbuff)
    SystemCoreClockUpdate                    0x000034f1   Thumb Code   408  system_lpc17xx.o(i.SystemCoreClockUpdate)
    SystemInit                               0x00003699   Thumb Code   198  system_lpc17xx.o(i.SystemInit)
    UART0_IRQHandler                         0x0000376d   Thumb Code    16  rs485.o(i.UART0_IRQHandler)
    UART1_IRQHandler                         0x00003785   Thumb Code    16  rs485.o(i.UART1_IRQHandler)
    UART2_IRQHandler                         0x0000379d   Thumb Code    16  rs485.o(i.UART2_IRQHandler)
    UART3_IRQHandler                         0x000037b5   Thumb Code    16  rs485.o(i.UART3_IRQHandler)
    WIZCHIP_READ                             0x000037cd   Thumb Code    84  w5500.o(i.WIZCHIP_READ)
    WIZCHIP_READ_BUF                         0x00003829   Thumb Code   102  w5500.o(i.WIZCHIP_READ_BUF)
    WIZCHIP_WRITE                            0x00003899   Thumb Code    86  w5500.o(i.WIZCHIP_WRITE)
    WIZCHIP_WRITE_BUF                        0x000038f9   Thumb Code   106  w5500.o(i.WIZCHIP_WRITE_BUF)
    __0printf$1                              0x0000396d   Thumb Code    22  printf1.o(i.__0printf$1)
    __1printf$1                              0x0000396d   Thumb Code     0  printf1.o(i.__0printf$1)
    __2printf                                0x0000396d   Thumb Code     0  printf1.o(i.__0printf$1)
    __0sprintf$1                             0x0000398d   Thumb Code    34  printf1.o(i.__0sprintf$1)
    __1sprintf$1                             0x0000398d   Thumb Code     0  printf1.o(i.__0sprintf$1)
    __2sprintf                               0x0000398d   Thumb Code     0  printf1.o(i.__0sprintf$1)
    __aeabi_errno_addr                       0x000039b5   Thumb Code     4  errno.o(i.__aeabi_errno_addr)
    __rt_errno_addr                          0x000039b5   Thumb Code     0  errno.o(i.__aeabi_errno_addr)
    __scatterload_copy                       0x000039bd   Thumb Code    14  handlers.o(i.__scatterload_copy)
    __scatterload_null                       0x000039cb   Thumb Code     2  handlers.o(i.__scatterload_null)
    __scatterload_zeroinit                   0x000039cd   Thumb Code    14  handlers.o(i.__scatterload_zeroinit)
    _init_box                                0x000039db   Thumb Code    70  rt_membox.o(i._init_box)
    addControllerCommandsToRAM               0x00003b7f   Thumb Code    62  settings.o(i.addControllerCommandsToRAM)
    addElement_fifo8                         0x00003bbd   Thumb Code    52  fifo8.o(i.addElement_fifo8)
    c_entry                                  0x00003bf1   Thumb Code    14  main.o(i.c_entry)
    checkFlashCRC                            0x00003c01   Thumb Code   102  internalflash.o(i.checkFlashCRC)
    clearDeviceRegs                          0x00003c6d   Thumb Code     2  device.o(i.clearDeviceRegs)
    clear_fifo8                              0x00003c6f   Thumb Code    34  fifo8.o(i.clear_fifo8)
    close                                    0x00003c91   Thumb Code   182  socket.o(i.close)
    compareFlash                             0x00003d5d   Thumb Code    72  internalflash.o(i.compareFlash)
    connect                                  0x00003da9   Thumb Code   384  socket.o(i.connect)
    crc16                                    0x00003f31   Thumb Code    46  crc.o(i.crc16)
    ctlwizchip                               0x00003f69   Thumb Code   276  wizchip_conf.o(i.ctlwizchip)
    dbg_init                                 0x00004081   Thumb Code    34  hal_cm.o(i.dbg_init)
    dbg_task_notify                          0x000040b1   Thumb Code    32  hal_cm.o(i.dbg_task_notify)
    dbg_task_switch                          0x000040d1   Thumb Code    16  hal_cm.o(i.dbg_task_switch)
    disconnect                               0x000040e1   Thumb Code   218  socket.o(i.disconnect)
    eraseCommandsRamArea                     0x000041c9   Thumb Code    24  internalflash.o(i.eraseCommandsRamArea)
    eraseFlashRamArea                        0x000041e5   Thumb Code    20  internalflash.o(i.eraseFlashRamArea)
    extract_between                          0x000041fd   Thumb Code   118  master.o(i.extract_between)
    flashDiagnostic                          0x00004275   Thumb Code   166  settings.o(i.flashDiagnostic)
    flashErase                               0x00004321   Thumb Code   164  internalflash.o(i.flashErase)
    flashInit                                0x000043c5   Thumb Code   244  internalflash.o(i.flashInit)
    flashWrite                               0x000044c5   Thumb Code   374  internalflash.o(i.flashWrite)
    flashWriteBackup                         0x0000464d   Thumb Code   154  internalflash.o(i.flashWriteBackup)
    fputc                                    0x000046f5   Thumb Code    18  fputc.o(i.fputc)
    free                                     0x00004709   Thumb Code    76  malloc.o(i.free)
    getCmdBuffEndAdress                      0x00004759   Thumb Code    16  settings.o(i.getCmdBuffEndAdress)
    getCmdBuffStartAdress                    0x00004769   Thumb Code    12  settings.o(i.getCmdBuffStartAdress)
    getCommand                               0x00004775   Thumb Code   102  device.o(i.getCommand)
    getDataFromFlash                         0x000047db   Thumb Code    16  settings.o(i.getDataFromFlash)
    getDataFromFlashToRAM                    0x000047ed   Thumb Code    26  internalflash.o(i.getDataFromFlashToRAM)
    getElement_fifo8                         0x0000480d   Thumb Code    48  fifo8.o(i.getElement_fifo8)
    getElementsNumber_fifo8                  0x0000483d   Thumb Code     6  fifo8.o(i.getElementsNumber_fifo8)
    getEmptyAdressForCommandFromRAMbuff      0x00004845   Thumb Code    58  internalflash.o(i.getEmptyAdressForCommandFromRAMbuff)
    getEthernetDataFromFlash                 0x00004885   Thumb Code    72  settings.o(i.getEthernetDataFromFlash)
    getFlashData                             0x000048d1   Thumb Code    34  settings.o(i.getFlashData)
    getFlashPointers                         0x000048f5   Thumb Code   194  internalflash.o(i.getFlashPointers)
    getLastRecordFromFlashToRAM              0x000049c1   Thumb Code    16  settings.o(i.getLastRecordFromFlashToRAM)
    getLastRecordStartAdress                 0x000049d1   Thumb Code   158  internalflash.o(i.getLastRecordStartAdress)
    getSn_RX_RSR                             0x00004a79   Thumb Code   108  w5500.o(i.getSn_RX_RSR)
    getSn_TX_FSR                             0x00004ae5   Thumb Code   108  w5500.o(i.getSn_TX_FSR)
    getparametersRAMStartAdress              0x00004b51   Thumb Code     4  internalflash.o(i.getparametersRAMStartAdress)
    initDelays                               0x00004b6d   Thumb Code    14  delays.o(i.initDelays)
    init_fifo8                               0x00004b85   Thumb Code    12  fifo8.o(i.init_fifo8)
    isEmpty_fifo8                            0x00004b91   Thumb Code    14  fifo8.o(i.isEmpty_fifo8)
    isFull_fifo8                             0x00004b9f   Thumb Code    24  fifo8.o(i.isFull_fifo8)
    isrMessageGet                            0x00004bb7   Thumb Code    42  rt_cmsis.o(i.isrMessageGet)
    isrMessagePut                            0x00004be1   Thumb Code    44  rt_cmsis.o(i.isrMessagePut)
    isr_mbx_receive                          0x00004c0d   Thumb Code    86  rt_mailbox.o(i.isr_mbx_receive)
    isr_mbx_send                             0x00004c63   Thumb Code    14  rt_mailbox.o(i.isr_mbx_send)
    listen                                   0x00004c71   Thumb Code   190  socket.o(i.listen)
    loadDefaultValues                        0x00004d35   Thumb Code    18  settings.o(i.loadDefaultValues)
    main                                     0x00004d4d   Thumb Code    22  main.o(i.main)
    malloc                                   0x00004d65   Thumb Code    92  malloc.o(i.malloc)
    osDelay                                  0x00004dd1   Thumb Code    18  rt_cmsis.o(i.osDelay)
    osKernelInitialize                       0x00004de9   Thumb Code    30  rt_cmsis.o(i.osKernelInitialize)
    osKernelStart                            0x00004e0d   Thumb Code    98  rt_cmsis.o(i.osKernelStart)
    osMessageGet                             0x00004e79   Thumb Code    18  rt_cmsis.o(i.osMessageGet)
    osMutexCreate                            0x00004e91   Thumb Code    36  rt_cmsis.o(i.osMutexCreate)
    osThreadCreate                           0x00004ebd   Thumb Code    36  rt_cmsis.o(i.osThreadCreate)
    osThreadExit                             0x00004ee9   Thumb Code    14  rt_cmsis.o(i.osThreadExit)
    osThreadYield                            0x00004f01   Thumb Code    18  rt_cmsis.o(i.osThreadYield)
    osTimerCall                              0x00004f19   Thumb Code     8  rt_cmsis.o(i.osTimerCall)
    osTimerCreate                            0x00004f25   Thumb Code    36  rt_cmsis.o(i.osTimerCreate)
    osTimerStart                             0x00004f51   Thumb Code    18  rt_cmsis.o(i.osTimerStart)
    osTimerThread                            0x00004f69   Thumb Code    38  rt_cmsis.o(i.osTimerThread)
    os_error                                 0x00004f95   Thumb Code    34  rtx_conf_cm.o(i.os_error)
    os_idle_demon                            0x00004fb7   Thumb Code     4  rtx_conf_cm.o(i.os_idle_demon)
    os_tick_init                             0x00004fbd   Thumb Code    32  rt_system.o(i.os_tick_init)
    os_tick_irqack                           0x00004fe5   Thumb Code     2  rt_system.o(i.os_tick_irqack)
    recv                                     0x00004fe9   Thumb Code   332  socket.o(i.recv)
    reg_wizchip_cs_cbfunc                    0x0000513d   Thumb Code    26  wizchip_conf.o(i.reg_wizchip_cs_cbfunc)
    reg_wizchip_spi_cbfunc                   0x00005165   Thumb Code    40  wizchip_conf.o(i.reg_wizchip_spi_cbfunc)
    restoreFlashBackup                       0x00005199   Thumb Code   156  internalflash.o(i.restoreFlashBackup)
    rt_alloc_box                             0x0000523d   Thumb Code    26  rt_membox.o(i.rt_alloc_box)
    rt_alloc_mem                             0x00005257   Thumb Code    62  rt_memory.o(i.rt_alloc_mem)
    rt_block                                 0x00005295   Thumb Code    48  rt_task.o(i.rt_block)
    rt_chk_robin                             0x000052cd   Thumb Code    60  rt_robin.o(i.rt_chk_robin)
    rt_dec_dly                               0x00005315   Thumb Code   102  rt_list.o(i.rt_dec_dly)
    rt_dispatch                              0x00005385   Thumb Code    60  rt_task.o(i.rt_dispatch)
    rt_dly_wait                              0x000053c9   Thumb Code     6  rt_time.o(i.rt_dly_wait)
    rt_evt_psh                               0x000053d1   Thumb Code    76  rt_event.o(i.rt_evt_psh)
    rt_free_box                              0x00005421   Thumb Code    44  rt_membox.o(i.rt_free_box)
    rt_free_mem                              0x0000544d   Thumb Code    40  rt_memory.o(i.rt_free_mem)
    rt_get_first                             0x00005475   Thumb Code    40  rt_list.o(i.rt_get_first)
    rt_get_same_rdy_prio                     0x0000549d   Thumb Code    26  rt_list.o(i.rt_get_same_rdy_prio)
    rt_init_mem                              0x00005511   Thumb Code    26  rt_memory.o(i.rt_init_mem)
    rt_init_robin                            0x0000552d   Thumb Code    14  rt_robin.o(i.rt_init_robin)
    rt_init_stack                            0x00005545   Thumb Code   118  hal_cm.o(i.rt_init_stack)
    rt_mbx_check                             0x000055c5   Thumb Code     8  rt_mailbox.o(i.rt_mbx_check)
    rt_mbx_init                              0x000055cd   Thumb Code    26  rt_mailbox.o(i.rt_mbx_init)
    rt_mbx_psh                               0x000055e9   Thumb Code   236  rt_mailbox.o(i.rt_mbx_psh)
    rt_mbx_wait                              0x000056d9   Thumb Code   174  rt_mailbox.o(i.rt_mbx_wait)
    rt_mut_init                              0x000057d1   Thumb Code    16  rt_mutex.o(i.rt_mut_init)
    rt_pop_req                               0x000057e1   Thumb Code   112  rt_system.o(i.rt_pop_req)
    rt_psh_req                               0x0000585d   Thumb Code    22  rt_system.o(i.rt_psh_req)
    rt_psq_enq                               0x0000587d   Thumb Code    88  rt_list.o(i.rt_psq_enq)
    rt_put_dly                               0x000058d9   Thumb Code    68  rt_list.o(i.rt_put_dly)
    rt_put_prio                              0x00005921   Thumb Code    54  rt_list.o(i.rt_put_prio)
    rt_put_rdy_first                         0x00005959   Thumb Code    14  rt_list.o(i.rt_put_rdy_first)
    rt_resort_prio                           0x0000596d   Thumb Code    46  rt_list.o(i.rt_resort_prio)
    rt_ret_val                               0x000059a1   Thumb Code     6  hal_cm.o(i.rt_ret_val)
    rt_ret_val2                              0x000059a7   Thumb Code     8  hal_cm.o(i.rt_ret_val2)
    rt_rmv_dly                               0x000059af   Thumb Code    40  rt_list.o(i.rt_rmv_dly)
    rt_rmv_list                              0x000059d9   Thumb Code    44  rt_list.o(i.rt_rmv_list)
    rt_sem_psh                               0x00005a09   Thumb Code    48  rt_semaphore.o(i.rt_sem_psh)
    rt_stk_check                             0x00005a3d   Thumb Code    28  rt_system.o(i.rt_stk_check)
    rt_switch_req                            0x00005a61   Thumb Code    30  rt_task.o(i.rt_switch_req)
    rt_sys_init                              0x00005a89   Thumb Code   138  rt_task.o(i.rt_sys_init)
    rt_sys_start                             0x00005b55   Thumb Code   110  rt_task.o(i.rt_sys_start)
    rt_systick                               0x00005bcd   Thumb Code    50  rt_system.o(i.rt_systick)
    rt_tsk_create                            0x00005c91   Thumb Code   118  rt_task.o(i.rt_tsk_create)
    rt_tsk_delete                            0x00005d19   Thumb Code   352  rt_task.o(i.rt_tsk_delete)
    rt_tsk_pass                              0x00005e95   Thumb Code    38  rt_task.o(i.rt_tsk_pass)
    rt_tsk_prio                              0x00005ec5   Thumb Code   108  rt_task.o(i.rt_tsk_prio)
    rt_tsk_self                              0x00005f41   Thumb Code    12  rt_task.o(i.rt_tsk_self)
    selectFlashArea                          0x00005f51   Thumb Code    18  internalflash.o(i.selectFlashArea)
    send                                     0x00005f69   Thumb Code   886  socket.o(i.send)
    sendDataAndRetyIfBusy                    0x000062ed   Thumb Code    62  ethernet.o(i.sendDataAndRetyIfBusy)
    socket                                   0x00006331   Thumb Code   430  socket.o(i.socket)
    startRTX                                 0x000064f9   Thumb Code    60  mainrtx.o(i.startRTX)
    svcDelay                                 0x00006541   Thumb Code    18  rt_cmsis.o(i.svcDelay)
    svcKernelInitialize                      0x00006555   Thumb Code    80  rt_cmsis.o(i.svcKernelInitialize)
    svcKernelStart                           0x000065c5   Thumb Code    62  rt_cmsis.o(i.svcKernelStart)
    svcMessageCreate                         0x0000660d   Thumb Code    36  rt_cmsis.o(i.svcMessageCreate)
    svcMessageGet                            0x00006631   Thumb Code    58  rt_cmsis.o(i.svcMessageGet)
    svcMutexCreate                           0x0000666b   Thumb Code    28  rt_cmsis.o(i.svcMutexCreate)
    svcThreadCreate                          0x00006689   Thumb Code    96  rt_cmsis.o(i.svcThreadCreate)
    svcThreadGetId                           0x000066f5   Thumb Code    22  rt_cmsis.o(i.svcThreadGetId)
    svcThreadTerminate                       0x00006711   Thumb Code    50  rt_cmsis.o(i.svcThreadTerminate)
    svcThreadYield                           0x00006749   Thumb Code    10  rt_cmsis.o(i.svcThreadYield)
    svcTimerCall                             0x00006753   Thumb Code    24  rt_cmsis.o(i.svcTimerCall)
    svcTimerCreate                           0x0000676d   Thumb Code    52  rt_cmsis.o(i.svcTimerCreate)
    svcTimerStart                            0x000067a5   Thumb Code    96  rt_cmsis.o(i.svcTimerStart)
    sysTimerTick                             0x00006809   Thumb Code    84  rt_cmsis.o(i.sysTimerTick)
    timerETH_CallBack                        0x00006865   Thumb Code   178  ethernet.o(i.timerETH_CallBack)
    wizETH_Init                              0x0000692d   Thumb Code    74  ethernet.o(i.wizETH_Init)
    wizETH_SetServerSocket                   0x000069c5   Thumb Code    64  ethernet.o(i.wizETH_SetServerSocket)
    wiz_recv_data                            0x00006a05   Thumb Code   132  w5500.o(i.wiz_recv_data)
    wiz_send_data                            0x00006a89   Thumb Code   700  w5500.o(i.wiz_send_data)
    wizchip_Init                             0x00006d71   Thumb Code   212  ethernet.o(i.wizchip_Init)
    wizchip_bus_readdata                     0x00006e55   Thumb Code     6  wizchip_conf.o(i.wizchip_bus_readdata)
    wizchip_bus_writedata                    0x00006e5b   Thumb Code     4  wizchip_conf.o(i.wizchip_bus_writedata)
    wizchip_clrinterrupt                     0x00006e5f   Thumb Code    32  wizchip_conf.o(i.wizchip_clrinterrupt)
    wizchip_cris_enter                       0x00006e7f   Thumb Code     2  wizchip_conf.o(i.wizchip_cris_enter)
    wizchip_cris_exit                        0x00006e81   Thumb Code     2  wizchip_conf.o(i.wizchip_cris_exit)
    wizchip_cs_deselect                      0x00006e83   Thumb Code     2  wizchip_conf.o(i.wizchip_cs_deselect)
    wizchip_cs_select                        0x00006e85   Thumb Code     2  wizchip_conf.o(i.wizchip_cs_select)
    wizchip_deselect                         0x00006e89   Thumb Code    16  ethernet.o(i.wizchip_deselect)
    wizchip_getinterrupt                     0x00006e9d   Thumb Code    42  wizchip_conf.o(i.wizchip_getinterrupt)
    wizchip_getinterruptmask                 0x00006ec7   Thumb Code    40  wizchip_conf.o(i.wizchip_getinterruptmask)
    wizchip_init                             0x00006eef   Thumb Code   144  wizchip_conf.o(i.wizchip_init)
    wizchip_noReset                          0x00006f81   Thumb Code    16  ethernet.o(i.wizchip_noReset)
    wizchip_read                             0x00006f95   Thumb Code    18  ethernet.o(i.wizchip_read)
    wizchip_reset                            0x00006fad   Thumb Code    16  ethernet.o(i.wizchip_reset)
    wizchip_select                           0x00006fc1   Thumb Code    16  ethernet.o(i.wizchip_select)
    wizchip_setinterruptmask                 0x00006fd5   Thumb Code    30  wizchip_conf.o(i.wizchip_setinterruptmask)
    wizchip_spi_readbyte                     0x00006ff3   Thumb Code     4  wizchip_conf.o(i.wizchip_spi_readbyte)
    wizchip_spi_writebyte                    0x00006ff7   Thumb Code     2  wizchip_conf.o(i.wizchip_spi_writebyte)
    wizchip_sw_reset                         0x00006ff9   Thumb Code   114  wizchip_conf.o(i.wizchip_sw_reset)
    wizchip_write                            0x0000706d   Thumb Code    14  ethernet.o(i.wizchip_write)
    wizphy_getphyconf                        0x00007081   Thumb Code   120  wizchip_conf.o(i.wizphy_getphyconf)
    wizphy_getphylink                        0x000070f9   Thumb Code    26  wizchip_conf.o(i.wizphy_getphylink)
    wizphy_getphypmode                       0x00007113   Thumb Code    28  wizchip_conf.o(i.wizphy_getphypmode)
    wizphy_reset                             0x0000712f   Thumb Code    52  wizchip_conf.o(i.wizphy_reset)
    wizphy_setphyconf                        0x00007163   Thumb Code    88  wizchip_conf.o(i.wizphy_setphyconf)
    wizphy_setphypmode                       0x000071bb   Thumb Code   100  wizchip_conf.o(i.wizphy_setphypmode)
    OscRateIn                                0x00007220   Data           4  main.o(.constdata)
    ExtRateIn                                0x00007224   Data           4  main.o(.constdata)
    RTCOscRateIn                             0x00007228   Data           4  main.o(.constdata)
    os_mutex_def_delayMutex                  0x0000722c   Data           4  delays.o(.constdata)
    os_timer_def_timerETH                    0x00007430   Data           8  ethernet.o(.constdata)
    os_maxtaskrun                            0x00007438   Data           2  rtx_conf_cm.o(.constdata)
    os_stackinfo                             0x0000743c   Data           4  rtx_conf_cm.o(.constdata)
    os_rrobin                                0x00007440   Data           4  rtx_conf_cm.o(.constdata)
    os_tickfreq                              0x00007444   Data           4  rtx_conf_cm.o(.constdata)
    os_tickus_i                              0x00007448   Data           2  rtx_conf_cm.o(.constdata)
    os_tickus_f                              0x0000744a   Data           2  rtx_conf_cm.o(.constdata)
    os_trv                                   0x0000744c   Data           4  rtx_conf_cm.o(.constdata)
    os_flags                                 0x00007450   Data           1  rtx_conf_cm.o(.constdata)
    CMSIS_RTOS_API_Version                   0x00007454   Data           4  rtx_conf_cm.o(.constdata)
    CMSIS_RTOS_RTX_Version                   0x00007458   Data           4  rtx_conf_cm.o(.constdata)
    os_clockrate                             0x0000745c   Data           4  rtx_conf_cm.o(.constdata)
    os_timernum                              0x00007460   Data           4  rtx_conf_cm.o(.constdata)
    mp_tcb_size                              0x00007464   Data           2  rtx_conf_cm.o(.constdata)
    mp_stk_size                              0x00007468   Data           4  rtx_conf_cm.o(.constdata)
    os_stack_sz                              0x0000746c   Data           4  rtx_conf_cm.o(.constdata)
    os_fifo_size                             0x00007470   Data           1  rtx_conf_cm.o(.constdata)
    os_thread_def_osTimerThread              0x00007474   Data          16  rtx_conf_cm.o(.constdata)
    os_messageQ_def_osTimerMessageQ          0x00007484   Data           8  rtx_conf_cm.o(.constdata)
    mp_tmr_size                              0x0000748c   Data           2  rtx_conf_cm.o(.constdata)
    os_thread_def_main                       0x00007490   Data          16  rtx_conf_cm.o(.constdata)
    __ctype_table                            0x000074a0   Data         129  ctype_o.o(.constdata)
    Region$$Table$$Base                      0x0000758c   Number         0  anon$$obj.o(Region$$Table)
    Region$$Table$$Limit                     0x000075bc   Number         0  anon$$obj.o(Region$$Table)
    delay_mutex_id                           0x10000000   Data           4  delays.o(.data)
    port1DeviceCount                         0x10000018   Data           1  device.o(.data)
    port2DeviceCount                         0x10000019   Data           1  device.o(.data)
    port3DeviceCount                         0x1000001a   Data           1  device.o(.data)
    port4DeviceCount                         0x1000001b   Data           1  device.o(.data)
    Master                                   0x1000001c   Data           6  device.o(.data)
    memsize                                  0x10000024   Data          16  ethernet.o(.data)
    timerETH_globalTimeOut                   0x10000034   Data           2  ethernet.o(.data)
    timerETH_connectPortTimeOut              0x10000036   Data           2  ethernet.o(.data)
    timerETH_SocketBusyTimeOut               0x10000038   Data           2  ethernet.o(.data)
    timerETH_masterConnectTimeOut            0x1000003a   Data           2  ethernet.o(.data)
    Ethernet_TaskID                          0x1000003c   Data           4  ethernet.o(.data)
    timerETH_ID                              0x10000040   Data           4  ethernet.o(.data)
    localIPDefault                           0x10000044   Data           4  ethernet.o(.data)
    gatewayIPDefault                         0x10000048   Data           4  ethernet.o(.data)
    SubnetMaskAdressDefault                  0x1000004c   Data           4  ethernet.o(.data)
    sock_pack_info                           0x1000006c   Data           8  socket.o(.data)
    WIZCHIP                                  0x10000074   Data          40  wizchip_conf.o(.data)
    osThreadId_osTimerThread                 0x100000a4   Data           4  rtx_conf_cm.o(.data)
    osMessageQId_osTimerMessageQ             0x100000a8   Data           4  rtx_conf_cm.o(.data)
    os_tmr                                   0x100000ac   Data           4  rtx_conf_cm.o(.data)
    m_tmr                                    0x100000b0   Data           4  rtx_conf_cm.o(.data)
    SystemCoreClock                          0x100000b4   Data           4  system_lpc17xx.o(.data)
    os_initialized                           0x100000b8   Data           1  rt_cmsis.o(.data)
    os_running                               0x100000b9   Data           1  rt_cmsis.o(.data)
    os_timer_head                            0x100000bc   Data           4  rt_cmsis.o(.data)
    os_tsk                                   0x100000c0   Data           8  rt_task.o(.data)
    os_tick_irqn                             0x100000cc   Data           4  rt_system.o(.data)
    os_time                                  0x100000d0   Data           4  rt_time.o(.data)
    dbg_msg                                  0x100000d4   Data           1  hal_cm.o(.data)
    os_robin                                 0x100000d8   Data           8  rt_robin.o(.data)
    __stdout                                 0x100000e0   Data           4  stdout.o(.data)
    __microlib_freelist                      0x100000e4   Data           4  mvars.o(.data)
    __microlib_freelist_initialised          0x100000e8   Data           4  mvars.o(.data)
    os_mutex_cb_delayMutex                   0x100000f0   Data          16  delays.o(.bss)
    MasterTaskDef                            0x10000100   Data          16  mainrtx.o(.bss)
    EthernetTaskDef                          0x10000110   Data          16  mainrtx.o(.bss)
    os_timer_cb_timerRS485                   0x10000120   Data          24  rs485.o(.bss)
    mp_tcb                                   0x10000650   Data         272  rtx_conf_cm.o(.bss)
    mp_stk                                   0x10000760   Data        1616  rtx_conf_cm.o(.bss)
    os_stack_mem                             0x10000db0   Data        7728  rtx_conf_cm.o(.bss)
    os_fifo                                  0x10002be0   Data         132  rtx_conf_cm.o(.bss)
    os_active_TCB                            0x10002c64   Data          20  rtx_conf_cm.o(.bss)
    os_messageQ_q_osTimerMessageQ            0x10002c78   Data          32  rtx_conf_cm.o(.bss)
    os_idle_TCB                              0x10002c98   Data          52  rt_task.o(.bss)
    os_rdy                                   0x10002ccc   Data          24  rt_list.o(.bss)
    os_dly                                   0x10002ce4   Data          24  rt_list.o(.bss)
    __heap_base                              0x10002d00   Data           0  startup_lpc17xx.o(HEAP)
    __heap_limit                             0x10002d00   Data           0  startup_lpc17xx.o(HEAP)
    __initial_sp                             0x10002f00   Data           0  startup_lpc17xx.o(STACK)
    ETH                                      0x2007e000   Data        3128  ethernet.o(.bss)
    socketBuff                               0x2007ec38   Data        4020  ethernet.o(.bss)
    connectSockets                           0x2007fbec   Data          60  ethernet.o(.bss)
    os_timer_cb_timerETH                     0x2007fc28   Data          24  ethernet.o(.bss)



==============================================================================

Memory Map of the image

  Image Entry point : 0x000000cd

  Load Region LR_IROM1 (Base: 0x00000000, Size: 0x000076ac, Max: 0x00018000, ABSOLUTE)

    Execution Region ER_IROM1 (Exec base: 0x00000000, Load base: 0x00000000, Size: 0x000075bc, Max: 0x00018000, ABSOLUTE)

    Exec Addr    Load Addr    Size         Type   Attr      Idx    E Section Name        Object

    0x00000000   0x00000000   0x000000cc   Data   RO         4789    RESET               startup_lpc17xx.o
    0x000000cc   0x000000cc   0x00000000   Code   RO         6048  * .ARM.Collect$$$$00000000  mc_w.l(entry.o)
    0x000000cc   0x000000cc   0x00000004   Code   RO         6374    .ARM.Collect$$$$00000001  mc_w.l(entry2.o)
    0x000000d0   0x000000d0   0x00000004   Code   RO         6377    .ARM.Collect$$$$00000004  mc_w.l(entry5.o)
    0x000000d4   0x000000d4   0x00000000   Code   RO         6379    .ARM.Collect$$$$00000008  mc_w.l(entry7b.o)
    0x000000d4   0x000000d4   0x00000000   Code   RO         6381    .ARM.Collect$$$$0000000A  mc_w.l(entry8b.o)
    0x000000d4   0x000000d4   0x00000000   Code   RO         6382    .ARM.Collect$$$$0000000D  mc_w.l(entry10a.o)
    0x000000d4   0x000000d4   0x00000000   Code   RO         6384    .ARM.Collect$$$$0000000F  mc_w.l(entry11a.o)
    0x000000d4   0x000000d4   0x00000018   Code   RO         4752    .ARM.Collect$$$$000000FF  rtx_conf_cm.o
    0x000000ec   0x000000ec   0x00000004   Code   RO         6375    .ARM.Collect$$$$00002712  mc_w.l(entry2.o)
    0x000000f0   0x000000f0   0x00000130   Code   RO         6035    .emb_text           RTX_CM3.lib(hal_cm3.o)
    0x00000220   0x00000220   0x00000024   Code   RO         4791    .text               startup_lpc17xx.o
    0x00000244   0x00000244   0x00000062   Code   RO         6051    .text               mc_w.l(uldiv.o)
    0x000002a6   0x000002a6   0x00000024   Code   RO         6053    .text               mc_w.l(memcpya.o)
    0x000002ca   0x000002ca   0x00000024   Code   RO         6055    .text               mc_w.l(memseta.o)
    0x000002ee   0x000002ee   0x0000000e   Code   RO         6061    .text               mc_w.l(strlen.o)
    0x000002fc   0x000002fc   0x00000004   Code   RO         4790    .ARM.__at_0x02FC    startup_lpc17xx.o
    0x00000300   0x00000300   0x00000018   Code   RO         6057    .text               mc_w.l(strcat.o)
    0x00000318   0x00000318   0x00000024   Code   RO         6059    .text               mc_w.l(strstr.o)
    0x0000033c   0x0000033c   0x0000001e   Code   RO         6065    .text               mc_w.l(strncmp.o)
    0x0000035a   0x0000035a   0x00000002   PAD
    0x0000035c   0x0000035c   0x00000038   Code   RO         6358    .text               mc_w.l(__0sscanf.o)
    0x00000394   0x00000394   0x0000014c   Code   RO         6360    .text               mc_w.l(_scanf_int.o)
    0x000004e0   0x000004e0   0x0000001a   Code   RO         6362    .text               mc_w.l(atoi.o)
    0x000004fa   0x000004fa   0x0000002c   Code   RO         6389    .text               mc_w.l(uidiv.o)
    0x00000526   0x00000526   0x0000001e   Code   RO         6391    .text               mc_w.l(llshl.o)
    0x00000544   0x00000544   0x00000020   Code   RO         6393    .text               mc_w.l(llushr.o)
    0x00000564   0x00000564   0x0000001c   Code   RO         6406    .text               mc_w.l(_chval.o)
    0x00000580   0x00000580   0x00000028   Code   RO         6408    .text               mc_w.l(scanf_char.o)
    0x000005a8   0x000005a8   0x00000040   Code   RO         6410    .text               mc_w.l(_sgetc.o)
    0x000005e8   0x000005e8   0x00000070   Code   RO         6412    .text               mc_w.l(strtol.o)
    0x00000658   0x00000658   0x00000024   Code   RO         6423    .text               mc_w.l(init.o)
    0x0000067c   0x0000067c   0x00000000   Code   RO         6425    .text               mc_w.l(semi.o)
    0x0000067c   0x0000067c   0x00000008   Code   RO         6428    .text               mc_w.l(ctype_o.o)
    0x00000684   0x00000684   0x00000012   Code   RO         6450    .text               mc_w.l(isspace_o.o)
    0x00000696   0x00000696   0x00000002   PAD
    0x00000698   0x00000698   0x0000032c   Code   RO         6456    .text               mc_w.l(_scanf.o)
    0x000009c4   0x000009c4   0x0000009e   Code   RO         6458    .text               mc_w.l(_strtoul.o)
    0x00000a62   0x00000a62   0x00000000   Code   RO         6460    .text               mc_w.l(iusesemip.o)
    0x00000a62   0x00000a62   0x00000002   PAD
    0x00000a64   0x00000a64   0x00000004   Code   RO         6045    SVC_TABLE           RTX_CM3.lib(svc_table.o)
    0x00000a68   0x00000a68   0x0000001c   Code   RO          871    i.Chip_Clock_EnablePeriphClock  clock_17xx_40xx.o
    0x00000a84   0x00000a84   0x00000010   Code   RO          873    i.Chip_Clock_GetCPUClockDiv  clock_17xx_40xx.o
    0x00000a94   0x00000a94   0x00000018   Code   RO          874    i.Chip_Clock_GetCPUClockSource  clock_17xx_40xx.o
    0x00000aac   0x00000aac   0x0000001c   Code   RO          875    i.Chip_Clock_GetMainClockRate  clock_17xx_40xx.o
    0x00000ac8   0x00000ac8   0x00000040   Code   RO          876    i.Chip_Clock_GetMainPLLOutClockRate  clock_17xx_40xx.o
    0x00000b08   0x00000b08   0x00000048   Code   RO          877    i.Chip_Clock_GetPCLKDiv  clock_17xx_40xx.o
    0x00000b50   0x00000b50   0x00000016   Code   RO          878    i.Chip_Clock_GetPeripheralClockRate  clock_17xx_40xx.o
    0x00000b66   0x00000b66   0x00000002   PAD
    0x00000b68   0x00000b68   0x00000040   Code   RO          879    i.Chip_Clock_GetSYSCLKRate  clock_17xx_40xx.o
    0x00000ba8   0x00000ba8   0x00000012   Code   RO          880    i.Chip_Clock_GetSystemClockRate  clock_17xx_40xx.o
    0x00000bba   0x00000bba   0x0000002c   Code   RO         3850    i.Chip_GPIO_SetPinState  ethernet.o
    0x00000be6   0x00000be6   0x00000020   Code   RO         1697    i.Chip_IAP_BlankCheckSector  iap.o
    0x00000c06   0x00000c06   0x00000002   PAD
    0x00000c08   0x00000c08   0x00000038   Code   RO         1699    i.Chip_IAP_CopyRamToFlash  iap.o
    0x00000c40   0x00000c40   0x00000034   Code   RO         1701    i.Chip_IAP_EraseSector  iap.o
    0x00000c74   0x00000c74   0x00000020   Code   RO         1702    i.Chip_IAP_PreSectorForReadWrite  iap.o
    0x00000c94   0x00000c94   0x0000007e   Code   RO         1780    i.Chip_IOCON_PinMux  iocon_17xx_40xx.o
    0x00000d12   0x00000d12   0x0000001e   Code   RO         1781    i.Chip_IOCON_PinMuxSet  iocon_17xx_40xx.o
    0x00000d30   0x00000d30   0x00000004   Code   RO         2249    i.Chip_SSP_ClearIntPending  ssp_17xx_40xx.o
    0x00000d34   0x00000d34   0x00000014   Code   RO         2251    i.Chip_SSP_GetClkIndex  ssp_17xx_40xx.o
    0x00000d48   0x00000d48   0x00000010   Code   RO         2253    i.Chip_SSP_GetRawIntStatus  ssp_17xx_40xx.o
    0x00000d58   0x00000d58   0x00000010   Code   RO         2254    i.Chip_SSP_GetStatus  ssp_17xx_40xx.o
    0x00000d68   0x00000d68   0x000000d0   Code   RO         2259    i.Chip_SSP_RWFrames_Blocking  ssp_17xx_40xx.o
    0x00000e38   0x00000e38   0x000000f4   Code   RO         2260    i.Chip_SSP_ReadFrames_Blocking  ssp_17xx_40xx.o
    0x00000f2c   0x00000f2c   0x00000008   Code   RO         2261    i.Chip_SSP_ReceiveFrame  ssp_17xx_40xx.o
    0x00000f34   0x00000f34   0x00000006   Code   RO         2262    i.Chip_SSP_SendFrame  ssp_17xx_40xx.o
    0x00000f3a   0x00000f3a   0x00000046   Code   RO         2263    i.Chip_SSP_SetBitRate  ssp_17xx_40xx.o
    0x00000f80   0x00000f80   0x00000014   Code   RO         2264    i.Chip_SSP_SetClockRate  ssp_17xx_40xx.o
    0x00000f94   0x00000f94   0x000000ea   Code   RO         2267    i.Chip_SSP_WriteFrames_Blocking  ssp_17xx_40xx.o
    0x0000107e   0x0000107e   0x00000002   PAD
    0x00001080   0x00001080   0x00000054   Code   RO         2600    i.Chip_UART_ABIntHandler  uart_17xx_40xx.o
    0x000010d4   0x000010d4   0x00000042   Code   RO         2608    i.Chip_UART_IRQRBHandler  uart_17xx_40xx.o
    0x00001116   0x00001116   0x00000008   Code   RO         2610    i.Chip_UART_IntDisable  uart_17xx_40xx.o
    0x0000111e   0x0000111e   0x0000002a   Code   RO         2611    i.Chip_UART_RXIntHandlerRB  uart_17xx_40xx.o
    0x00001148   0x00001148   0x00000006   Code   RO         2614    i.Chip_UART_ReadLineStatus  uart_17xx_40xx.o
    0x0000114e   0x0000114e   0x00000004   Code   RO         2618    i.Chip_UART_SendByte  uart_17xx_40xx.o
    0x00001152   0x00001152   0x00000008   Code   RO         2620    i.Chip_UART_SetAutoBaudReg  uart_17xx_40xx.o
    0x0000115a   0x0000115a   0x0000002c   Code   RO         2626    i.Chip_UART_TXIntHandlerRB  uart_17xx_40xx.o
    0x00001186   0x00001186   0x00000002   PAD
    0x00001188   0x00001188   0x00000038   Code   RO         3851    i.ETH_CheckConnectPortClosed  ethernet.o
    0x000011c0   0x000011c0   0x000001b0   Code   RO         3852    i.ETH_CheckIncomingDataOnListenPortPc  ethernet.o
    0x00001370   0x00001370   0x00000034   Code   RO         3853    i.ETH_DeleteCommands  ethernet.o
    0x000013a4   0x000013a4   0x00000078   Code   RO         3855    i.ETH_GetDefaultParameters  ethernet.o
    0x0000141c   0x0000141c   0x00000138   Code   RO         3856    i.ETH_GetNewNetworkParameters  ethernet.o
    0x00001554   0x00001554   0x000005de   Code   RO         3857    i.ETH_MasterFunc    ethernet.o
    0x00001b32   0x00001b32   0x00000002   PAD
    0x00001b34   0x00001b34   0x00000190   Code   RO         3858    i.ETH_PackageControl_PC  ethernet.o
    0x00001cc4   0x00001cc4   0x00000040   Code   RO         3859    i.ETH_ProgramController  ethernet.o
    0x00001d04   0x00001d04   0x000001b4   Code   RO         3860    i.ETH_ReadMasterUpdateDisp  ethernet.o
    0x00001eb8   0x00001eb8   0x00000020   Code   RO         3861    i.ETH_RecordCommands  ethernet.o
    0x00001ed8   0x00001ed8   0x00000020   Code   RO         3862    i.ETH_SaveNetworkParameters  ethernet.o
    0x00001ef8   0x00001ef8   0x000000b2   Code   RO         3864    i.ETH_SendDataFromListenPortPC  ethernet.o
    0x00001faa   0x00001faa   0x00000002   PAD
    0x00001fac   0x00001fac   0x00000034   Code   RO         3865    i.ETH_SendDataNOK   ethernet.o
    0x00001fe0   0x00001fe0   0x00000034   Code   RO         3866    i.ETH_SendDataOK    ethernet.o
    0x00002014   0x00002014   0x0000001e   Code   RO         3867    i.ETH_SendETX       ethernet.o
    0x00002032   0x00002032   0x00000002   PAD
    0x00002034   0x00002034   0x00000090   Code   RO         3868    i.ETH_SendNetworkParameters  ethernet.o
    0x000020c4   0x000020c4   0x0000001e   Code   RO         3869    i.ETH_SendSTX       ethernet.o
    0x000020e2   0x000020e2   0x00000002   PAD
    0x000020e4   0x000020e4   0x000001f8   Code   RO         3870    i.ETH_SendStatus    ethernet.o
    0x000022dc   0x000022dc   0x00000030   Code   RO         3872    i.ETH_SetNetworkParameters  ethernet.o
    0x0000230c   0x0000230c   0x00000288   Code   RO         3874    i.ETH_addFreeLot    ethernet.o
    0x00002594   0x00002594   0x00000064   Code   RO         3875    i.ETH_checkEmptySocket  ethernet.o
    0x000025f8   0x000025f8   0x0000001e   Code   RO         3876    i.ETH_checkSocketClosed  ethernet.o
    0x00002616   0x00002616   0x00000002   PAD
    0x00002618   0x00002618   0x0000008c   Code   RO         3877    i.ETH_closeAllSocket  ethernet.o
    0x000026a4   0x000026a4   0x00000028   Code   RO         3878    i.ETH_commInProgress  ethernet.o
    0x000026cc   0x000026cc   0x000000c0   Code   RO         3879    i.ETH_connectToMaster  ethernet.o
    0x0000278c   0x0000278c   0x00000080   Code   RO         3880    i.ETH_getListenPackageFromFifo  ethernet.o
    0x0000280c   0x0000280c   0x000000e4   Code   RO         3881    i.ETH_getNextMasterAddress  ethernet.o
    0x000028f0   0x000028f0   0x0000006e   Code   RO         3882    i.ETH_getPackageFromFifo  ethernet.o
    0x0000295e   0x0000295e   0x00000002   PAD
    0x00002960   0x00002960   0x0000024c   Code   RO         3883    i.ETH_readMasters   ethernet.o
    0x00002bac   0x00002bac   0x00000334   Code   RO         3884    i.ETH_setDisplayReg  ethernet.o
    0x00002ee0   0x00002ee0   0x000000f4   Code   RO         3885    i.ETH_socketComm    ethernet.o
    0x00002fd4   0x00002fd4   0x000001ac   Code   RO         3886    i.ETH_socketCommReceive  ethernet.o
    0x00003180   0x00003180   0x0000011c   Code   RO         3887    i.Ethernet_Task     ethernet.o
    0x0000329c   0x0000329c   0x00000030   Code   RO         2921    i.GetData           internalflash.o
    0x000032cc   0x000032cc   0x0000000a   Code   RO         1932    i.RingBuffer_GetCount  ring_buffer.o
    0x000032d6   0x000032d6   0x00000036   Code   RO         1934    i.RingBuffer_Insert  ring_buffer.o
    0x0000330c   0x0000330c   0x00000012   Code   RO         1936    i.RingBuffer_IsEmpty  ring_buffer.o
    0x0000331e   0x0000331e   0x00000018   Code   RO         1937    i.RingBuffer_IsFull  ring_buffer.o
    0x00003336   0x00003336   0x00000036   Code   RO         1938    i.RingBuffer_Pop    ring_buffer.o
    0x0000336c   0x0000336c   0x00000036   Code   RO         2268    i.SSP_Read1BFifo    ssp_17xx_40xx.o
    0x000033a2   0x000033a2   0x00000036   Code   RO         2269    i.SSP_Read2BFifo    ssp_17xx_40xx.o
    0x000033d8   0x000033d8   0x00000028   Code   RO         2270    i.SSP_Write1BFifo   ssp_17xx_40xx.o
    0x00003400   0x00003400   0x0000002a   Code   RO         2271    i.SSP_Write2BFifo   ssp_17xx_40xx.o
    0x0000342a   0x0000342a   0x0000001a   Code   RO         4194    i.SaveAllParameterToFlash  settings.o
    0x00003444   0x00003444   0x0000001c   Code   RO         4195    i.SaveDataReadyDataToRAM  settings.o
    0x00003460   0x00003460   0x00000060   Code   RO         4196    i.SaveEthernetDataToRAM  settings.o
    0x000034c0   0x000034c0   0x00000030   Code   RO         2924    i.SaveToRAMbuff     internalflash.o
    0x000034f0   0x000034f0   0x000001a8   Code   RO         4800    i.SystemCoreClockUpdate  system_lpc17xx.o
    0x00003698   0x00003698   0x000000d4   Code   RO         4801    i.SystemInit        system_lpc17xx.o
    0x0000376c   0x0000376c   0x00000018   Code   RO         3096    i.UART0_IRQHandler  rs485.o
    0x00003784   0x00003784   0x00000018   Code   RO         3097    i.UART1_IRQHandler  rs485.o
    0x0000379c   0x0000379c   0x00000018   Code   RO         3098    i.UART2_IRQHandler  rs485.o
    0x000037b4   0x000037b4   0x00000018   Code   RO         3099    i.UART3_IRQHandler  rs485.o
    0x000037cc   0x000037cc   0x0000005c   Code   RO         4284    i.WIZCHIP_READ      w5500.o
    0x00003828   0x00003828   0x00000070   Code   RO         4285    i.WIZCHIP_READ_BUF  w5500.o
    0x00003898   0x00003898   0x00000060   Code   RO         4286    i.WIZCHIP_WRITE     w5500.o
    0x000038f8   0x000038f8   0x00000074   Code   RO         4287    i.WIZCHIP_WRITE_BUF  w5500.o
    0x0000396c   0x0000396c   0x00000020   Code   RO         6114    i.__0printf$1       mc_w.l(printf1.o)
    0x0000398c   0x0000398c   0x00000028   Code   RO         6116    i.__0sprintf$1      mc_w.l(printf1.o)
    0x000039b4   0x000039b4   0x00000008   Code   RO         6399    i.__aeabi_errno_addr  mc_w.l(errno.o)
    0x000039bc   0x000039bc   0x0000000e   Code   RO         6466    i.__scatterload_copy  mc_w.l(handlers.o)
    0x000039ca   0x000039ca   0x00000002   Code   RO         6467    i.__scatterload_null  mc_w.l(handlers.o)
    0x000039cc   0x000039cc   0x0000000e   Code   RO         6468    i.__scatterload_zeroinit  mc_w.l(handlers.o)
    0x000039da   0x000039da   0x00000046   Code   RO         5913    i._init_box         RTX_CM3.lib(rt_membox.o)
    0x00003a20   0x00003a20   0x00000154   Code   RO         6121    i._printf_core      mc_w.l(printf1.o)
    0x00003b74   0x00003b74   0x0000000a   Code   RO         6123    i._sputc            mc_w.l(printf1.o)
    0x00003b7e   0x00003b7e   0x0000003e   Code   RO         4197    i.addControllerCommandsToRAM  settings.o
    0x00003bbc   0x00003bbc   0x00000034   Code   RO         3243    i.addElement_fifo8  fifo8.o
    0x00003bf0   0x00003bf0   0x0000000e   Code   RO            4    i.c_entry           main.o
    0x00003bfe   0x00003bfe   0x00000002   PAD
    0x00003c00   0x00003c00   0x0000006c   Code   RO         2925    i.checkFlashCRC     internalflash.o
    0x00003c6c   0x00003c6c   0x00000002   Code   RO         3661    i.clearDeviceRegs   device.o
    0x00003c6e   0x00003c6e   0x00000022   Code   RO         3244    i.clear_fifo8       fifo8.o
    0x00003c90   0x00003c90   0x000000cc   Code   RO         4407    i.close             socket.o
    0x00003d5c   0x00003d5c   0x0000004c   Code   RO         2926    i.compareFlash      internalflash.o
    0x00003da8   0x00003da8   0x00000188   Code   RO         4408    i.connect           socket.o
    0x00003f30   0x00003f30   0x00000038   Code   RO         2894    i.crc16             crc.o
    0x00003f68   0x00003f68   0x00000118   Code   RO         4516    i.ctlwizchip        wizchip_conf.o
    0x00004080   0x00004080   0x00000030   Code   RO         5966    i.dbg_init          RTX_CM3.lib(hal_cm.o)
    0x000040b0   0x000040b0   0x00000020   Code   RO         5967    i.dbg_task_notify   RTX_CM3.lib(hal_cm.o)
    0x000040d0   0x000040d0   0x00000010   Code   RO         5968    i.dbg_task_switch   RTX_CM3.lib(hal_cm.o)
    0x000040e0   0x000040e0   0x000000e8   Code   RO         4410    i.disconnect        socket.o
    0x000041c8   0x000041c8   0x0000001c   Code   RO         2927    i.eraseCommandsRamArea  internalflash.o
    0x000041e4   0x000041e4   0x00000018   Code   RO         2929    i.eraseFlashRamArea  internalflash.o
    0x000041fc   0x000041fc   0x00000076   Code   RO         3067    i.extract_between   master.o
    0x00004272   0x00004272   0x00000002   PAD
    0x00004274   0x00004274   0x000000ac   Code   RO         4198    i.flashDiagnostic   settings.o
    0x00004320   0x00004320   0x000000a4   Code   RO         2930    i.flashErase        internalflash.o
    0x000043c4   0x000043c4   0x00000100   Code   RO         2931    i.flashInit         internalflash.o
    0x000044c4   0x000044c4   0x00000188   Code   RO         2932    i.flashWrite        internalflash.o
    0x0000464c   0x0000464c   0x000000a8   Code   RO         2933    i.flashWriteBackup  internalflash.o
    0x000046f4   0x000046f4   0x00000012   Code   RO         6386    i.fputc             mc_w.l(fputc.o)
    0x00004706   0x00004706   0x00000002   PAD
    0x00004708   0x00004708   0x00000050   Code   RO         6330    i.free              mc_w.l(malloc.o)
    0x00004758   0x00004758   0x00000010   Code   RO         4199    i.getCmdBuffEndAdress  settings.o
    0x00004768   0x00004768   0x0000000c   Code   RO         4200    i.getCmdBuffStartAdress  settings.o
    0x00004774   0x00004774   0x00000066   Code   RO         3665    i.getCommand        device.o
    0x000047da   0x000047da   0x00000010   Code   RO         4201    i.getDataFromFlash  settings.o
    0x000047ea   0x000047ea   0x00000002   PAD
    0x000047ec   0x000047ec   0x00000020   Code   RO         2934    i.getDataFromFlashToRAM  internalflash.o
    0x0000480c   0x0000480c   0x00000030   Code   RO         3245    i.getElement_fifo8  fifo8.o
    0x0000483c   0x0000483c   0x00000006   Code   RO         3246    i.getElementsNumber_fifo8  fifo8.o
    0x00004842   0x00004842   0x00000002   PAD
    0x00004844   0x00004844   0x00000040   Code   RO         2935    i.getEmptyAdressForCommandFromRAMbuff  internalflash.o
    0x00004884   0x00004884   0x0000004c   Code   RO         4202    i.getEthernetDataFromFlash  settings.o
    0x000048d0   0x000048d0   0x00000022   Code   RO         4203    i.getFlashData      settings.o
    0x000048f2   0x000048f2   0x00000002   PAD
    0x000048f4   0x000048f4   0x000000cc   Code   RO         2936    i.getFlashPointers  internalflash.o
    0x000049c0   0x000049c0   0x00000010   Code   RO         4204    i.getLastRecordFromFlashToRAM  settings.o
    0x000049d0   0x000049d0   0x000000a8   Code   RO         2937    i.getLastRecordStartAdress  internalflash.o
    0x00004a78   0x00004a78   0x0000006c   Code   RO         4288    i.getSn_RX_RSR      w5500.o
    0x00004ae4   0x00004ae4   0x0000006c   Code   RO         4289    i.getSn_TX_FSR      w5500.o
    0x00004b50   0x00004b50   0x00000008   Code   RO         2938    i.getparametersRAMStartAdress  internalflash.o
    0x00004b58   0x00004b58   0x00000014   Code   RO         1707    i.iap_entry         iap.o
    0x00004b6c   0x00004b6c   0x00000018   Code   RO          245    i.initDelays        delays.o
    0x00004b84   0x00004b84   0x0000000c   Code   RO         3248    i.init_fifo8        fifo8.o
    0x00004b90   0x00004b90   0x0000000e   Code   RO         3249    i.isEmpty_fifo8     fifo8.o
    0x00004b9e   0x00004b9e   0x00000018   Code   RO         3250    i.isFull_fifo8      fifo8.o
    0x00004bb6   0x00004bb6   0x0000002a   Code   RO         4843    i.isrMessageGet     RTX_CM3.lib(rt_cmsis.o)
    0x00004be0   0x00004be0   0x0000002c   Code   RO         4844    i.isrMessagePut     RTX_CM3.lib(rt_cmsis.o)
    0x00004c0c   0x00004c0c   0x00000056   Code   RO         5759    i.isr_mbx_receive   RTX_CM3.lib(rt_mailbox.o)
    0x00004c62   0x00004c62   0x0000000e   Code   RO         5760    i.isr_mbx_send      RTX_CM3.lib(rt_mailbox.o)
    0x00004c70   0x00004c70   0x000000c4   Code   RO         4412    i.listen            socket.o
    0x00004d34   0x00004d34   0x00000018   Code   RO         4205    i.loadDefaultValues  settings.o
    0x00004d4c   0x00004d4c   0x00000016   Code   RO            5    i.main              main.o
    0x00004d62   0x00004d62   0x00000002   PAD
    0x00004d64   0x00004d64   0x0000006c   Code   RO         6331    i.malloc            mc_w.l(malloc.o)
    0x00004dd0   0x00004dd0   0x00000018   Code   RO         4847    i.osDelay           RTX_CM3.lib(rt_cmsis.o)
    0x00004de8   0x00004de8   0x00000024   Code   RO         4848    i.osKernelInitialize  RTX_CM3.lib(rt_cmsis.o)
    0x00004e0c   0x00004e0c   0x0000006c   Code   RO         4850    i.osKernelStart     RTX_CM3.lib(rt_cmsis.o)
    0x00004e78   0x00004e78   0x00000018   Code   RO         4859    i.osMessageGet      RTX_CM3.lib(rt_cmsis.o)
    0x00004e90   0x00004e90   0x0000002c   Code   RO         4861    i.osMutexCreate     RTX_CM3.lib(rt_cmsis.o)
    0x00004ebc   0x00004ebc   0x0000002c   Code   RO         4876    i.osThreadCreate    RTX_CM3.lib(rt_cmsis.o)
    0x00004ee8   0x00004ee8   0x00000018   Code   RO         4877    i.osThreadExit      RTX_CM3.lib(rt_cmsis.o)
    0x00004f00   0x00004f00   0x00000018   Code   RO         4882    i.osThreadYield     RTX_CM3.lib(rt_cmsis.o)
    0x00004f18   0x00004f18   0x0000000c   Code   RO         4883    i.osTimerCall       RTX_CM3.lib(rt_cmsis.o)
    0x00004f24   0x00004f24   0x0000002c   Code   RO         4884    i.osTimerCreate     RTX_CM3.lib(rt_cmsis.o)
    0x00004f50   0x00004f50   0x00000018   Code   RO         4886    i.osTimerStart      RTX_CM3.lib(rt_cmsis.o)
    0x00004f68   0x00004f68   0x0000002c   Code   RO         4888    i.osTimerThread     RTX_CM3.lib(rt_cmsis.o)
    0x00004f94   0x00004f94   0x00000022   Code   RO         4753    i.os_error          rtx_conf_cm.o
    0x00004fb6   0x00004fb6   0x00000004   Code   RO         4754    i.os_idle_demon     rtx_conf_cm.o
    0x00004fba   0x00004fba   0x00000002   PAD
    0x00004fbc   0x00004fbc   0x00000028   Code   RO         5547    i.os_tick_init      RTX_CM3.lib(rt_system.o)
    0x00004fe4   0x00004fe4   0x00000002   Code   RO         5548    i.os_tick_irqack    RTX_CM3.lib(rt_system.o)
    0x00004fe6   0x00004fe6   0x00000002   PAD
    0x00004fe8   0x00004fe8   0x00000154   Code   RO         4413    i.recv              socket.o
    0x0000513c   0x0000513c   0x00000028   Code   RO         4519    i.reg_wizchip_cs_cbfunc  wizchip_conf.o
    0x00005164   0x00005164   0x00000034   Code   RO         4520    i.reg_wizchip_spi_cbfunc  wizchip_conf.o
    0x00005198   0x00005198   0x000000a4   Code   RO         2939    i.restoreFlashBackup  internalflash.o
    0x0000523c   0x0000523c   0x0000001a   Code   RO         5914    i.rt_alloc_box      RTX_CM3.lib(rt_membox.o)
    0x00005256   0x00005256   0x0000003e   Code   RO         5942    i.rt_alloc_mem      RTX_CM3.lib(rt_memory.o)
    0x00005294   0x00005294   0x00000038   Code   RO         5462    i.rt_block          RTX_CM3.lib(rt_task.o)
    0x000052cc   0x000052cc   0x00000048   Code   RO         6014    i.rt_chk_robin      RTX_CM3.lib(rt_robin.o)
    0x00005314   0x00005314   0x00000070   Code   RO         5683    i.rt_dec_dly        RTX_CM3.lib(rt_list.o)
    0x00005384   0x00005384   0x00000044   Code   RO         5463    i.rt_dispatch       RTX_CM3.lib(rt_task.o)
    0x000053c8   0x000053c8   0x00000006   Code   RO         5849    i.rt_dly_wait       RTX_CM3.lib(rt_time.o)
    0x000053ce   0x000053ce   0x00000002   PAD
    0x000053d0   0x000053d0   0x00000050   Code   RO         5640    i.rt_evt_psh        RTX_CM3.lib(rt_event.o)
    0x00005420   0x00005420   0x0000002c   Code   RO         5915    i.rt_free_box       RTX_CM3.lib(rt_membox.o)
    0x0000544c   0x0000544c   0x00000028   Code   RO         5943    i.rt_free_mem       RTX_CM3.lib(rt_memory.o)
    0x00005474   0x00005474   0x00000028   Code   RO         5684    i.rt_get_first      RTX_CM3.lib(rt_list.o)
    0x0000549c   0x0000549c   0x00000024   Code   RO         5685    i.rt_get_same_rdy_prio  RTX_CM3.lib(rt_list.o)
    0x000054c0   0x000054c0   0x00000008   Code   RO         4893    i.rt_id2obj         RTX_CM3.lib(rt_cmsis.o)
    0x000054c8   0x000054c8   0x00000048   Code   RO         5464    i.rt_init_context   RTX_CM3.lib(rt_task.o)
    0x00005510   0x00005510   0x0000001a   Code   RO         5944    i.rt_init_mem       RTX_CM3.lib(rt_memory.o)
    0x0000552a   0x0000552a   0x00000002   PAD
    0x0000552c   0x0000552c   0x00000018   Code   RO         6015    i.rt_init_robin     RTX_CM3.lib(rt_robin.o)
    0x00005544   0x00005544   0x00000080   Code   RO         5969    i.rt_init_stack     RTX_CM3.lib(hal_cm.o)
    0x000055c4   0x000055c4   0x00000008   Code   RO         5761    i.rt_mbx_check      RTX_CM3.lib(rt_mailbox.o)
    0x000055cc   0x000055cc   0x0000001a   Code   RO         5762    i.rt_mbx_init       RTX_CM3.lib(rt_mailbox.o)
    0x000055e6   0x000055e6   0x00000002   PAD
    0x000055e8   0x000055e8   0x000000f0   Code   RO         5763    i.rt_mbx_psh        RTX_CM3.lib(rt_mailbox.o)
    0x000056d8   0x000056d8   0x000000b4   Code   RO         5765    i.rt_mbx_wait       RTX_CM3.lib(rt_mailbox.o)
    0x0000578c   0x0000578c   0x00000044   Code   RO         4894    i.rt_ms2tick        RTX_CM3.lib(rt_cmsis.o)
    0x000057d0   0x000057d0   0x00000010   Code   RO         5883    i.rt_mut_init       RTX_CM3.lib(rt_mutex.o)
    0x000057e0   0x000057e0   0x0000007c   Code   RO         5551    i.rt_pop_req        RTX_CM3.lib(rt_system.o)
    0x0000585c   0x0000585c   0x00000020   Code   RO         5552    i.rt_psh_req        RTX_CM3.lib(rt_system.o)
    0x0000587c   0x0000587c   0x0000005c   Code   RO         5686    i.rt_psq_enq        RTX_CM3.lib(rt_list.o)
    0x000058d8   0x000058d8   0x00000048   Code   RO         5687    i.rt_put_dly        RTX_CM3.lib(rt_list.o)
    0x00005920   0x00005920   0x00000036   Code   RO         5688    i.rt_put_prio       RTX_CM3.lib(rt_list.o)
    0x00005956   0x00005956   0x00000002   PAD
    0x00005958   0x00005958   0x00000014   Code   RO         5689    i.rt_put_rdy_first  RTX_CM3.lib(rt_list.o)
    0x0000596c   0x0000596c   0x00000034   Code   RO         5690    i.rt_resort_prio    RTX_CM3.lib(rt_list.o)
    0x000059a0   0x000059a0   0x00000006   Code   RO         5970    i.rt_ret_val        RTX_CM3.lib(hal_cm.o)
    0x000059a6   0x000059a6   0x00000008   Code   RO         5971    i.rt_ret_val2       RTX_CM3.lib(hal_cm.o)
    0x000059ae   0x000059ae   0x00000028   Code   RO         5691    i.rt_rmv_dly        RTX_CM3.lib(rt_list.o)
    0x000059d6   0x000059d6   0x00000002   PAD
    0x000059d8   0x000059d8   0x00000030   Code   RO         5692    i.rt_rmv_list       RTX_CM3.lib(rt_list.o)
    0x00005a08   0x00005a08   0x00000034   Code   RO         5810    i.rt_sem_psh        RTX_CM3.lib(rt_semaphore.o)
    0x00005a3c   0x00005a3c   0x00000024   Code   RO         5554    i.rt_stk_check      RTX_CM3.lib(rt_system.o)
    0x00005a60   0x00005a60   0x00000028   Code   RO         5465    i.rt_switch_req     RTX_CM3.lib(rt_task.o)
    0x00005a88   0x00005a88   0x000000cc   Code   RO         5466    i.rt_sys_init       RTX_CM3.lib(rt_task.o)
    0x00005b54   0x00005b54   0x00000078   Code   RO         5467    i.rt_sys_start      RTX_CM3.lib(rt_task.o)
    0x00005bcc   0x00005bcc   0x00000040   Code   RO         5556    i.rt_systick        RTX_CM3.lib(rt_system.o)
    0x00005c0c   0x00005c0c   0x00000012   Code   RO         4895    i.rt_tid2ptcb       RTX_CM3.lib(rt_cmsis.o)
    0x00005c1e   0x00005c1e   0x00000002   PAD
    0x00005c20   0x00005c20   0x00000034   Code   RO         4896    i.rt_timer_insert   RTX_CM3.lib(rt_cmsis.o)
    0x00005c54   0x00005c54   0x0000003c   Code   RO         4897    i.rt_timer_remove   RTX_CM3.lib(rt_cmsis.o)
    0x00005c90   0x00005c90   0x00000088   Code   RO         5468    i.rt_tsk_create     RTX_CM3.lib(rt_task.o)
    0x00005d18   0x00005d18   0x0000017c   Code   RO         5469    i.rt_tsk_delete     RTX_CM3.lib(rt_task.o)
    0x00005e94   0x00005e94   0x00000030   Code   RO         5470    i.rt_tsk_pass       RTX_CM3.lib(rt_task.o)
    0x00005ec4   0x00005ec4   0x0000007c   Code   RO         5471    i.rt_tsk_prio       RTX_CM3.lib(rt_task.o)
    0x00005f40   0x00005f40   0x00000010   Code   RO         5472    i.rt_tsk_self       RTX_CM3.lib(rt_task.o)
    0x00005f50   0x00005f50   0x00000018   Code   RO         2940    i.selectFlashArea   internalflash.o
    0x00005f68   0x00005f68   0x00000384   Code   RO         4415    i.send              socket.o
    0x000062ec   0x000062ec   0x00000044   Code   RO         3889    i.sendDataAndRetyIfBusy  ethernet.o
    0x00006330   0x00006330   0x000001c8   Code   RO         4418    i.socket            socket.o
    0x000064f8   0x000064f8   0x00000048   Code   RO          278    i.startRTX          mainrtx.o
    0x00006540   0x00006540   0x00000012   Code   RO         4898    i.svcDelay          RTX_CM3.lib(rt_cmsis.o)
    0x00006552   0x00006552   0x00000002   PAD
    0x00006554   0x00006554   0x00000070   Code   RO         4899    i.svcKernelInitialize  RTX_CM3.lib(rt_cmsis.o)
    0x000065c4   0x000065c4   0x00000048   Code   RO         4901    i.svcKernelStart    RTX_CM3.lib(rt_cmsis.o)
    0x0000660c   0x0000660c   0x00000024   Code   RO         4904    i.svcMessageCreate  RTX_CM3.lib(rt_cmsis.o)
    0x00006630   0x00006630   0x0000003a   Code   RO         4905    i.svcMessageGet     RTX_CM3.lib(rt_cmsis.o)
    0x0000666a   0x0000666a   0x0000001c   Code   RO         4907    i.svcMutexCreate    RTX_CM3.lib(rt_cmsis.o)
    0x00006686   0x00006686   0x00000002   PAD
    0x00006688   0x00006688   0x0000006c   Code   RO         4919    i.svcThreadCreate   RTX_CM3.lib(rt_cmsis.o)
    0x000066f4   0x000066f4   0x0000001c   Code   RO         4920    i.svcThreadGetId    RTX_CM3.lib(rt_cmsis.o)
    0x00006710   0x00006710   0x00000038   Code   RO         4923    i.svcThreadTerminate  RTX_CM3.lib(rt_cmsis.o)
    0x00006748   0x00006748   0x0000000a   Code   RO         4924    i.svcThreadYield    RTX_CM3.lib(rt_cmsis.o)
    0x00006752   0x00006752   0x00000018   Code   RO         4925    i.svcTimerCall      RTX_CM3.lib(rt_cmsis.o)
    0x0000676a   0x0000676a   0x00000002   PAD
    0x0000676c   0x0000676c   0x00000038   Code   RO         4926    i.svcTimerCreate    RTX_CM3.lib(rt_cmsis.o)
    0x000067a4   0x000067a4   0x00000064   Code   RO         4928    i.svcTimerStart     RTX_CM3.lib(rt_cmsis.o)
    0x00006808   0x00006808   0x0000005c   Code   RO         4934    i.sysTimerTick      RTX_CM3.lib(rt_cmsis.o)
    0x00006864   0x00006864   0x000000c8   Code   RO         3890    i.timerETH_CallBack  ethernet.o
    0x0000692c   0x0000692c   0x00000098   Code   RO         3891    i.wizETH_Init       ethernet.o
    0x000069c4   0x000069c4   0x00000040   Code   RO         3893    i.wizETH_SetServerSocket  ethernet.o
    0x00006a04   0x00006a04   0x00000084   Code   RO         4290    i.wiz_recv_data     w5500.o
    0x00006a88   0x00006a88   0x000002e8   Code   RO         4292    i.wiz_send_data     w5500.o
    0x00006d70   0x00006d70   0x000000e4   Code   RO         3894    i.wizchip_Init      ethernet.o
    0x00006e54   0x00006e54   0x00000006   Code   RO         4522    i.wizchip_bus_readdata  wizchip_conf.o
    0x00006e5a   0x00006e5a   0x00000004   Code   RO         4523    i.wizchip_bus_writedata  wizchip_conf.o
    0x00006e5e   0x00006e5e   0x00000020   Code   RO         4524    i.wizchip_clrinterrupt  wizchip_conf.o
    0x00006e7e   0x00006e7e   0x00000002   Code   RO         4525    i.wizchip_cris_enter  wizchip_conf.o
    0x00006e80   0x00006e80   0x00000002   Code   RO         4526    i.wizchip_cris_exit  wizchip_conf.o
    0x00006e82   0x00006e82   0x00000002   Code   RO         4527    i.wizchip_cs_deselect  wizchip_conf.o
    0x00006e84   0x00006e84   0x00000002   Code   RO         4528    i.wizchip_cs_select  wizchip_conf.o
    0x00006e86   0x00006e86   0x00000002   PAD
    0x00006e88   0x00006e88   0x00000014   Code   RO         3895    i.wizchip_deselect  ethernet.o
    0x00006e9c   0x00006e9c   0x0000002a   Code   RO         4529    i.wizchip_getinterrupt  wizchip_conf.o
    0x00006ec6   0x00006ec6   0x00000028   Code   RO         4530    i.wizchip_getinterruptmask  wizchip_conf.o
    0x00006eee   0x00006eee   0x00000090   Code   RO         4534    i.wizchip_init      wizchip_conf.o
    0x00006f7e   0x00006f7e   0x00000002   PAD
    0x00006f80   0x00006f80   0x00000014   Code   RO         3896    i.wizchip_noReset   ethernet.o
    0x00006f94   0x00006f94   0x00000018   Code   RO         3897    i.wizchip_read      ethernet.o
    0x00006fac   0x00006fac   0x00000014   Code   RO         3898    i.wizchip_reset     ethernet.o
    0x00006fc0   0x00006fc0   0x00000014   Code   RO         3899    i.wizchip_select    ethernet.o
    0x00006fd4   0x00006fd4   0x0000001e   Code   RO         4535    i.wizchip_setinterruptmask  wizchip_conf.o
    0x00006ff2   0x00006ff2   0x00000004   Code   RO         4540    i.wizchip_spi_readbyte  wizchip_conf.o
    0x00006ff6   0x00006ff6   0x00000002   Code   RO         4542    i.wizchip_spi_writebyte  wizchip_conf.o
    0x00006ff8   0x00006ff8   0x00000072   Code   RO         4543    i.wizchip_sw_reset  wizchip_conf.o
    0x0000706a   0x0000706a   0x00000002   PAD
    0x0000706c   0x0000706c   0x00000014   Code   RO         3900    i.wizchip_write     ethernet.o
    0x00007080   0x00007080   0x00000078   Code   RO         4544    i.wizphy_getphyconf  wizchip_conf.o
    0x000070f8   0x000070f8   0x0000001a   Code   RO         4545    i.wizphy_getphylink  wizchip_conf.o
    0x00007112   0x00007112   0x0000001c   Code   RO         4546    i.wizphy_getphypmode  wizchip_conf.o
    0x0000712e   0x0000712e   0x00000034   Code   RO         4548    i.wizphy_reset      wizchip_conf.o
    0x00007162   0x00007162   0x00000058   Code   RO         4549    i.wizphy_setphyconf  wizchip_conf.o
    0x000071ba   0x000071ba   0x00000064   Code   RO         4550    i.wizphy_setphypmode  wizchip_conf.o
    0x0000721e   0x0000721e   0x00000002   PAD
    0x00007220   0x00007220   0x0000000c   Data   RO            6    .constdata          main.o
    0x0000722c   0x0000722c   0x00000004   Data   RO          247    .constdata          delays.o
    0x00007230   0x00007230   0x00000200   Data   RO         2895    .constdata          crc.o
    0x00007430   0x00007430   0x00000008   Data   RO         3902    .constdata          ethernet.o
    0x00007438   0x00007438   0x00000068   Data   RO         4756    .constdata          rtx_conf_cm.o
    0x000074a0   0x000074a0   0x00000081   Data   RO         6429    .constdata          mc_w.l(ctype_o.o)
    0x00007521   0x00007521   0x00000003   PAD
    0x00007524   0x00007524   0x00000004   Data   RO         6430    .constdata          mc_w.l(ctype_o.o)
    0x00007528   0x00007528   0x00000062   Data   RO         3903    .conststring        ethernet.o
    0x0000758a   0x0000758a   0x00000002   PAD
    0x0000758c   0x0000758c   0x00000030   Data   RO         6464    Region$$Table       anon$$obj.o


    Execution Region RW_IRAM1 (Exec base: 0x10000000, Load base: 0x000075bc, Size: 0x00002f00, Max: 0x00008000, ABSOLUTE)

    Exec Addr    Load Addr    Size         Type   Attr      Idx    E Section Name        Object

    0x10000000   0x000075bc   0x00000004   Data   RW          248    .data               delays.o
    0x10000004   0x000075c0   0x00000001   Data   RW         2627    .data               uart_17xx_40xx.o
    0x10000005   0x000075c1   0x00000003   PAD
    0x10000008   0x000075c4   0x00000010   Data   RW         2942    .data               internalflash.o
    0x10000018   0x000075d4   0x0000000a   Data   RW         3676    .data               device.o
    0x10000022   0x000075de   0x00000002   PAD
    0x10000024   0x000075e0   0x0000002c   Data   RW         3904    .data               ethernet.o
    0x10000050   0x0000760c   0x00000016   Data   RW         4294    .data               w5500.o
    0x10000066   0x00007622   0x0000000e   Data   RW         4420    .data               socket.o
    0x10000074   0x00007630   0x0000002d   Data   RW         4551    .data               wizchip_conf.o
    0x100000a1   0x0000765d   0x00000003   PAD
    0x100000a4   0x00007660   0x00000010   Data   RW         4757    .data               rtx_conf_cm.o
    0x100000b4   0x00007670   0x00000004   Data   RW         4802    .data               system_lpc17xx.o
    0x100000b8   0x00007674   0x00000008   Data   RW         4937    .data               RTX_CM3.lib(rt_cmsis.o)
    0x100000c0   0x0000767c   0x00000008   Data   RW         5474    .data               RTX_CM3.lib(rt_task.o)
    0x100000c8   0x00007684   0x00000008   Data   RW         5559    .data               RTX_CM3.lib(rt_system.o)
    0x100000d0   0x0000768c   0x00000004   Data   RW         5853    .data               RTX_CM3.lib(rt_time.o)
    0x100000d4   0x00007690   0x00000001   Data   RW         5972    .data               RTX_CM3.lib(hal_cm.o)
    0x100000d5   0x00007691   0x00000003   PAD
    0x100000d8   0x00007694   0x00000008   Data   RW         6016    .data               RTX_CM3.lib(rt_robin.o)
    0x100000e0   0x0000769c   0x00000004   Data   RW         6388    .data               mc_w.l(stdout.o)
    0x100000e4   0x000076a0   0x00000004   Data   RW         6397    .data               mc_w.l(mvars.o)
    0x100000e8   0x000076a4   0x00000004   Data   RW         6398    .data               mc_w.l(mvars.o)
    0x100000ec   0x000076a8   0x00000004   Data   RW         6402    .data               mc_w.l(errno.o)
    0x100000f0        -       0x00000010   Zero   RW          246    .bss                delays.o
    0x10000100        -       0x00000020   Zero   RW          279    .bss                mainrtx.o
    0x10000120        -       0x00000508   Zero   RW         3111    .bss                rs485.o
    0x10000628        -       0x00000014   Zero   RW         4293    .bss                w5500.o
    0x1000063c        -       0x00000010   Zero   RW         4419    .bss                socket.o
    0x1000064c   0x000076ac   0x00000004   PAD
    0x10000650        -       0x00002648   Zero   RW         4755    .bss                rtx_conf_cm.o
    0x10002c98        -       0x00000034   Zero   RW         5473    .bss                RTX_CM3.lib(rt_task.o)
    0x10002ccc        -       0x00000030   Zero   RW         5693    .bss                RTX_CM3.lib(rt_list.o)
    0x10002cfc   0x000076ac   0x00000004   PAD
    0x10002d00        -       0x00000000   Zero   RW         4788    HEAP                startup_lpc17xx.o
    0x10002d00        -       0x00000200   Zero   RW         4787    STACK               startup_lpc17xx.o


    Execution Region RW_IRAM2 (Exec base: 0x2007c000, Load base: 0x000076ac, Size: 0x00003e34, Max: 0x00008000, ABSOLUTE)

    Exec Addr    Load Addr    Size         Type   Attr      Idx    E Section Name        Object

    0x2007c000        -       0x00002000   Zero   RW         2941    .bss                internalflash.o
    0x2007e000        -       0x00001e34   Zero   RW         3901    .bss                ethernet.o


==============================================================================

Image component sizes


      Code (inc. data)   RO Data    RW Data    ZI Data      Debug   Object Name

         0          0          0          0          0       8668   adc_17xx_40xx.o
       336         42          0          0          0       9299   clock_17xx_40xx.o
         0          0          0          0          0       5292   convertions.o
        56         10        512          0          0       1072   crc.o
        24         10          4          4         16       1025   delays.o
       104          0          0         10          0       4800   device.o
         0          0          0          0          0        400   eeprom.o
      9336        952        106         44       7732      70201   ethernet.o
       190          0          0          0          0       3946   fifo8.o
       192         16          0          0          0       3170   iap.o
      1976        128          0         16       8192      12454   internalflash.o
       156          0          0          0          0       1379   iocon_17xx_40xx.o
        36          0         12          0          0      16350   main.o
        72         12          0          0         32        727   mainrtx.o
       118          0          0          0          0       1238   master.o
       160          0          0          0          0       3909   ring_buffer.o
        96         32          0          0       1288       6536   rs485.o
        62          6        104         16       9800       7580   rtx_conf_cm.o
       578         26          0          0          0       6411   settings.o
      2720         98          0         14         16       7616   socket.o
      1036          4          0          0          0      13418   ssp_17xx_40xx.o
        40         12        204          0        512       1012   startup_lpc17xx.o
       636         30          0          4          0       1335   system_lpc17xx.o
       262          6          0          1          0      11303   uart_17xx_40xx.o
      1508         82          0         22         20       6604   w5500.o
      1212         46          0         45          0      16580   wizchip_conf.o

    ----------------------------------------------------------------------
     20948       1512        992        184      27612     222325   Object Totals
         0          0         48          0          0          0   (incl. Generated)
        42          0          2          8          4          0   (incl. Padding)

    ----------------------------------------------------------------------

      Code (inc. data)   RO Data    RW Data    ZI Data      Debug   Library Member Name

       238         24          0          1          0       3312   hal_cm.o
       304         36          0          0          0        768   hal_cm3.o
      1542        184          0          8          0      38623   rt_cmsis.o
        80          4          0          0          0        661   rt_event.o
       566         44          0          0         48       8792   rt_list.o
       554         10          0          0          0       3949   rt_mailbox.o
       140          0          0          0          0       1925   rt_membox.o
       128          0          0          0          0       2307   rt_memory.o
        16          0          0          0          0        462   rt_mutex.o
        96         22          0          8          0       1158   rt_robin.o
        52          4          0          0          0        573   rt_semaphore.o
       298         52          0          8          0       6223   rt_system.o
      1264        184          0          8         52      10147   rt_task.o
         6          0          0          4          0        652   rt_time.o
         4          4          0          0          0        208   svc_table.o
        56          8          0          0          0         84   __0sscanf.o
        28          0          0          0          0         68   _chval.o
       812          4          0          0          0        112   _scanf.o
       332          0          0          0          0         96   _scanf_int.o
        64          0          0          0          0         84   _sgetc.o
       158          0          0          0          0         92   _strtoul.o
        26          0          0          0          0         80   atoi.o
         8          4        133          0          0         68   ctype_o.o
         0          0          0          0          0          0   entry.o
         0          0          0          0          0          0   entry10a.o
         0          0          0          0          0          0   entry11a.o
         8          4          0          0          0          0   entry2.o
         4          0          0          0          0          0   entry5.o
         0          0          0          0          0          0   entry7b.o
         0          0          0          0          0          0   entry8b.o
         8          4          0          4          0         68   errno.o
        18          0          0          0          0         80   fputc.o
        30          0          0          0          0          0   handlers.o
        36          8          0          0          0         68   init.o
        18          0          0          0          0         76   isspace_o.o
         0          0          0          0          0          0   iusesemip.o
        30          0          0          0          0         68   llshl.o
        32          0          0          0          0         68   llushr.o
       188         20          0          0          0        160   malloc.o
        36          0          0          0          0         68   memcpya.o
        36          0          0          0          0        108   memseta.o
         0          0          0          8          0          0   mvars.o
       422         20          0          0          0        336   printf1.o
        40          8          0          0          0         84   scanf_char.o
         0          0          0          0          0          0   semi.o
         0          0          0          4          0          0   stdout.o
        24          0          0          0          0         68   strcat.o
        14          0          0          0          0         68   strlen.o
        30          0          0          0          0         80   strncmp.o
        36          0          0          0          0         80   strstr.o
       112          0          0          0          0         88   strtol.o
        44          0          0          0          0         80   uidiv.o
        98          0          0          0          0         92   uldiv.o

    ----------------------------------------------------------------------
      8064        648        136         56        104      82184   Library Totals
        28          0          3          3          4          0   (incl. Padding)

    ----------------------------------------------------------------------

      Code (inc. data)   RO Data    RW Data    ZI Data      Debug   Library Name

      5288        568          0         37        100      79760   RTX_CM3.lib
      2748         80        133         16          0       2424   mc_w.l

    ----------------------------------------------------------------------
      8064        648        136         56        104      82184   Library Totals

    ----------------------------------------------------------------------

==============================================================================


      Code (inc. data)   RO Data    RW Data    ZI Data      Debug   

     29012       2160       1128        240      27716     289841   Grand Totals
     29012       2160       1128        240      27716     289841   ELF Image Totals
     29012       2160       1128        240          0          0   ROM Totals

==============================================================================

    Total RO  Size (Code + RO Data)                30140 (  29.43kB)
    Total RW  Size (RW Data + ZI Data)             27956 (  27.30kB)
    Total ROM Size (Code + RO Data + RW Data)      30380 (  29.67kB)

==============================================================================

