:020000040000FA
:100000005032082021020000290200002B020000CB
:100010002D0200002F02000031020000000000004D
:100020000000000000000000000000005901000076
:100030003502000000000000D10100000D020000A8
:100040003B0200003B0200003B0200003B020000BC
:100050003B020000394B0000514B0000694B00008F
:10006000814B00003B0200003B0200003B0200000D
:100070003B0200003B0200003B0200003B0200008C
:100080003B0200003B0200003B0200003B0200007C
:100090003B0200003B0200003B0200003B0200006C
:1000A0003B0200003B0200003B0200003B0200005C
:1000B0003B0200003B0200003B0200003B0200004C
:1000C0003B0200003B0200003B020000DFF81CD0B6
:1000D00000F07EFA06F030FD0021034806F006FE2F
:1000E00006F03CFDFEE70000F8A3000050320820B7
:1000F00080F309887047EFF309807047684680F302
:10010000098804480078C00714BF0220032080F348
:1001100014887047B8A30000DFF818C0EFF3058318
:100120001B0618BF6047EFF31483DB0708BF604767
:1001300000DF704769770000DFF818C0EFF3058330
:100140001B0618BF6047EFF31483DB0708BF604747
:1001500000DF7047E5790000EFF30980816911F84D
:10016000021CF1B990E80F10E047EFF3098C8CE81E
:100170000700144B93E8060091420FD039B12CE9E7
:10018000F00FC1F828C00CB407F086FF0CBC1A6051
:10019000D2F828C0BCE8F00F8CF309886FF0020E8B
:1001A000704710B5084A1268914209D8074C54F8B4
:1001B000214090E80F10A047EFF3098C8CE80F0066
:1001C00010BD000034000010540900005409000064
:1001D00007F034FE0C4B93E80600914210D0EFF389
:1001E000098C2CE9F00FC1F828C00CB407F054FFBB
:1001F0000CBC1A60D2F828C0BCE8F00F8CF3098858
:100200006FF0020E704700003400001008F00CF888
:10021000E0E7000006F0FEFD08F006F8DAE700006F
:100220000648804706480047FEE7FEE7FEE7FEE790
:10023000FEE7FEE7FEE7FEE7FEE7FEE7654A0000B1
:10024000CD0000002DE9F05F0546002092469B4658
:1002500088460646814640241BE0284641464746DC
:10026000224600F062F953465A46C01A914110D313
:1002700011461846224600F049F92D1A67EB01088D
:100280004F4622460120002100F040F917EB0009FB
:100290004E41201EA4F10104DFDC484631462A46C7
:1002A0004346BDE8F09F40EA01039B0703D009E005
:1002B00008C9121F08C0042AFAD203E011F8013B52
:1002C00000F8013B521EF9D27047D2B201E000F8AB
:1002D000012B491EFBD270470022F6E710B51346EA
:1002E0000A4604461946FFF7F0FF204610BD421C9F
:1002F00010F8011B0029FBD1801A7047FFFFFFFF98
:10030000421E12F8013F002BFBD111F8013B02F80D
:10031000013B002BF9D1704730B505462A460B4604
:1003200012F8010B13F8014B08B1A042F8D01CB130
:10033000002802D06D1CF1E7284630BD30B50546D7
:100340000020034600E05B1C934205D2EC5CC85CD5
:10035000201A01D1002CF6D130BD00000FB400B539
:100360008DB010A909900B9000914FF0FF300A90CA
:1003700000200C9005480690054807906A4609A899
:100380000F9900F0F7F80DB05DF814FB910500002F
:10039000AF0500002DE9FF5F1D464FF0FF3BD5E99B
:1003A000014691465F464FF00008A9697F1C0198FD
:1003B0008847296A824688470028F6D1BAF1FF3F6C
:1003C0000CD024F4C064002E19DD600614D5BAF1F7
:1003D0002B0F09D0BAF12D0F0ED103E0584604B00F
:1003E000BDE8F09F44F48064A9697F1C01988847A8
:1003F000761E8246002E02DDBAF1300F03D0B9F12D
:10040000000F26D032E0A969761E44F400747F1CE8
:10041000019888478246002E05DDBAF1780F06D094
:10042000BAF1580F03D0B9F1000F10D01EE0B9F1A6
:10043000000F02D0B9F1100F18D1A969761E24F46B
:1004400000747F1C019888478246102002E0082033
:1004500000E00A20814609E008FB0908A969761E28
:1004600044F400747F1C019888478246002E05DD05
:100470004946504600F069F80028EDDAE96901982C
:100480008847A00502D46FF00100A8E7E00725D156
:10049000600613D5600502D5C8F1000000E04046B3
:1004A00029680A1D2A600968220501D5087015E02F
:1004B000220701D5088011E008600FE02868011DBF
:1004C00029600068210502D580F8008006E0210738
:1004D00002D5A0F8008001E0C0F8008038467EE731
:1004E00030B50B46014600202022012409E021FA04
:1004F00002F59D4205D303FA02F5491B04FA02F501
:100500002844151EA2F10102F1DC30BD202A04DBD3
:10051000203A00FA02F1002070479140C2F1200316
:1005200020FA03F3194390407047202A04DB203A55
:1005300021FA02F00021704721FA02F3D040C2F103
:10054000200291400843194670473A2800D23038BB
:1005500020F02002412A01D3A2F13700884201D3C2
:100560004FF0FF30704700000268114413780160BB
:1005700018467047D1600449516104491162002155
:100580001161114600F03CB869050000F505000056
:10059000426842B1016811F8013B23B1521EC0E923
:1005A0000012184670470121C160881E70474268DA
:1005B0005AB1C368016843B983688B4205D0491EAC
:1005C000521CC0E90012002070474FF0FF30704706
:1005D000064C074D06E0E06840F0010394E8070090
:1005E00098471034AC42F6D3FFF774FDACA400007A
:1005F000ECA40000C0B24FF4F05100F097B9000035
:100600002DE9F34F8BB04FF0000801F10C000C46C0
:100610004FF0010B46460DF1080A01906269012175
:1006200001989047051E2DD0252D2CD0216A884792
:10063000C0B16269012101989047216A884700286A
:10064000F7D1411E62690198904700E0761CA169CC
:100650000B988847216A88470028F7D1E1690B98F1
:100660008847DBE7A1690B9888470746A84201D174
:10067000761CD3E7E1690B9888477F1C02D1B8F15B
:10068000000F6FD046E1002762693D463946019868
:1006900090472A2804D162690121019890470125D9
:1006A000DFF884926269012101989047A0F130013E
:1006B0000A290AD24F45E5DC07EB870100EB410729
:1006C000303FDFD445F01005ECE7E90601D46FF0C8
:1006D00000476C280AD04C2814D0682815D06A2806
:1006E0000DD074281CD07A281AD01DE0626901212F
:1006F000019890476C2802D045F0040514E045F0BD
:1007000002050DE045F020050AE06269012101982B
:100710009047682802D045F0080505E045F40065DB
:100720006269012101989047C4E9015765283DD0CD
:1007300019DC58287AD00CDC452837D004DC252871
:1007400026D0412831D131E046282FD047282CD15E
:100750002CE05B2877D0612828D063287CD06428DF
:1007600023D15AE0D0E06F2848D008DC66281DD09D
:1007700067281BD0692821D06E2816D127E0702861
:1007800045D0732868D0752847D078280DD14DE022
:10079000A1690B988847054625283FF469AFE169B0
:1007A0000B9888476D1C3FF46AAFB3E023466A4656
:1007B0006FF001000B99AFF300809EE045F0400020
:1007C0006060A80723464FF0000236D43EE0E807F9
:1007D0007FF447AF2068011D21600068290501D51D
:1007E00006701BE7290701D5068017E7A90703D57F
:1007F000F117C0E9006111E706600FE745F040001E
:100800006060A80723464FF0080216D41EE040F6A9
:100810000E0125EA0100606016E045F040006060CE
:10082000A80723464FF00A0207D40FE045F0400026
:100830006060A80708D5234610226FF001000B99CD
:10084000AFF3008059E007E0234610226FF001006B
:100850000B99FFF79FFD50E04FF000094F464B46C4
:10086000632802D05B2806D040E0E80601D40120CE
:10087000A06001273AE062690121019890475E2853
:1008800005D14FF0010962694946019890472169F5
:1008900039B900210A46534643F82120491C08294A
:1008A000FADBB0B3216969B9C11700EBD16253110A
:1008B0000AEB830122F01F02821A01200B6890408C
:1008C00003430B6062690121019890475D28E8D1DC
:1008D000B9F1000F09D00020514651F82020D24331
:1008E00041F82020401C0828F7DB02AB2246009785
:1008F0006FF001000B99AFF3008000280CDA401C68
:1009000008D1BBF1000F05D04FF0FF300DB0BDE8AE
:10091000F08FFFE74046F9E7E90701D108F1010848
:1009200006444FF0000B79E6CCCCCC0C7F2801D9E3
:10093000002208E0064A02EB5002C007127800D1FC
:10094000120902F00F020120904008407047000099
:1009500008A40000000000002DE9F04F87B000203F
:10096000069081460620B549087001265CE1012EFB
:1009700007D1DFF8CCB2DFF8CC82B34890F800A002
:100980001CE0022E07D1DFF8C4B2DFF8C482B14800
:1009900090F800A012E0032E07D1DFF8BCB2DFF818
:1009A000BC82AF4890F800A008E0042E06D1DFF822
:1009B000B4B2DFF8B482AD4890F800A000272EE171
:1009C00008EB4710407802283ED108EB4710451C41
:1009D000282006F0A5F84FF00009697806AA5846C5
:1009E00008F084FB20B94FF001090120A87201E052
:1009F0004FF00009282006F093F8697805AA5846B8
:100A000008F0A2FB20B94FF001090120A87201E013
:100A10004FF00009B9F1000F13D12889BDF8181063
:100A2000884204D1A8799DF81410884209D029463B
:100A3000304603F0D3FE10B14FF0000901E04FF053
:100A4000010985F80A90E8E008EB47104078012892
:100A5000F9D108EB4710441C282006F061F84FF04C
:100A6000000961780122584604F07EFF08B94FF072
:100A70000109617804AA584605F0B0F808B3E07897
:100A80009DF8101088421CD0282006F049F8E27822
:100A90006178584605F08BF880B1617804AA584611
:100AA00005F09CF838B1E0789DF81010884202D12A
:100AB0004FF0000907E04FF0010904E04FF0010991
:100AC00001E04FF00109617803AA584605F055F896
:100AD00008B3207A9DF80C1088421CD0282006F01C
:100AE0001FF8227A6178584605F034F880B16178B1
:100AF00003AA584605F041F838B1207A9DF80C1049
:100B0000884202D14FF0000907E04FF0010904E0EC
:100B10004FF0010901E04FF00109617802AA58463F
:100B200004F0B8FE08B3BDF80810606888421CD015
:100B3000282005F0F5FF627A6178584604F044FFFA
:100B400080B1617802AA584604F0A4FE38B1BDF81D
:100B500008106068884202D14FF0000907E04FF0AA
:100B6000010904E04FF0010901E04FF0010961784B
:100B700001AA584604F034FF08B3607ABDF80410A7
:100B800088421CD0282005F0CBFF627A6178584655
:100B900004F01AFF80B1617801AA584604F020FFE2
:100BA00038B1607ABDF80410884202D14FF00009D4
:100BB00007E04FF0010904E04FF0010901E04FF0B8
:100BC000010961786A46584604F0F0FE08B3A07A3D
:100BD000BDF8001088421CD0282005F0A1FFA27AA1
:100BE0006178584604F0D6FE80B161786A4658466E
:100BF00004F0DCFE38B1A07ABDF80010884202D1C2
:100C00004FF0000907E04FF0010904E04FF001093F
:100C100001E04FF0010984F80B90781CC7B25745EA
:100C2000FFF6CEAE701CC6B2042E7FF7A0AE002039
:100C30000249087007B0BDE8F08F00001C000010EA
:100C400000C00040E0C507201800001000C00940A7
:100C5000E0D507201900001000800940E0E50720DA
:100C60001A00001000000140E0F507201B000010F2
:100C700070B503460C461546002200BF3DE058788B
:100C800004EB42163678B04235D1987804EB421620
:100C90007678B0422FD104EB4210411CD878CE7840
:100CA000B04216D1187A0E7AB04212D158684E6806
:100CB000B0420ED1587A4E7AB0420AD104EB4210BB
:100CC0004078012805D1987A8E7AB04201D100206F
:100CD00070BD012004EB4216707058784870D878C7
:100CE000C870187A087258684860587A4872987ABA
:100CF00088720120ECE7501C82B2802ABFDB002200
:100D000025E004EB42100078F8B904EB421040787B
:100D1000D8B9587804EB42163070012004EB421623
:100D2000707004EB4210411C58784870D878C87035
:100D3000187A087258684860587A4872987A8872A7
:100D40002878401C28700120C2E7501C82B2802AFB
:100D5000D7DB0120BCE70146C878412804D0C87819
:100D6000432801D000207047887A01280AD0887A69
:100D7000022807D0887A032804D0887A042801D072
:100D80000020F0E70120EEE770B503460C4615465B
:100D9000002200BF3DE0587804EB42163678B0429E
:100DA00035D1987804EB42167678B0422FD104EB17
:100DB0004210411CD878CE78B04216D118790E79FD
:100DC000B04212D158794E79B0420ED198798E79CD
:100DD000B0420AD104EB42104078022805D11889AC
:100DE0000E89B04201D1002070BD022004EB4216F2
:100DF000707058784870D878C87018790871587928
:100E0000487198798871188908810120ECE7501C95
:100E100082B2802ABFDB002225E004EB421000787A
:100E2000F8B904EB42104078D8B9587804EB421670
:100E30003070022004EB4216707004EB4210411C2B
:100E400058784870D878C8701879087158794871FE
:100E500098798871188908812878401C28700120A9
:100E6000C2E7501C82B2802AD7DB0120BCE70146D2
:100E7000C878052801DD002070470879802801DD49
:100E80000020F9E74879012801DD0020F4E788799E
:100E9000012801DD0020EFE70889B0F5C87F01DDFA
:100EA0000020E9E7087D012801DD0020E4E70120BA
:100EB000E2E700000146054A126801238B401A430D
:100EC000024BC43BC3F8C42070470000C4C00F40AD
:100ED00002480068C0B2401C7047000004C10F40C7
:100EE00000BF04490968C1F3406109B1012000E075
:100EF0000020704788C00F4000B5FFF7F1FF20B118
:100F0000012805D100F006F800BD00F053F8FBE71A
:100F10000020F9E700B5002100BF0D480068C0F3CC
:100F2000006098B10A48001F0068C0F30E00421C20
:100F30000748001F0068C0F30740431C00BF00F0D3
:100F400039F840005043B0FBF3F100BF084600BD44
:100F500088C00F4010B5014601204A0002F01F036F
:100F600052090D4C54F8220020FA03F404F0030057
:100F700008B904200EE0012800D10BE0022800D1BE
:100F800008E00D2903D00E2901D00F2901D1062038
:100F900000E0082010BD0000A8C10F4030B5044695
:100FA00000F028F805462046FFF7D4FFB5FBF0F027
:100FB00030BD000000BF0B48006800F0030020B106
:100FC000012805D002280BD106E000BF0648704773
:100FD00000BF06480068FAE700BF05480068F6E76A
:100FE0000020F4E70CC10F4000093D0030A10000D3
:100FF00038A1000000B5FFF77FFF0146FFF768FF4B
:10100000B1FBF0F000BD10B500EB41131B680124EB
:101010009440234300EB4114236010BD30B54BB125
:1010200000EB4114A469012595402C4300EB4115C8
:10103000AC6108E000EB4114E569012494402543CC
:1010400000EB4114E56130BD30B54BB100EB41140C
:10105000A469012595402C4300EB4115AC6108E0E3
:1010600000EB4114E56901249440254300EB411451
:10107000E56130BD30B589B004460D463520049099
:1010800005940695694604A805F048FB0098C0B28F
:1010900009B030BD70B58AB004460D4616463320FF
:1010A0000590069407950896074800684FF47A71F2
:1010B000B0FBF1F0099001A905A805F02FFB0198FC
:1010C000C0B20AB070BD0000BCC0072030B589B006
:1010D00004460D46342004900594069507480068A0
:1010E0004FF47A71B0FBF1F00790694604A805F05F
:1010F00015FB0098C0B209B030BD0000BCC007208D
:1011000030B589B004460D4632200490059406950A
:10111000694604A805F002FB0098C0B209B030BDD2
:101120002DE9F0430D461E46DDF81CC014464FEA7B
:10113000E27802EB18784FEA2818A2EB08184FEA79
:1011400048684FEA18634FEAE27802EB18784FEAF2
:1011500028184FF0020909FB058808F0FF0150F834
:1011600021404FF0030808FA03F824EA08070CFAB4
:1011700003F43C4340F8214000F1400454F821407E
:101180004FF0030808FA03F824EA080706FA03F404
:101190003C4300F1400848F82140BDE8F083F8B531
:1011A00005460E4617461C4604F00300A3083A46BF
:1011B000314600902846FFF7B3FFF8BD0162704743
:1011C0000146034A914201D1152000E00A207047F0
:1011D0000080084002469069084008B1012070472D
:1011E0000020FCE70246D068084008B101207047A3
:1011F0000020FCE770B505460C4602E0284600F0EA
:10120000DBF804212846FFF7EDFF0028F6D1032183
:101210002846FFF7D3FF00BF286800F00F0007281B
:1012200023DD19E002212846FFF7DCFF012807D162
:1012300021696068884203D22146284603F0DEF81F
:1012400001212846FFF7C6FF012801D1002070BD0B
:101250002146284603F0A3F8D4E903018842E1D3EC
:10126000216960688842DDD322E019E00221284626
:10127000FFF7B8FF012807D121696068884203D2CF
:101280002146284603F0A6F801212846FFF7A2FFD1
:10129000012801D10020DAE72146284603F064F84E
:1012A000D4E903018842E1D3216960688842DDD333
:1012B000206808B16068CAE7A06808B1E068C6E7BE
:1012C0000020C4E72DE9F04780460F46144600256C
:1012D000002602E0404600F06FF804214046FFF788
:1012E00081FF0028F6D103214046FFF767FF00BFCA
:1012F000D8F8000000F00F0007282EDDB94627E0DF
:1013000002214046FFF76EFF012807D1A64205D211
:101310004FF6FF71404600F053F8B61C01214046DD
:10132000FFF758FF012802D10020BDE8F08707E051
:10133000404600F041F8A9F8000009F10209AD1C8F
:1013400004214046FFF74EFF012801D1A542EFD30B
:10135000A642D5D3A542D3D32CE0B94625E002213D
:101360004046FFF73FFF012806D1A64204D2FF21E5
:10137000404600F025F8761C01214046FFF72AFF81
:10138000012801D10020D0E707E0404600F014F822
:1013900089F8000009F101096D1C04214046FFF79E
:1013A00021FF012801D1A542EFD3A642D7D3A54200
:1013B000D5D300BF2846B8E70146886880B2704799
:1013C0008AB2826070472DE9F04780460D4640465C
:1013D000FFF7F6FE8246FFF7E1FD81460024671E17
:1013E00002260AE0601C7043B9FBF0F7AF4204D953
:1013F000641CFF2C01D90024B61CAF42F2D832463F
:101400002146404600F002F8BDE8F08710B50468B8
:1014100024F47F43CCB243EA04240460026110BD8B
:101420002DE9F04780460F4614460025002602E0CD
:101430004046FFF7C1FF04214046FFF7D3FE0028D6
:10144000F6D103214046FFF7B9FE00BFD8F80000EF
:1014500000F00F0007282ADDB94623E002214046AC
:10146000FFF7C0FE012809D1A54207D2B9F8001044
:101470004046FFF7A5FF09F10209AD1C01214046D6
:10148000FFF7A8FE012802D10020BDE8F08703E0A5
:101490004046FFF791FFB61C04214046FFF7A2FE2D
:1014A0000128F5D0A542D9D3A642D7D32BE0B9461F
:1014B00024E002214046FFF795FE012809D1A5420C
:1014C00007D299F800104046FFF77AFF09F10109A9
:1014D0006D1C01214046FFF77DFE012801D100204F
:1014E000D3E703E04046FFF767FF761C0421404640
:1014F000FFF778FE012801D1A642F3D3A542D8D345
:10150000A642D6D300BF2846BFE7000010B5044668
:1015100000BFA06800F4807078B14FF4807120465D
:1015200000F0E6F84FF48071204600F09BF80B487D
:10153000007810B901200949087000BFA06800F4C4
:10154000007048B14FF40071204600F0D1F84FF41C
:101550000071204600F086F810BD00000000001069
:10156000C1607047C16821F08001C1607047C168E7
:1015700041F08001C16070470146084A914201D1A3
:1015800004200AE0064A914201D1182005E0054AEC
:10159000914201D1192000E0032070470000014072
:1015A0000080094000C009400146084A914201D12B
:1015B00004200AE0064A914201D1182005E0054ABC
:1015C000914201D1192000E0032070470000014042
:1015D0000080094000C0094070B505460E4614461B
:1015E000686800F0020080B12146284600F0B0F89B
:1015F00000BFE0682169884201D1012000E000209D
:1016000018B10221284600F02DF83146284600F096
:1016100031F82846FFF77AFF70BD000070B5044628
:101620002046FFF7C1FF0646FFF744FC0720A060F5
:1016300000BF204600F086F800206060E060206275
:10164000E064606520650648844202D10020206184
:10165000A5690320E06000BF1020A06270BD0000FB
:101660000000014042688A434260704742680A4372
:101670004260704738B504460D4608E000BF206858
:10168000C0B200906946284602F071FD00BF2046B6
:1016900000F005F800F001000028EFD138BD014648
:1016A00048697047016070472DE9F0470546884654
:1016B00016461F46B14602212846FFF7D3FF3A4699
:1016C0004946404602F06EFD04464146284600F079
:1016D0003FF83A1B09EB0401404602F063FD044465
:1016E000022069680143696000BF2046BDE8F087B9
:1016F000026A0A43026270472DE9F04780460E46AF
:101700004046FFF739FF8246FFF748FC07463001A5
:10171000B7FBF0F4250AA4EB05294046FFF727FFA5
:10172000EAB209F0FF01404600F007F84046FFF733
:1017300019FFB7FBF4F0BDE8F08701604260704725
:101740008160704700210163704780210163704709
:1017500038B505460C4604E09DF800102846FFF712
:10176000A1FF2846FFF79BFF00F0200028B1694643
:10177000204602F086FD0028EED138BD002008E0AA
:101780000021194A02F8201002EB80025180411C0E
:1017900088B20528F4DB002008E00021134A02F893
:1017A000201002EB80025180411C88B20528F4DB36
:1017B000002008E000210E4A02F8201002EB80020F
:1017C0005180411C88B20528F4DB002008E000218C
:1017D000084A02F8201002EB80025180411C88B2B6
:1017E0000528F4DB70470000300608204406082076
:1017F000580608206C060820002009E000211B4A3A
:1018000002EB80025180194A22F82010411C88B254
:101810000528F3DB002009E00021154A02EB8002D5
:101820005180134A22F82010411C88B20528F3DBAE
:10183000002009E000210F4A02EB800251800D4A8E
:1018400022F82010411C88B20528F3DB002009E0B3
:101850000021094A02EB80025180074A22F8201039
:10186000411C88B20528F3DB70470000E005082022
:10187000F4050820080608201C0608202DE9F84F6A
:101880000646894617464FF00008C246B100491C7B
:101890004FF4407202EBC10003F07EF914286FD0C0
:1018A00004DC00286DD013286CD181E0172802D009
:1018B0001C28F9D167E0B100491C4FF4007202EB1B
:1018C000C10003F069F900F0010040B1B100491C0A
:1018D0004FF4007202EBC100012103F0C3F930465E
:1018E00004F0B0FEB0F1000849DD40F2DC514C4894
:1018F000FEF7F2FC40F2DC50804500DD80464FF4FC
:101900007A7342464649304605F0D2FA0446002C26
:1019100004DC60B238700020BDE8F88F00252CE0B0
:10192000BAF1000F0BD13E48405D022824D14FF0A0
:10193000010A3B48415D3B4803F025FB1CE0384869
:10194000405D032807D13648415D364803F01BFB54
:101950004FF0000A10E03248405D022807D14FF0F6
:10196000010A2F48415D2F4803F00DFB04E02C488D
:10197000415D2C4803F007FB6D1C4545D0DB4CE076
:1019800048E02CE048E040F2DC512548FEF7A4FC9A
:101990004FF47A71304603F049FE0446012806D020
:1019A000204803F0D3FC60B238700020B4E734E084
:1019B0004FF0000A40F2DC511948FEF78DFC4FF45D
:1019C0007A71304604F05CFF0446012806D01548C1
:1019D00003F0BCFC60B2387000209DE71DE04FF0C2
:1019E000000A40F2DC510E48FEF776FC0D4803F089
:1019F000ADFC4FF47A7000234A4601210090304636
:101A000007F0BCFB0446B04203D060B2387000203F
:101A100082E702E000BF00E000BF00BF00207BE7DC
:101A200030660010A04000102DE9F84F06468946A8
:101A300017464FF00008C246B100491C4FF44072EF
:101A400002EBC10003F0A8F814286FD004DC0028D2
:101A50006DD013286CD181E0172802D01C28F9D151
:101A600067E0B100491C4FF4007202EBC10003F0C3
:101A700093F800F0010040B1B100491C4FF400722E
:101A800002EBC100012103F0EDF8304604F0DAFD6D
:101A9000B0F1000849DD40F2DC514C48FEF71CFC77
:101AA00040F2DC50804500DD80464FF47A734246B8
:101AB0004649304605F0FCF90446002C04DC60B2CF
:101AC00038700020BDE8F88F00252CE0BAF1000F37
:101AD0000BD13E48405D022824D14FF0010A3B481B
:101AE000415D3B4803F04FFA1CE03848405D032855
:101AF00007D13648415D364803F045FA4FF0000AF9
:101B000010E03248405D022807D14FF0010A2F480B
:101B1000415D2F4803F037FA04E02C48415D2C4822
:101B200003F031FA6D1C4545D0DB4CE048E02CE079
:101B300048E040F2DC512548FEF7CEFB4FF47A71C5
:101B4000304603F073FD0446012806D0204803F018
:101B5000FDFB60B238700020B4E734E04FF0000ABB
:101B600040F2DC511948FEF7B7FB4FF47A7130466A
:101B700004F086FE0446012806D0154803F0E6FB73
:101B800060B2387000209DE71DE04FF0000A40F27F
:101B9000DC510E48FEF7A0FB0D4803F0D7FB4FF4D5
:101BA0007A7000234A4601210090304607F0E6FA99
:101BB0000446B04203D060B23870002082E702E0F1
:101BC00000BF00E000BF00BF00207BE754600010B2
:101BD000B4280010134909780170124949784170FE
:101BE0001049897881700F49C978C1700E49097808
:101BF00001720D494A7842728A788272CA78C2723A
:101C00000A490978017109494A7842718A788271D2
:101C1000CA78C27141F28A310162891E8161491C10
:101C2000C161704730C007202CC0072034C0072096
:101C300030B591B004460D4600200390342104A82D
:101C4000FEF74AFB03A804AB34A235A1009020465E
:101C500003F0F6FF48B13449481E431E821ECDE909
:101C6000000132A104A8FEF779FB342104A8FEF795
:101C700033FB03A804AB29A22FA10090204603F058
:101C8000DFFF50B128480838411E831EC21ECDE92F
:101C9000001026A104A8FEF761FB342104A8FEF77A
:101CA0001BFB03A804AB1DA225A10090204603F056
:101CB000C7FF50B11C49091F481E431E821ECDE9B3
:101CC00000011AA104A8FEF749FB342104A8FEF77D
:101CD00003FB03A804AB11A21BA10090204603F054
:101CE000AFFF28B1104A11321BA104A8FEF736FB42
:101CF000342104A8FEF7F0FA03A804AB07A217A149
:101D00000090204603F09CFF28B1074A0D3212A133
:101D100004A8FEF723FB11B030BD00005D000000F9
:101D20005B49503A000000008B28001025642E25E6
:101D3000642E25642E2564005B4754573A0000004A
:101D40005B5355423A0000005B504F525453495385
:101D500054454D3A00000000256400005B504F528E
:101D60005450433A0000000010B5ADF5B06D044684
:101D70004FF4AF6102A8FEF7AFFA01AA02A920460C
:101D800001F0ACFF10B90DF5B06D10BD1422A0A18B
:101D900002A8FEF7D3FA30BB03F04EFA0020A149A7
:101DA000487001200870204601F0B0F941F28830F7
:101DB000844205D109219CA000F013FE00B100BFB0
:101DC00041F28930844205D1092197A000F0B0FD8D
:101DD00000B100BF204601F065F801219548006878
:101DE00004F06CFF12E1122293A102A8FEF7A6FAFA
:101DF000F8B9204601F08AF941F28830844205D1D1
:101E0000092192A000F0EDFD00B100BF41F2893040
:101E1000844205D109218DA000F08AFD00B100BFE8
:101E2000204601F03FF802218248006804F046FF96
:101E3000ECE00D2288A102A8FEF780FA28B97949C2
:101E40000878214601F040FAE0E00E2286A102A8BF
:101E5000FEF774FA00BB204600F01CFE00BF00BF76
:101E600000BF00BF00BFBFF34F8F00BF00BF00BF68
:101E70008148006800F4E06080490843001D7E4905
:101E8000086000BF00BF00BFBFF34F8F00BF00BF9F
:101E900000BF00BF00BFFDE7122279A102A8FEF734
:101EA0004DFA68B9204600F0F5FDBDF80400A0F138
:101EB00013010DF11B00FFF7BBFE00F029FDA5E0AB
:101EC000142274A102A8FEF739FA18B9204601F0CD
:101ED00003F89BE0172274A102A8FEF72FFA20B99D
:101EE0000A21204600F0FAFD90E01C2274A102A80D
:101EF000FEF724FA20B90121204600F0EFFD85E02D
:101F00001C2276A102A8FEF719FA20B90221204668
:101F100000F0E4FD7AE01C2277A102A8FEF70EFA99
:101F200020B90321204600F0D9FD6FE01C2279A1E1
:101F300002A8FEF703FA20B90421204600F0CEFDE6
:101F400064E015227AA102A8FEF7F8F950B9BDF8AD
:101F50000420A2F117010DF11D0023460A2201F011
:101F600039FB53E0122278A102A8FEF7E7F918B96D
:101F7000204601F0E5F849E0102278A102A8FEF71A
:101F8000DDF958B9204600F085FDBDF80420A2F126
:101F9000110106A8224601F099FD37E00F2274A135
:101FA00002A8FEF7CBF948B9BDF80420A2F111014F
:101FB0000DF11700224600F003F927E0102270A16E
:101FC00002A8FEF7BBF940B9204600F063FD1021DE
:101FD0001848006804F072FE18E017226DA102A8EC
:101FE000FEF7ACF918B9204600F0CCFF0EE0112244
:101FF0006EA102A8FEF7A2F940B9BDF80420A2F133
:1020000013010DF11900224600F04AFA00BFBAE6AA
:102010003C5354415254444556494345534541521B
:1020200043483E001C0000103C5354415254454468
:102030003E000000140000103C53544F50444556DD
:102040004943455345415243483E00003C53544F99
:10205000505045443E0000003C52454144535441D9
:102060005455533E000000003C52455345544D41E9
:10207000535445523E0000000CED00E00000FA050C
:102080003C5345544E4554504152414D45544552A0
:10209000533E00003C524541444E4554504152414C
:1020A0004D45544552533E003C52454144444556EB
:1020B000494345504152414D45544552533E00001D
:1020C0003C52454144504F52543144455649434592
:1020D000504152414D45544552533E003C524541BA
:1020E00044504F5254324445564943455041524161
:1020F0004D45544552533E003C52454144504F5289
:102100005433444556494345504152414D45544549
:1021100052533E003C52454144504F525434444582
:1021200056494345504152414D45544552533E0056
:102130003C534554444556494345504152414D4511
:10214000544552533E0000003C5245414453454ED5
:1021500053475250524547533E0000003C534554AC
:1021600044495350434D44524547533E00000000FC
:102170003C50524F4752414D4D41535445523E0001
:102180003C50524F4752414D444556494345533EBA
:10219000000000003C50524F4752414D44455649C3
:1021A0004345535354415455533E00003C5245411E
:1021B00044444556494345504152414D3E0000007C
:1021C0002DE9F04FC1B00446164600200790069056
:1021D000304600F09BFF03F02FF80125F2E01421B8
:1021E0000AA8FEF779F8012D09D1DFF80CA2DFF873
:1021F0000C9283A10AA8FEF783F8072722E0022D9C
:1022000009D1DFF804A2DFF8049281A10AA8FEF741
:1022100077F8072716E0032D09D1DFF8FCA1DFF8D6
:10222000FC917FA10AA8FEF76BF807270AE0042DAE
:1022300008D1DFF8F4A1DFF8F4917DA10AA8FEF738
:102240005FF807273A460AA92046FEF777F80028E4
:102250007ED141F28830864205D139460AA800F085
:10226000C0FB00B100BF41F28930864205D139463A
:102270000AA800F05DFB00B100BF3C4432211CA85D
:10228000FEF72AF84FF0000895E006A81CAB6AA2FA
:102290006AA10090204603F0D3FC00287ED008AB52
:1022A00009AA67A11CA8FEF759F89DF8200002288A
:1022B00033D140A83DA98A1ECB1ECDE90232CDE91B
:1022C00004103CA8411E831EC21ECDE900105EA171
:1022D0001CA8FEF743F83BA8FEF7C9FD012809D169
:1022E0004A4651463BA8FEF74FFD00284ED001203C
:1022F00007904BE09DF8EE309DF8ED2058A10FA817
:1023000002F02AFD0FA8FDF7F2FF1FFA80FB5A46E4
:102310000FA9304601F02CF938E09DF82000012883
:1023200034D13AA80DF1DE014A1E36ABCDE90232B6
:10233000CDE9041037A8411F831FC21FCDE900104B
:1023400041A11CA8FEF70AF835A8FEF704FD00E03D
:1023500036E0012808D14A46514635A8FEF788FCE8
:10236000A0B10120079011E09DF8D6309DF8D5204E
:102370003BA10FA802F0F0FC0FA8FDF7B8FF1FFA71
:1023800080FB5A460FA9304601F0F2F8BDF818005C
:1023900004441CA8FDF7ABFF044400E007E0A41CC4
:1023A000207800B90BE020783C2800D107E008F144
:1023B000010000F0FF08B8F1800FFFF666AF00BF24
:1023C000681CC5B2042D7FF70AAF079848B102F028
:1023D0002AF803F0E3FE162224A1304601F0C8F8E3
:1023E00004E0192227A1304601F0C2F8304600F07F
:1023F00059FD41B0BDE8F08FE0C50720180000107E
:102400003C504F5254313E00E0D5072019000010D7
:102410003C504F5254323E00E0E507201A000010B5
:102420003C504F5254333E00E0F507201B00001093
:102430003C504F5254343E005D0000005B000000F1
:1024400025642C256400000025642C25642C25645B
:102450002C25642C25642C25642C25642C256400F3
:102460005B25642C25642C4E4F4B5D003C44455647
:10247000494345504152414D455445525345544FAF
:102480004B3E00003C444556494345504152414D66
:10249000455445524E4F4348414E47453E0000008B
:1024A0002DE9F04FB7B0054616464FF0000A002060
:1024B0000690304600F02AFEF148006804F0C8FBA0
:1024C000F0490860F048006804F0C2FBEF4908607A
:1024D0000124C0E114210CA8FDF7FEFE012C07D158
:1024E000EBA10CA8FDF70CFF0727DFF8ACB31CE04D
:1024F000022C07D1E9A10CA8FDF702FFDFF8A4B375
:10250000072712E0032C07D1E7A10CA8FDF7F8FE7E
:10251000DFF89CB3072708E0042C06D1E5A10CA83E
:10252000FDF7EEFEDFF894B307273A460CA92846DC
:10253000FDF704FF00287CD141F28830864205D1A6
:1025400039460CA800F04DFA00B100BF41F28930C5
:10255000864205D139460CA800F0EAF900B100BF67
:102560003D4432211EA8FDF7B7FE4FF000086BE195
:1025700006A81EABD2A2D3A10090284603F060FBB0
:1025800000287DD00AAB0BAACFA11EA8FDF7E6FE5E
:102590009DF82800022874D19DF82C00B9490968DB
:1025A00048700220B749096888700020B549096859
:1025B0004876B448006804760020B24909688871FA
:1025C000B04909680881AF4909680875421EAD48DD
:1025D0000168BF48006804F019FB42F21071022044
:1025E00004F078FB07AB07C3079808284AD108987E
:1025F00000F0020000282FD0A2480068407E60B39F
:10260000A0480068007D9F49096809899D4A1268B1
:1026100092799C4B1B685B79CDE90232CDE90410BD
:1026200098480068007997490968C978CDE9001091
:1026300000E00EE19DF828309DF82C20A5A111A8FE
:1026400002F08AFB11A8FDF752FE1FFA80F94A46F4
:1026500011A9304600F08CFFE3E09DF828309DF88A
:102660002C20A3A111A802F077FB11A8FDF73FFED3
:102670001FFA80F94A4611A9304600F079FFD0E0F0
:10268000BBE012E09DF828309DF82C2098A111A8FD
:1026900002F062FB11A8FDF72AFE1FFA80F94A46F4
:1026A00011A9304600F064FFBBE09DF82800012826
:1026B0007AD19DF82C00754909684870012073494A
:1026C0000968887000207149096848766F48006879
:1026D000047600206D490968C8706C490968087261
:1026E0006A49096848606949096848726749096820
:1026F0008872664909688882421E644801687F487A
:10270000006804F083FA42F21071022004F0E2FA49
:1027100007AB07C30798082847D1089800F00200C4
:1027200000287ED059480068407E50B35748006862
:10273000828A56480068807A54490968497A534B1E
:102740001B685B68CDE90231CDE904024F4800689F
:10275000007A4E490968C978CDE900109DF8283003
:102760009DF82C205BA111A802F0F6FA11A8FDF744
:10277000BEFD1FFA80F94A4611A9304600F0F8FE66
:102780004FE09DF828309DF82C2059A111A802F0A7
:10279000E3FA11A8FDF7ABFD1FFA80F94A4611A92B
:1027A000304600F0E5FE3CE012E09DF828309DF850
:1027B0002C204FA111A802F0CFFA11A8FDF797FD28
:1027C0001FFA80F94A4611A9304600F0D1FE28E0F0
:1027D0004B48006883784A480068427849A111A8AC
:1027E00002F0BAFA11A8FDF782FD1FFA80F94A46F5
:1027F00011A9304600F0BCFE13E041480068837820
:102800003F48006842783AA111A802F0A5FA11A841
:10281000FDF76DFD1FFA80F94A4611A9304600F018
:10282000A7FEBDF8180005441EA8FDF760FD05448D
:10283000AD1C287800B90BE028783C2800D107E0CF
:1028400008F1010000F0FF08B8F1800FFFF690AE2C
:1028500000BF601CC4B2042C7FF73CAE094801687D
:102860000748006804F01AFA08480168064800683A
:1028700004F014FA304600F015FB37B0BDE8F08FD5
:1028800044C007204CC007205CC0072064C007205C
:102890003C504F5254313E0000C000403C504F521B
:1028A00054323E0000C009403C504F5254333E0069
:1028B000008009403C504F5254343E00000001401B
:1028C0005D0000005B00000025642C256400000012
:1028D00048C007205B25642C25642C25642C2564C6
:1028E0002C25642C25642C25642C25645D000000B7
:1028F0005B25642C25642C4E4F4B5D0060C0072087
:1029000058C007205B25642C25642C4F4B5D0000CC
:1029100010B5002003F078FA01F018FE72B600BF7F
:1029200003F0F2FA0028FBD062B603F0FDFD10BD03
:10293000F8B506460C464FF4527002F02DF9002807
:1029400049D0132845D0172802D01C2845D13EE095
:102950004FF4127002F020F900F0010020B10121C3
:102960004FF4127002F07EF9002D01DA0020F8BD5C
:1029700014E04FF4FA704300F72231460090022031
:1029800005F0D6FF0546002D01DA0020EFE7F73607
:10299000A4F1F70084B2F72C00DA01E0F72CE8DCB0
:1029A00000BF002C0DDD4FF4FA7043002246314683
:1029B0000090022005F0BCFF0546002D01DA002042
:1029C000D5E7002D01DA0020D1E70120CFE7002074
:1029D000CDE70020CBE70020C9E700BF00BF002003
:1029E000C5E7F8B506460C464FF44A7002F0D4F835
:1029F000002849D0132845D0172802D01C2845D1DB
:102A00003EE04FF40A7002F0C7F800F0010020B178
:102A100001214FF40A7002F025F9002D01DA00209F
:102A2000F8BD14E04FF4FA704300F72231460090ED
:102A3000012005F07DFF0546002D01DA0020EFE7BB
:102A4000F736A4F1F70084B2F72C00DA01E0F72C96
:102A5000E8DC00BF002C0DDD4FF4FA704300224685
:102A600031460090012005F063FF0546002D01DA94
:102A70000020D5E7002D01DA0020D1E70120CFE7C3
:102A80000020CDE70020CBE70020C9E700BF00BF52
:102A90000020C5E710B50446204600F037FB41F2A0
:102AA0008830844205D1082109A0FFF79AFF00B1C0
:102AB00000BF41F28930844205D1082104A0FFF70C
:102AC00037FF00B100BF204600F0ECF910BD000058
:102AD0003C444154414F4B3E000000002DE9F04F73
:102AE000A9B006460F4600200690304600F00EFBC7
:102AF00041F28830864207D140F6B831AC48FDF744
:102B0000EBFBDFF8AC820EE041F28930864207D160
:102B100040F6B831A748FDF7DFFBDFF8988202E006
:102B200029B0BDE8F08F012439E141F288308642B6
:102B300007D140F6B8319E48FDF7CEFBDFF8708232
:102B40000CE041F28930864207D140F6B83199480D
:102B5000FDF7C2FBDFF85C8200E0E1E700200690B1
:102B60002890012C11D1012F01D00A2F0DD1DFF8AF
:102B7000489292480078289091A14046FDF7C0FB0A
:102B800008F11108012006903AE0022C11D1022F21
:102B900001D00A2F0DD1DFF83C928F4800782890A1
:102BA0008EA14046FDF7ACFB08F11108012006900C
:102BB00026E0032C11D1032F01D00A2F0DD1DFF80D
:102BC00030928C48007828908BA14046FDF798FB06
:102BD00008F111080120069012E0042C10D1042FF6
:102BE00001D00A2F0CD1DFF8249289480078289070
:102BF00088A14046FDF784FB08F1110801200690EA
:102C0000002566E009EB4510407802282DD109EB3C
:102C1000451000F1010A9AF81400BAF808109AF861
:102C200006209AF80530CDE90232CDE904109AF871
:102C300004009AF80310CDE9001009EB4510437821
:102C400009EB4510027878A107A802F085F807A8DB
:102C5000FDF74DFB024607A905904046FDF723FB13
:102C600007A8FDF744FB804431E009EB45104078AC
:102C700001282CD109EB451000F1010BBBF8140021
:102C80009BF80A109BF80920DBF80430CDE90232EA
:102C9000CDE904109BF808009BF80310CDE9001063
:102CA00009EB4510437809EB451002785EA107A8AF
:102CB00002F052F807A8FDF71AFB024607A9059093
:102CC0004046FDF7F0FA07A8FDF711FB8044681CA9
:102CD000C5B22898854295DB202120A8FDF7FCFA93
:102CE000012C04D157A120A8FDF70AFB13E0022C08
:102CF00004D15AA120A8FDF703FB0CE0032C04D15A
:102D00005CA120A8FDF7FCFA05E0042C03D15FA12B
:102D100020A8FDF7F5FA069800B3289800281EDDD4
:102D200041F2883086420AD12148FDF7E0FA80B2AC
:102D3000014605901E48FFF754FE00B100BF41F266
:102D40008930864229D11B48FDF7D1FA80B201466D
:102D500005901848FFF7ECFD00B100BF1DE041F2FF
:102D6000883086420AD120A8FDF7C1FA80B2014618
:102D7000059020A8FFF735FE00B100BF41F2893071
:102D800086420AD120A8FDF7B2FA80B2014605902A
:102D900020A8FFF7CDFD00B100BF601CC4B2042C19
:102DA0007FF7C3AE304600F07DF800BFB8E6000004
:102DB000DC340010C84C0010E0C5072018000010DB
:102DC0003C44455649434552454753504F52543170
:102DD0003E000000E0D50720190000103C44455695
:102DE00049434552454753504F5254323E0000002C
:102DF000E0E507201A0000103C444556494345527F
:102E0000454753504F5254333E000000E0F5072031
:102E10001B0000103C44455649434552454753501A
:102E20004F5254343E0000005B25642C25642C2551
:102E3000642C25642C25642C25642C25642C2564A5
:102E40005D0000003C4445564943455245475350B8
:102E50004F525431454D5054593E00003C44455664
:102E600049434552454753504F525432454D5054B3
:102E7000593E00003C44455649434552454753504E
:102E80004F525433454D5054593E00003C44455632
:102E900049434552454753504F525434454D505481
:102EA000593E000038B504460320009041F28830B6
:102EB000844205D101216846FFF793FD00B100BFB0
:102EC00041F28930844205D101216846FFF730FD87
:102ED00000B100BF38BD000030B5B3B0044627488C
:102EE00080692649C969254AD27A244B9B7ACDE963
:102EF0000832CDE90A102148417A00791F4AD27878
:102F00001E4B9B78CDE90432CDE906011B48407881
:102F10001A490978194AD27A184B9B7ACDE90032BE
:102F2000CDE902101548437A027A15490DA801F03F
:102F300013FF204600F0EAF841F28830844209D1BC
:102F40000DA8FDF7D4F985B229460DA8FFF749FD74
:102F500000B100BF41F28930844209D10DA8FDF7CC
:102F6000C6F985B229460DA8FFF7E2FC00B100BF03
:102F70002046FFF797FF33B030BD000080280010D7
:102F800048A400002DE9F04D94B00746384600F003
:102F9000BDF801248BE0142102A8FDF79DF9012C56
:102FA0000BD1DFF81C81474890F800A046A102A889
:102FB000FDF7A6F90720019028E0022C0BD1DFF8DD
:102FC0001081444890F800A043A102A8FDF798F9A9
:102FD000072001901AE0032C0BD1DFF8048141484F
:102FE00090F800A040A102A8FDF78AF907200190FF
:102FF0000CE0042C0AD1DFF8F8803E4890F800A0DD
:103000003DA102A8FDF77CF90720019041F288302C
:10301000874205D102A80199FFF7E3FC00B100BF88
:1030200041F28930874205D102A80199FFF780FC5F
:1030300000B100BF002536E008EB451040780228BB
:1030400015D108EB4510461CB07A50B3B3787278AE
:103050002BA107A801F080FE07A8FDF748F91FFA89
:1030600080FB5A4607A9384600F082FA19E008EBBF
:1030700045104078012814D199F80B0088B199F8CF
:10308000023099F801201EA107A801F065FE07A8EB
:10309000FDF72DF91FFA80FB5A4607A9384600F0C4
:1030A00067FA681C85B25545C6DB601C84B2042CE7
:1030B0007FF771AF3846FFF7F5FE14B0BDE8F08D2D
:1030C000E0C50720180000103C504F5254313E001C
:1030D000E0D50720190000103C504F5254323E00FA
:1030E000E0E507201A0000103C504F5254333E00D8
:1030F000E0F507201B0000103C504F5254343E00B6
:103100005B25642C25642C4E4F4B5D0038B504467E
:103110000220009041F28830844205D101216846A6
:10312000FFF75FFC00B100BF41F28930844205D156
:1031300001216846FFF7FCFB00B100BF38BD00006D
:103140002DE9F0478EB006464FF000093046FFF7F4
:10315000DDFF41F28830864206D140F6B83146485C
:10316000FDF7BAF8444C0DE041F28930864206D1B1
:1031700040F6B8314148FDF7AFF8404C02E00EB0E0
:10318000BDE8F0873EA12046FDF7BAF80D340125D1
:103190004CE0012D09D1DFF8F8804FF005093DA181
:1031A0002046FDF7ADF8E41D22E0022D09D1DFF83D
:1031B000EC804FF005093AA12046FDF7A1F8E41D87
:1031C00016E0032D09D1DFF8E0804FF0050937A1A3
:1031D0002046FDF795F8E41D0AE0042D08D1DFF83C
:1031E000D4804FF0050934A12046FDF789F8E41D8D
:1031F000002717E008EB8700438838F8272030A124
:1032000001A801F0A9FD01A8FDF771F88246524618
:1032100001A92046FDF747F801A8FDF768F8044426
:10322000781CC7B24F45E5DB681CC5B2042DB0DD84
:1032300041F2883086420AD10F48FDF758F81FFA4C
:1032400080FA51460C48FFF7CCFB00B100BF41F2B9
:10325000893086420AD10948FDF749F81FFA80FAF9
:1032600051460648FFF764FB00B100BF3046FFF748
:1032700019FE00BF83E70000DC340010C84C0010CA
:103280003C53454E53475250524547533E00000071
:10329000E00508203C504F5254313E00F405082010
:1032A0003C504F5254323E00080608203C504F52CA
:1032B00054333E001C0608203C504F5254343E000C
:1032C0005B25642C25645D00F0B58DB005460C4689
:1032D0002046FFF71BFF74484088401C7249488015
:1032E00034216846FCF7F8FF082D7DD2DFE805F0B1
:1032F000C15804192E43839841F28830844205D185
:1033000013216AA0FFF76DFB00B100BF41F28930C5
:10331000844205D1132165A0FFF70AFB00B100BF6D
:10332000BCE041F28830844205D1182164A0FFF747
:1033300058FB00B100BF41F28930844205D1182109
:103340005FA0FFF7F5FA00B100BFA7E041F28830B7
:10335000844205D11C2161A0FFF743FB00B100BFEF
:1033600041F28930844205D11C215CA0FFF7E0FACC
:1033700000B100BF92E041F28830844205D11321B0
:103380005EA0FFF72EFB00B100BF41F289308442FE
:1033900005D1132159A0FFF7CBFA00B100BF7DE0A2
:1033A0006E465BA16846FCF7ABFF15363E48427897
:1033B0005DA1304601F0D0FC41F28830844209D151
:1033C0006846FCF794FF87B239466846FFF709FB69
:1033D00000B100BF41F2893084420BD16846FCF74E
:1033E00086FF87B2394600E043E06846FFF7A0FA5F
:1033F00000B100BF52E041F28830844205D114216F
:103400004BA0FFF7EEFA00B100BF41F289308442D1
:1034100005D1142146A0FFF78BFA00B100BF3DE0B3
:103420006E4649A16846FCF76BFF16361E480279C6
:103430003DA1304601F090FC41F28830844209D130
:103440006846FCF754FF87B239466846FFF7C9FA69
:1034500000B100BF41F28930844209D16846FCF7CF
:1034600046FF87B239466846FFF762FA00B100BFEF
:1034700014E041F28830844205D10E2138A0FFF7D4
:10348000B0FA00B100BF41F28930844205D10E216B
:1034900033A0FFF74DFA00B100BF00BF00BF2046C8
:1034A000FFF700FD0DB0F0BD1C0000103C5354416F
:1034B0005455533D53454E534F52524541443E009F
:1034C0003C5354415455533D53454E534F524C4534
:1034D000445550444154453E000000003C53544183
:1034E0005455533D53454E534F52475255505245F4
:1034F000475550444154453E000000003C53544160
:103500005455533D444953505550444154453E0051
:103510003C5354415455533D444556494345534506
:10352000415243483E0000005B252525645D0000B4
:103530003C5354415455533D4445564943454348F3
:1035400045434B3E000000003C5354415455533D0D
:1035500050524F4752414D4445564943453E000065
:103560003C5354415455533D454D5054593E000031
:1035700070B504460D46164641F28830844205D1A6
:1035800031462846FFF72DFA00B100BF41F28930DD
:10359000844205D131462846FFF7CAF900B100BF81
:1035A00070BD000010B504220949900101F08AFBAA
:1035B00004220749091D4FF4A06001F083FB042297
:1035C000034908314FF4706001F07CFB10BD00002E
:1035D000802800102DE9F04FB9B005461E464FF087
:1035E0000009002006903046FFF790FDFA48006879
:1035F00003F02EFBF9490860F948006803F028FB46
:10360000F84908600124CFE114210DA8FCF764FEFD
:10361000012C0BD1F4483890DFF8D0B3F4A10DA8F9
:10362000FCF76EFE0727F448079028E0022C0BD128
:10363000F2483890DFF8C8B3F2A10DA8FCF760FE9D
:10364000F248079007271AE0032C0BD1F048389076
:10365000DFF8C0B3F0A10DA8FCF752FEF0480790C8
:1036600007270CE0042C0AD1EE483890DFF8B8B3F5
:10367000EEA10DA8FCF744FEEE48079007273A4656
:103680000DA92846FCF75AFE00287DD141F288306A
:10369000864205D139460DA8FFF7A3F900B100BF56
:1036A00041F28930864205D139460DA8FFF740F92D
:1036B00000B100BF3D4432211FA8FCF70DFE4FF0C2
:1036C00000086AE106A81FABDBA2DCA10090284637
:1036D00002F0B6FA00287DD00BAB0CAAD8A11FA827
:1036E000FCF73CFE9DF82C00022874D1BB48006812
:1036F0001430BA4909680831B84A1268921DB74BAC
:103700001B685B1DCDE90232CDE90410B3480068A7
:10371000001DB2490968C91CCDE90010AF48036813
:103720009B1C0268521CC8A11FA8FCF717FEAB48DF
:103730000068FDF79CFB012866D181460020A7495F
:1037400009684876A548006804764FF0FF32A34820
:103750000168C348006803F059FA42F21071012071
:1037600003F0B8FA08AB07C30898082837D10998BE
:1037700000F00100002819D098480068407EB0B1E0
:1037800096480068837800E00CE19448006842782D
:10379000B4A112A801F0E0FA12A8FCF7A8FD1FFAE4
:1037A00080FA524612A93046FFF7E2FEE2E08B486B
:1037B00000688378894800684278ADA112A801F0BA
:1037C000CBFA12A8FCF793FD1FFA80FA524612A911
:1037D000304601E0DDE02CE0FFF7CAFECAE07F489A
:1037E000006883787D4800684278A1A112A801F0A2
:1037F000B3FA12A8FCF77BFD1FFA80FA524612A911
:103800003046FFF7B5FEB5E074480068837873482A
:103810000068427896A112A801F09EFA12A8FCF75F
:1038200066FD1FFA80FA524612A93046FFF7A0FE45
:10383000A0E09DF82C000128B8D16A480068143037
:10384000684909680A31674A12680932654B1B6882
:103850001B1DCDE90232CDE9041062480068083032
:1038600060490968C91CCDE900105E4803689B1CCB
:103870000268521C74A11FA8FCF770FD594800682B
:10388000FDF769FA012861D1814600205549096890
:1038900048765448006804764FF0FF324F4801687C
:1038A0007648006803F0B2F942F21071012003F08B
:1038B00011FA08AB07C30898082832D1099800F01C
:1038C0000100002856D047480068407EA0B1454816
:1038D0000068837843480068427862A112A801F02A
:1038E0003BFA12A8FCF703FD1FFA80FA524612A910
:1038F0003046FFF73DFE3DE03A480068837839489E
:10390000006842785AA112A801F026FA12A8FCF722
:10391000EEFC1FFA80FA524612A93046FFF728FE45
:1039200028E02E48006883782C480068427850A12F
:1039300012A801F011FA12A8FCF7D9FC1FFA80FABC
:10394000524612A93046FFF713FE13E025480068DF
:10395000837824480068427845A112A801F0FCF958
:1039600012A8FCF7C4FC1FFA80FA524612A930468E
:10397000FFF7FEFDBDF8180005441FA8FCF7B7FCD3
:103980000544AD1C287800B90BE028783C2800D10C
:1039900007E008F1010000F0FF08B8F1800FFFF622
:1039A00091AE00BF601CC4B2042C7FF72DAE0B4853
:1039B00001680948006803F071F90A48016808487D
:1039C000006803F06BF9B9F1000F65D016222CA145
:1039D0003046FFF7CDFD64E038C0072040C0072027
:1039E00050C0072058C00720E0C50720180000106D
:1039F0003C504F5254313E0000C00040E0D50720FB
:103A0000190000103C504F5254323E0000C0094093
:103A1000E0E507201A0000103C504F5254333E009E
:103A200000800940E0F507201B0000103C504F5279
:103A300054343E00000001405D0000005B000000C7
:103A400025642C256400000025642C25642C256445
:103A50002C25642C25642C25642C25642C256400DD
:103A60003CC007205B25642C25642C4F4B5D000077
:103A70005B25642C25642C4E4F4B5D0054C0072001
:103A80003C444556494345504152414D45544552A9
:103A90005345544F4B3E0000192205A13046FFF715
:103AA00067FD3046FFF7FEF939B0BDE8F08F000042
:103AB0003C444556494345504152414D4554455279
:103AC0004E4F4348414E47453E0000002DE9F0412E
:103AD00090B004460F469046002002900126D7E0A1
:103AE00007226EA12046FCF729FC00282ED1E41DF8
:103AF000342103A8FCF7F0FB002524E002A803AB67
:103B000068A269A10090204602F09AF850B1674877
:103B100000EB8500831C654800EB850264A103A8C7
:103B2000FCF71CFCBDF80800044403A8FCF7DFFB0D
:103B30000444A41C207800B907E020783C2800D178
:103B400003E0681CC5B2052DD8DB00BF07225AA1CF
:103B50002046FCF7F3FB00282ED1E41D342103A8F6
:103B6000FCF7BAFB002524E002A803AB4DA24EA14E
:103B70000090204602F064F850B1514800EB8500F7
:103B8000831C4F4800EB850249A103A8FCF7E6FB24
:103B9000BDF80800044403A8FCF7A9FB0444A41CD6
:103BA000207800B907E020783C2800D103E0681CA9
:103BB000C5B2052DD8DB00BF072242A12046FCF785
:103BC000BDFB70BBE41D342103A8FCF785FB002579
:103BD00024E002A803AB33A233A10090204602F0F8
:103BE0002FF850B1394800EB8500831C374800EBB3
:103BF00085022FA103A8FCF7B1FBBDF8080004441F
:103C000003A8FCF774FB0444A41C207800B907E067
:103C100020783C2800D103E0681CC5B2052DD8DB14
:103C200000BF07222AA12046FCF788FB70BBE41DD9
:103C3000342103A8FCF750FB002524E002A803ABC5
:103C400018A219A10090204601F0FAFF50B12248B5
:103C500000EB8500831C204800EB850214A103A81B
:103C6000FCF77CFBBDF80800044403A8FCF73FFB0D
:103C70000444A41C207800B907E020783C2800D137
:103C800003E0681CC5B2052DD8DB00BF701CC6B2AE
:103C9000042E7FF725AF10B0BDE8F0813C504F52A5
:103CA00054313E005D0000005B000000300608203B
:103CB00025642C25640000003C504F5254323E00D5
:103CC000440608203C504F5254333E00580608200A
:103CD0003C504F5254343E006C0608202DE9F04110
:103CE00080460D46164641F28830804531D1344831
:103CF00002F030FD10B10020BDE8F08128E030482E
:103D000002F058FB0746022F1CD1002415E0B4F541
:103D1000AF6F04DD4FF4AF6030800020ECE728483F
:103D200002F048FB2855285D032804D100202855BF
:103D300034800120E0E7601C84B2214802F00AFDD3
:103D40000028E4D01E4802F005FD08B10020D3E7AA
:103D5000D5E741F28930804530D11A4802F0FAFCAB
:103D600008B10020C8E728E0164802F023FB074608
:103D7000022F1CD1002415E0B4F5AF6F04DD4FF421
:103D8000AF6030800020B7E70E4802F013FB2855E3
:103D9000285D032804D10020285534800120ABE79A
:103DA000601C84B2074802F0D5FC0028E4D0044827
:103DB00002F0D0FC08B100209EE7D5E700209BE789
:103DC000B4280010A04000101CB5FA2002F0A8FE94
:103DD0004D4802F04DFF4D49086000214C4802F06B
:103DE000F3FE4C4908604C4802F042FF4B49086022
:103DF00000214B4802F0E8FE4A4908604A4802F0B8
:103E000037FF4A4908600021494802F0DDFE494970
:103E10000860494802F02CFF4849086000214848E2
:103E200002F0D2FE474908604748006858B90022AE
:103E30000121464802F08EFF434908600A214248AA
:103E4000006802F09DFF4248A0F14001886240F600
:103E5000B831183802F078FC3D486430A0F1A40174
:103E6000486340F6B831703802F06EFC3949A1F66B
:103E70002C00C0F8141840F6B83100F6140002F017
:103E800063FC34496431A1F50960C0F8201840F69C
:103E9000B83100F5026002F057FC05F0CFFCFFF7E7
:103EA00081FB41F28831012005F014FD41F2893196
:103EB000022005F00FFD04226946900100F09AFEF1
:103EC0000422234938394FF4706000F093FE00BF9C
:103ED0001F4A1C3A41F288310120FDF7A5FD1C4A1A
:103EE0001C3A41F289310220FDF7C8FC41F28830CA
:103EF000FDF73AFF41F28930FDF736FF00BF0A2097
:103F000002F00EFEE4E7000050A3000038C00720D6
:103F10005CA300003CC0072064A3000044C007204D
:103F200070A3000048C0072078A3000050C00720FD
:103F300084A3000054C007208CA300005CC00720AD
:103F400098A3000060C0072028C0072048A30000F5
:103F5000C0280010AC40001001460948007858B154
:103F6000012802D0022806D102E00648405C7047D2
:103F70000448405CFBE700BF0248405CF7E70000F4
:103F800008000010800000100EB54FF416411F48C5
:103F900003F0C4F84FF416411D4803F0BFF84FF486
:103FA00016411C4803F0BAF84FF416411A4803F0C2
:103FB000B5F84FF47A7002F0B3FD03F09BF8FCF70C
:103FC000CBFC00BF04F096FE04F0B8FF04F008FF3D
:103FD00001F02EFD0021084602F07CFE8DE807006E
:103FE000009808280CD1019800F0010010B101F0F0
:103FF000DFF805E0019800F0100008B100F00EF8BD
:1040000000F0E2FF322002F08BFDDBE700C0004051
:1040100000C0094000800940000001402DE9F05F28
:104020004FF0000A01266420704340490978404A55
:10403000127811443F4A127811443F4A12781144D1
:1040400090FBF1F03D49087107200870012465E0FC
:10405000012C04D13A4F354890F800B013E0022CFF
:1040600004D1384F324890F800B00CE0032C04D152
:10407000354F304890F800B005E0042C03D1334FA1
:104080002D4890F800B0002544E007EB451040783B
:10409000022812D107EB451000F1010841462046E5
:1040A00000F09CFB10B14FF0000A01E04FF0010A54
:1040B00088F80AA0701CC6B219E007EB45104078DA
:1040C000012814D107EB451000F10109282002F066
:1040D00027FD4FF0000A4946204600F0B3FA00B130
:1040E00001E04FF0010A89F80BA0701CC6B26420F1
:1040F00070430E4909780E4A127811440D4A12781D
:1041000011440D4A1278114490FBF1F00B490871EB
:10411000681CC5B25D45B8DB601CC4B2042C97DDD9
:10412000002006490870BDE8F09F0000180000104C
:10413000190000101A0000101B0000101C000010D5
:10414000E0C50720E0D50720E0E50720E0F50720DF
:104150000146C8680A69801A704710B50446216094
:104160006360A26000202061E060012010BD70B596
:1041700004460E462568204600F077F808B1002076
:1041800070BD6168491EE0680840A16800FB0155E8
:1041900031462846A268FCF786F8E068401CE060DB
:1041A0000120EDE72DE9F047044688461746D4F88C
:1041B0000090204600F059F810B10020BDE8F087CB
:1041C00000BF2046FFF7C4FF61680D1A2E466168E4
:1041D000491EE068084028446168884205D3616848
:1041E000491EE068084061680D1A761BBD4201DA7D
:1041F000284600E0384605467F1BBE4201DA3046BD
:1042000000E038460646BF1B6168491EE06808406A
:10421000A16800FB0199A06800FB05F241464846F1
:10422000FCF741F8E0682844E0606168491EE068F6
:1042300008402268A16800FB0129A06805FB0088EE
:10424000A06800FB06F241464846FCF72CF8E068FF
:104250003044E060A819B1E70146C8680A69904295
:1042600001D1012070470020FCE710B5044620462C
:10427000FFF76EFF6168884201DB012010BD00205E
:10428000FCE770B504460D4626682046FFF7E4FFBC
:1042900008B1002070BD6168491E20690840A1680E
:1042A00000FB016631462846A268FBF7FCFF206947
:1042B000401C20610120EDE72DE9F04704468846C7
:1042C0001746D4F800902046FFF7C6FF10B1002033
:1042D000BDE8F0872046FFF73BFF064605466168CC
:1042E000491E2069084028446168884205D36168F6
:1042F000491E2069084061680D1A761BBD4201DA2B
:10430000284600E0384605467F1BBE4201DA3046AB
:1043100000E038460646BF1B6168491E2069084018
:10432000A16800FB0199A06800FB05F249464046E0
:10433000FBF7B9FF2069284420616168491E2069A4
:1043400008402268A16800FB0129A06805FB0088DD
:10435000A06800FB06F249464046FBF7A4FF20692F
:1043600030442061A819B3E770B506460C460BE04F
:104370003046FDF721F80546A06810B1D4E90212D5
:104380008D54E068401CE06004213046FCF72AFFB1
:10439000012803D1D4E903018842E9D370BD70B587
:1043A00006460C460BE03046FDF706F80546A068C9
:1043B00010B1D4E902014552E068801CE06004219C
:1043C0003046FCF70FFF012803D1D4E903018842EE
:1043D000E9D370BD70B505460C46206830B1D4E90C
:1043E0000002815C2846FCF7EBFF03E0FF21284632
:1043F000FCF7E6FF6068401C606070BD70B5054664
:104400000C46206830B1D4E90002815A2846FCF7F6
:10441000D7FF04E04FF6FF712846FCF7D1FF606834
:10442000801C606070BD10B500F010F800F08EF8D0
:1044300000F01AF800F0BAF800F054F872B600BFB5
:1044400001F062FD0028FBD062B610BD08B505483A
:10445000009004220021684600F0DCF800B900BF9B
:1044600008BD0000040302012DE9F04140F2046799
:10447000002529E00DB9174E08E0012D01D1164E97
:1044800004E0022D01D1154E00E0154E002417E086
:1044900006EB44104078012804D006EB4410407825
:1044A00002280AD106EB441808F101080C2239460B
:1044B000404600F0AFF800B900BF0C37601C84B272
:1044C000802CE5DB681C85B2042DD3DB0120BDE820
:1044D000F0810000E0C50720E0D50720E0E50720D7
:1044E000E0F507202DE9F04140F20446002421E0E8
:1044F00014B9DFF848800BE0012C02D1DFF84080CE
:1045000006E0022C02D1DFF83C8001E0DFF83880C1
:1045100000250BE008EB850701223146384600F004
:1045200079F800B900BF361D681C85B2052DF1DB96
:10453000601C84B2042CDBDBBDE8F081300608206F
:1045400044060820580608206C06082010B50424EC
:1045500004222146144800F05DF800B900BF241D74
:10456000042221461048083800F054F800B900BF72
:10457000241D042221460C48001F00F04BF800B90E
:1045800000BF241D022221460748103000F042F8E7
:1045900000B900BFA41C022221460348143000F0D9
:1045A00039F800B900BF10BD882800102DE9F0418E
:1045B0004FF40176002421E014B9DFF848800BE0C5
:1045C000012C02D1DFF8408006E0022C02D1DFF896
:1045D0003C8001E0DFF8388000250BE008EB850720
:1045E00004223146384600F015F800B900BF361DE8
:1045F000681C85B2052DF1DB601C84B2042CDBDB6A
:10460000BDE8F081E0050820F40508200806082030
:104610001C06082070B503460C46A018B0F5205FB4
:1046200001D3002070BD002105E018786518044E04
:1046300070555B1C491C9142F7D30120F2E7000042
:104640008000001070B586B005460C46012D01D1E2
:104650005E4E0EE0022D01D15D4E0AE0032D01D128
:104660005C4E06E0042D01D15B4E02E0002006B056
:1046700070BD61780122304601F076F908B900205A
:10468000F5E7282002F04CFA61780122304601F06B
:104690006BF908B90020EAE7282002F041FAE27835
:1046A0006178304601F083FA08B90020DFE728205E
:1046B00002F036FA227A6178304601F04BFA08B9F6
:1046C0000020D4E7282002F02BFAA08882B261787B
:1046D000304601F0D3F808B90020C8E7282002F0DE
:1046E0001FFA627A6178304601F06EF908B900204D
:1046F000BDE7282002F014FAA27A6178304601F072
:1047000049F908B90020B2E7282002F009FA6178D7
:104710000022304601F028F908B90020A7E7282038
:1047200002F0FEF9617805AA304601F057FA08B99F
:1047300000209CE7282002F0F3F9617804AA3046B3
:1047400001F01BFA08B9002091E7282002F0E8F9EF
:10475000617803AA304601F09DF808B9002086E789
:10476000282002F0DDF9617802AA304601F038F91C
:1047700008B900207BE7282002F0D2F9617801AA6D
:10478000304601F013F908B9002070E7282002F044
:10479000C7F9E0789DF81410884215D1207A9DF869
:1047A0001010884210D1BDF80C10606888420BD1FF
:1047B000607ABDF80810884206D1A07ABDF80410CE
:1047C000884201D1012052E7002050E700C000409C
:1047D00000C0094000800940000001407CB505464A
:1047E0000C4600200190012D01D1304E0DE0022D2C
:1047F00001D12F4E09E0032D01D12E4E05E0042DED
:1048000001D12D4E01E000207CBD617801223046AF
:1048100004F07EFB08B90020F6E7282002F080F9BA
:10482000282002F07DF922896178304604F052FC9C
:1048300008B90020E8E7282002F072F9A27961782F
:10484000304604F06FFC08B90020DDE7282002F0B4
:1048500067F961780022304604F05AFB08B900205D
:10486000D2E7282002F05CF9617801AA304604F012
:104870003DFC08B90020C7E7282002F051F9617813
:104880006A46304604F060FC08B90020BCE7208985
:10489000BDF80410884206D1A0799DF80010884226
:1048A00001D10120B0E70020AEE7000000C00040C9
:1048B00000C0094000800940000001402DE9F04798
:1048C00064480068C0F3016003287DD161488430EA
:1048D000006800F0030030B1012830D0022859D020
:1048E00003282BD100E000BF5A480068C0F30740FE
:1048F000441C022157488838D0F88800C0F30E00C5
:10490000401CA1FB0001544B4FF0000CA0FB0379AD
:1049100001FB039100FB0C11224663463846FBF76E
:1049200091FC05464B487C300068C0B2441C2246CE
:1049300000232846FBF786FC4849086056E04548B6
:104940000068C0F30740441C022142488838D0F870
:104950008800C0F30E00401CA1FB0010404A4FF03D
:10496000000CA1FB027900FB029001FB0C01224626
:1049700063463846FBF766FC054636487C300068DF
:10498000C0B2441C224600232846FBF75BFC334997
:1049900008602BE02F480068C0F30740441C022148
:1049A0002C488838D0F88800C0F30E00401CA1FBCA
:1049B00000124FF400400023A1FB007902FB00909D
:1049C00001FB0301224600E011E03846FBF73AFC08
:1049D000054620487C300068C0B2441C22460023B3
:1049E0002846FBF72FFC1D49086000BF30E019483E
:1049F0008430006800F0030030B1012810D0022894
:104A000019D0032823D100E000BF12487C30006891
:104A1000C0B2401C1049B1FBF0F01049086016E02C
:104A20000C487C300068C0B2401C0D49B1FBF0F06E
:104A30000A4908600BE007487C300068C0B2401C9F
:104A40004FF40041B1FBF0F00449086000BF00BF23
:104A5000BDE8F08788C00F4000093D00BCC00720BA
:104A6000001BB7002020314908603148D0F8A00170
:104A700000F0200030B100BF2C48006800F040007A
:104A80000028F9D0032029499C39086000202849D2
:104A9000C1F8A80125490C31086001202349943947
:104AA00008602448224984310860AA2020498C31BA
:104AB00008605520086001201D4980310860AA2047
:104AC0001B498C31086055201949C1F88C0000BF82
:104AD00017488830006800F080600028F8D0032074
:104AE000134980310860AA201149C1F88C00552073
:104AF0000F498C31086000BF0D488830006800F015
:104B00004070B0F1407FF7D1002008499839086023
:104B10000749C1F8C400C1F8C8010846006820F47C
:104B2000704040F48040086070470000A0C10F4012
:104B300000C00F406300050010B5034AA2F1140144
:104B40000248FCF749FD10BD18C2072000C0004014
:104B500010B5034AA2F114010248FCF73DFD10BD57
:104B6000CCC507200000014010B5034AA2F1140192
:104B70000248FCF731FD10BD90C4072000800940B9
:104B800010B5034AA2F114010248FCF725FD10BD3F
:104B900054C3072000C0094030B5FFB00446FC21D3
:104BA00040A8FBF799FBFC2101A8FBF795FB00BF90
:104BB000200C8DF80001200A8DF80101E0B28DF87B
:104BC000020140A80949086001A888600420086122
:104BD00000204860C86072B604490548FCF70AFB2B
:104BE00062B69DF8075028467FB030BD8006082089
:104BF00000800840F0B5FFB004460F461646FC2181
:104C000040A8FBF769FBFC2101A8FBF765FB00BF8F
:104C1000200C8DF80001200A8DF80101E0B28DF81A
:104C2000020140A80D49086001A88860F01C0861D5
:104C300000204860C86072B608490948FCF7DAFAF3
:104C400062B6002505E001A9E81C085C7855681CDF
:104C500085B2B542F7DB7FB0F0BD000080060820CA
:104C60000080084030B5FFB004460D46FC2140A846
:104C7000FBF732FBFC2101A8FBF72EFB44F00404F8
:104C8000200C8DF80001200A8DF80101E0B28DF8AA
:104C900002018DF8035140A80849086001A8886006
:104CA0000420086100204860C86072B603490448C7
:104CB000FCF7A0FA62B67FB030BD00008006082085
:104CC00000800840F0B5FFB004460D461646FC21B2
:104CD00040A8FBF701FBFC2101A8FBF7FDFA44F01B
:104CE0000404200C8DF80001200A8DF80101E0B2C7
:104CF0008DF80201002706E02978F81C40AA11541B
:104D00006D1C781C87B2B742F6DB40A808490860E2
:104D100001A88860F01C086100204860C86072B675
:104D200003490448FCF766FA62B67FB0F0BD0000A4
:104D300080060820008008400FB4054B10B503A979
:104D4000044A029800F070F810BC5DF814FB0000F3
:104D500039610000D0C007200FB4084B10B504A97A
:104D600002AA039800F060F8044602A9002000F0AF
:104D700005F9204610BC5DF814FB00007D4F0000D3
:104D8000002809DB00F01F02012191404209920036
:104D900002F1E022C2F800117047000010B50028AF
:104DA00004DBCA06130E054A135406E0CA06140EA5
:104DB000034A00F00F031B1FD45410BD00E400E0B1
:104DC00018ED00E002E008C8121F08C1002AFAD15D
:104DD00070477047002001E001C1121F002AFBD17B
:104DE000704710B5002A06DA22F00042D21D22F0E8
:104DF0000703102203E0D21C22F003030C2213B19C
:104E00009C188C4201D9012010BD024401448360EA
:104E1000C0E90021C91AD018884202D810600246A1
:104E2000F9E70020106010BD2DE9FF4F89B09B46C7
:104E30000446002506E025280BD05A460B999047DA
:104E4000641C6D1C20780028F5D10DB02846BDE803
:104E5000F08F0027B8460122474900E0074314F8C5
:104E6000013F203B02FA03F00842F7D120782E28B8
:104E700019D114F8010F47F004072A280ED06FF05B
:104E80002F022078A0F1300109290CD808EB880105
:104E900002EB410100EB0108641CF2E70A98641C74
:104EA00050F8048B0A9020780028CED0642808D0CF
:104EB000692806D075281ED05A460B9990476D1C5C
:104EC00058E00A994FF00A0901C90A91002802DA4C
:104ED00040422D2102E0390504D52B218DF8201008
:104EE000012103E0F90704D02021F7E78A4608AE44
:104EF0000DE00021FAE70A994FF00A0901C90A9169
:104F0000F7E74946FBF7ECFA303106F8011D0028B7
:104F1000F7D1ADEB060000F12009780701D44FF07E
:104F20000108C84502DDA8EB090000E0002080462A
:104F3000002706E008A85A46C05D0B9990476D1CF3
:104F40007F1C5745F6DB04E030205A460B9990470A
:104F50006D1CB8F10001A8F10108F5DC05E016F8B8
:104F6000010B5A460B9990476D1CB9F10001A9F14C
:104F70000109F4DC641C65E7092801000A68531C78
:104F80000B601070704710B503460C46184601F0D0
:104F9000E8FB80B9D98818684454D888401CD88068
:104FA000D8889988884201DB0020D8805889401C25
:104FB0005881012010BD0020FCE710B5FFF77EFCF2
:104FC00004F0BAF9012010BD2DE9FE4322E00021D2
:104FD0005348006801F00EFE8DE807000098102885
:104FE00016D1019E142001F09BFD307E3146FFF763
:104FF000F5FB10B10120707601E0002070760121F0
:105000004848006801F05AFE0A2001F089FD01E0DD
:1050100000BF00E0DBE700BF1EE00021424800685F
:1050200001F0E8FD8DE807000098102813D1019FDA
:10503000387E3946FFF706FB10B10120787601E093
:105040000020787601213748006801F037FE0A20F9
:1050500001F066FD00E000E0DFE700BF22E0002194
:105060003248006801F0C6FD8DE80700009810285E
:1050700017D1019D142001F053FD6978287E2A463E
:1050800001F0CAFE10B10120687601E000206876C8
:1050900002212448006801F011FE0A2001F040FDC1
:1050A00000E000E0DBE700BF36E0002120480068B8
:1050B00001F0A0FD8DE80700009810282BD1019C7D
:1050C000207E012802D1DFF86C8010E0207E0228CB
:1050D00002D1DFF864800AE0207E032802D1DFF8E5
:1050E0005C8004E0207E042801D1DFF854806178E0
:1050F0002246404601F01AF910B10120607601E025
:105100000020607602210748006801F0D7FD0A20E0
:1051100001F006FD00E000E0C7E700BFBDE8FE8348
:105120003CC0072024C0072054C0072048C00720E7
:1051300060C0072000C0004000C009400080094056
:105140000000014070B5002601F0F6F90646174848
:10515000007820B101280CD002281ED113E006F5FA
:105160000050851F41F6FA71304600F087F9044679
:1051700013E006F50050851F41F6FA71304600F045
:105180007DF9044609E006F50050851F41F6FA71E5
:10519000304600F073F9044600BF00BF2888A042E3
:1051A00001D0002070BD0120FCE7000008000010C5
:1051B0003EB5012400F040F800201A494870012053
:1051C00008700020184908701849087018490870BC
:1051D0001849087000BF1CE00021022001F07AFD90
:1051E0008DE807000098082804D1019800F002001B
:1051F00000B110E0204603F015FD204600F058FBFA
:1052000064206043F72190FBF1F006494870601C70
:10521000C4B2F72CE0DD00BFFFF705F9002001491B
:1052200008703EBD1C00001018000010190000108E
:105230001A0000101B00001070B5002405E004F2F5
:105240000460002100F0EAFC641CB4F5C05FF6D3F2
:10525000002414E00020354901EB44110870334963
:1052600001EB44114870002506E000212F4800EBB7
:105270004410801C41556D1C1E2DF6D3641C802CDF
:10528000E8D3002414E00020294901EB4411087000
:10529000274901EB44114870002506E0002124480D
:1052A00000EB4410801C41556D1C1E2DF6D3641C70
:1052B000802CE8D3002414E000201E4901EB4411A7
:1052C00008701C4901EB44114870002506E00021DC
:1052D000184800EB4410801C41556D1C1E2DF6D360
:1052E000641C802CE8D3002414E00020124901EB58
:1052F00044110870104901EB44114870002506E084
:1053000000210D4800EB4410801C41556D1C1E2DE2
:10531000F6D3641C802CE8D30020084908700849A3
:105320000870084908700849087070BDE0C507207A
:10533000E0D50720E0E50720E0F507201800001081
:10534000190000101A0000101B00001070B505466F
:105350000026284601F046F80646002404E02846C8
:1053600001F028F8601C84B2B442F8DB70BD000084
:1053700070B504460D462948058000BF082C02DDA3
:105380004FF0FF3070BD00BFA100491C4FF4807288
:1053900002EBC1001021FFF765FC05E01F48008803
:1053A00010B96FF00C00EDE7A100491C4FF48072BA
:1053B00002EBC100FFF7F0FB0028EFD1A100491C70
:1053C0004FF4007202EBC1001F21FFF74BFC0120DC
:1053D000A040134909888143114801800120A04061
:1053E0001049098881430F48018000200E4921F8A7
:1053F00014000E49085505E00848008810B96FF000
:105400000C00BFE7A100491C4FF4407202EBC10041
:10541000FFF7C2FB0028EFD10120B3E71CC0072033
:1054200080C0072082C007209406082084C007207F
:1054300077B5034614461048007820B1012805D0FE
:10544000022809D105E003F5203205E003F54032DA
:1054500002E003F5603200BF00BF01AD002107E0AC
:10546000505C6E5CB04201D000207EBD481CC1B2D1
:10547000A142F5DB0120F8E70800001070B50246F4
:105480000C46FF25FF2309E012F8010B80EA030117
:105490000648405C80EA05030548455C201EA4F1EF
:1054A0000104F1D143EA052070BD000040A10000D5
:1054B00040A200002DE9FC4106460C4600250020D4
:1054C00000900190102E79D2DFE806F0080B1A1632
:1054D0001E2226323F5154585C5D616C04F014FD6D
:1054E0006FE01CB10094009808300190DDE90001E4
:1054F00004F085FCBDE8FC81208804F038FC60E005
:1055000004F054FC20805CE0208804F0EBFC58E0C0
:1055100004F061FC208054E0208801124FF4985080
:10552000FFF7A0FB21784FF4A050FFF79BFB48E06A
:105530004FF4A050FFF730FB07464FF49850FFF7A9
:105540002BFB07EB002020803BE01F488078207079
:105550001D48C07860701C480079A0701A484079D6
:10556000E0701948807920710020607129E004F012
:1055700066FD26E0204604F07CFD22E0204604F093
:1055800007FD1EE01DE0207804F09FFDB2E704F067
:1055900048FDC5B268B2401C10B94FF0FF30A9E712
:1055A00025700EE004F030FDC5B268B2401C18B999
:1055B0004FF0FF309EE701E0257002E04FF0FF3032
:1055C00098E700BF002095E78CC0072008480068D6
:1055D000C0010BD507480068C00707D005488038D0
:1055E0000068002802DA04490120087070470000B2
:1055F000FCED00E0800E00E0400000104FF0604243
:10560000D36F002BFCD0036BD367D36F002BFCD080
:10561000C07840EA0120A2F87C0070474FF060415A
:10562000CA6F002AFCD081F87C00704770B5044630
:105630000D463148058000BF082C02DD4FF0FF30D9
:1056400070BD00BF00BFA100491C002202EBC100D9
:10565000FFF7A2FA00F00F00012802D06FF004005B
:10566000EEE700BFA100491C4FF4807202EBC100BD
:105670000821FFF7F7FA05E01F48008810B96FF01E
:105680000C00DDE7A100491C4FF4807202EBC10061
:10569000FFF782FA0028EFD10120A04017490988BE
:1056A0008143164801800120A0401549098808401F
:1056B00008B10020C4E712E0A100491C4FF40072B9
:1056C00002EBC100FFF768FA00F0080038B14FF4B0
:1056D0007A712046FFF74CFE6FF00C00B0E7A10096
:1056E000491C4FF4407202EBC100FFF755FA002845
:1056F000E2D10120A4E700001CC0072082C00720DF
:1057000080C0072070B506460D465048864224D119
:105710004F48007880281FDA01204E494C4A127801
:1057200001EB421148704B484949097800EB4110A0
:10573000057048484649097800EB4110441C6570E3
:105740000120A07022462946304600F0EFFD404877
:105750000078401C3E49087076E03F48864224D1DC
:105760003E48007880286FDA01213D483B4A127894
:1057700000EB421041703A483849097800EB41107B
:10578000057037483549097800EB4110441C6570B5
:105790000120A07022462946304600F0C7FD2F4860
:1057A0000078401C2D4908704EE02E48864224D1D6
:1057B0002D480078802847DA01202C492A4A12789F
:1057C00001EB4211487029482749097800EB411044
:1057D000057026482449097800EB4110441C657087
:1057E0000120A070224629461B4800F09FFD1E485C
:1057F0000078401C1C49087026E01D48864223D1D1
:105800001C48007880281FDA01201B49194A1278A9
:1058100001EB4211487018481649097800EB411015
:10582000057015481349097800EB4110441C657058
:105830000120A07022462946074800F077FD0D4858
:105840000078401C0B49087070BD000000C000408B
:1058500018000010E0C5072000C009401900001022
:10586000E0D50720008009401A000010E0E507207D
:10587000000001401B000010E0F5072070B5054650
:105880000E461446234640F2D7723146284601F0B0
:10589000FCF870BDF8B505460E4614466420234654
:1058A00040F2D77231460090284601F099F8F8BDD1
:1058B00038B50546002400BF0FE06A462946264851
:1058C00000F0A8F820B129462348FFF71BFF022467
:1058D000601CC4B2052001F023F9022CEDDB00248A
:1058E0000FE06A4629461D4800F094F820B1294689
:1058F0001A48FFF707FF0224601CC4B2052001F01C
:105900000FF9022CEDDB00240FE06A46294614480B
:1059100000F080F820B129461148FFF7F3FE022479
:10592000601CC4B2052001F0FBF8022CEDDB002462
:105930000FE06A4629460B4800F06CF820B1294672
:105940000848FFF7DFFE0224601CC4B2052001F006
:10595000E7F8022CEDDB38BD00C0004000C0094074
:10596000008009400000014070B505460E4614460F
:1059700044B140F22F4340F2D6723146284601F03E
:1059800084F870BD002340F2D6723146284601F0FB
:105990007CF8F6E770B505460E46144623464FF4EC
:1059A000FC623146284601F070F870BDF8B5054636
:1059B0000E461446642023464FF4FC6231460090A4
:1059C000284601F00DF8F8BD70B505460E461446A0
:1059D00023464FF4FB623146284601F056F870BD6D
:1059E000F8B505460E461446642023464FF4FB6284
:1059F00031460090284600F0F3FFF8BD70B505462B
:105A00000E461446234640F2DD723146284601F028
:105A10003CF870BDF8B505460E4614466420234692
:105A200040F2DD7231460090284600F0D9FFF8BD03
:105A30002DE9F05F05203549087035484088354923
:105A4000488001255BE0012D09D1DFF8CC80334887
:105A500090F800A0DFF8C8B0DFF8B89022E0022D7F
:105A600009D1DFF8C080304890F800A0DFF8BCB062
:105A7000DFF8BC9016E0032D09D1DFF8B8802E487E
:105A800090F800A0DFF8B4B0DFF8B4900AE0042D7D
:105A900008D1DFF8B0802C4890F800A0DFF8ACB057
:105AA000DFF8AC90002626E008EB4610407801288D
:105AB00000D01EE008EB4610441C002715E060787B
:105AC00019F8271088420ED109EB87004088A08280
:105AD000A28A61785846FFF791FFA28A61785846FA
:105AE000FFF78CFF03E0781CC7B2052FE7DB00BF90
:105AF00000BF701CC6B25645D6DB681CC5B2042D6B
:105B0000A1DD002001490870BDE8F09F1C000010D5
:105B1000E005082030060820E0C507201800001026
:105B200000C00040E0D507201900001000C0094067
:105B300044060820E0E507201A0000100080094014
:105B400058060820E0F507201B0000100000014067
:105B50006C0608202DE9F04106460F461546012D3A
:105B600001D1012400E00024234640F2DA723946D4
:105B7000304600F08AFFBDE8F0817CB505460E4650
:105B80001446642001AB40F2DA7231460090284698
:105B900000F026FF08B900207CBDBDF804000128F4
:105BA00001D1207001E0002020700120F4E72DE9F0
:105BB000F04106460F461546802D01D1802404E0B1
:105BC000432D01D1432400E04124234640F2D97201
:105BD0003946304600F059FFBDE8F0817CB50546F6
:105BE0000E461446642001AB40F2D9723146009053
:105BF000284600F0F5FE08B900207CBDBDF8040081
:105C0000802801D1207007E0BDF80400432801D1AD
:105C1000207001E0412020700120EEE7014A11547C
:105C20007047000080000010002003E00021034ABC
:105C30001154401CB0F5205FF8D37047800000106D
:105C40002DE9FC5F81468A4615461E4600200190DC
:105C500051464846FAF760FB0446A4EB090081B2BE
:105C60000C98018024B35046FAF741FB0746E0192F
:105C70002946FAF751FB0090CDB1E1190098A0EB4D
:105C8000010808F1010000F075FE8346BBF1000F2A
:105C900009D0E11942463046FAF705FB002006F824
:105CA000080001200190584600F050FA00BF00BFE4
:105CB0000198BDE8FC9F000010B5012472B600F009
:105CC00033FC002002F072FC042225490020FFF77B
:105CD000AFFB18B1FFF736FA002830D14FF460302F
:105CE00000F06AFA022002F061FC04221C49002044
:105CF000FFF79EFB10B3FFF725FAF8B115E000207F
:105D000002F054FC002000F07FF8002002F04EFC6E
:105D100001F09EF948B1042211490020FFF788FBE9
:105D200018B1FFF70FFA00B100E0E8E700BF00206C
:105D300002F03CFC00F0F8FB012400E0002464B910
:105D4000FFF772FF002002F031FC002000F05CF849
:105D500000F0F2FD002000F057F862B610BD000020
:105D60000403020170B504460025002C31D0012C3B
:105D700002D0022C45D117E014210846FBF7C0F9E8
:105D800030B914210846FBF7A1F918B9012501E043
:105D9000002070BD14210846FBF76CF908B90125F5
:105DA00001E00020F5E72CE015210846FBF7A8F9F3
:105DB00028B915210846FBF789F900B901251521F5
:105DC0000846FBF757F908B9012501E00020E0E794
:105DD00017E013210846FBF793F930B91321084661
:105DE000FBF774F918B9012501E00020D1E7132170
:105DF0000846FBF73FF908B9012501E00020C8E794
:105E000000BF00BF2846C4E72DE9F041804600F0FE
:105E100025FB0746B8F1000F3DD0B8F1010F03D0C4
:105E2000B8F1020F36D11AE04FF44036002403E0F7
:105E3000305D32490855641CB4F5005FF8D32F4833
:105E40002F490860084600680068B0F5005F02D37B
:105E500004200968086001202A4908704BE04FF4CB
:105E60006036002403E0305D24490855641CB4F515
:105E7000005FF8D32148224908600846006800689E
:105E8000B0F5005F02D304200968086002201D49B4
:105E9000087030E000BFB7F5203F02D14FF4203545
:105EA00010E0B7F5283F02D14FF420350AE0B7F5EE
:105EB000303F02D14FF4283504E0B7F5383F01D127
:105EC0004FF43035002403E0285D0C490855641C6C
:105ED000B4F5005FF8D3094809490860084600682E
:105EE0000068B0F5005F02D3042009680860002054
:105EF0000449087000BF00BFBDE8F08180000010B9
:105F000004000010080000102DE9F05F4FF0000BB6
:105F100000F0BEF810B90020BDE8F09F00F09EFA36
:105F200006460021564880F8FC1F80F8FD1F80F8C7
:105F3000FE1F80F8FF1F41F6FA71A0F58050FFF7B1
:105F40009DFA8146DFF83CA1AAF800904E480078FF
:105F5000002862D0012802D002282ED12EE035463A
:105F6000002400BF16E0494800EB0408142108464D
:105F7000FBF7C6F840B94FF4805241462846FBF77C
:105F800089F818B10020C7E70020C5E705F580555E
:105F900004F58054B4F5005FE5D33746002407E0EC
:105FA000385D3A49095D884201D00020B4E7641C9D
:105FB000B4F5005FF4D34FF0010B5DE035460024EB
:105FC00000BF16E0314800EB040815210846FBF736
:105FD00097F840B94FF4805241462846FBF75AF8EB
:105FE00018B1002098E7002096E705F5805504F5E4
:105FF0008054B4F5005FE5D33746002407E0385DF0
:106000002249095D884201D0002085E7641CB4F56F
:10601000005FF4D34FF0010B2EE03546002400BFA3
:1060200016E01A4800EB040813210846FBF768F84D
:1060300040B94FF4805241462846FBF72BF818B17F
:10604000002069E7002067E705F5805504F58054D6
:10605000B4F5005FE5D33746002407E0385D0B490F
:10606000095D884201D0002056E7641CB4F5005F4A
:10607000F4D34FF0010B00BF00BF58464CE70000BF
:10608000801000107A20001008000010800000101E
:106090002DE9F0470021254880F8FC1F80F8FD1FFE
:1060A00080F8FE1F80F8FF1F41F6FA71A0F58050BE
:1060B000FFF7E4F98046DFF87890A9F80080022025
:1060C000FFF750FE10B90020BDE8F0874FF46035AF
:1060D000002400BF15E01748061915210846FBF7F4
:1060E0000FF840B94FF4805231462846FAF7D2FFF4
:1060F00018B10020E8E70020E6E705F5805504F533
:106100008054B4F5005FE6D34FF46037002407E015
:10611000385D0849095D884201D00020D4E7641C3D
:10612000B4F5005FF4D30120CEE70000801000102A
:106130007A2000108000001038B504468DF8000069
:1061400069460320ABBE204638BD000010B50028CC
:1061500021D0114B0022001F196803E0814203D8AF
:106160000A4649680029F9D152B11368841A9C4241
:1061700004D1006818441060104602E0506000E04E
:10618000186039B102680B1A934203D10B681A44A4
:1061900002604968416010BD4C00001010B572B635
:1061A00000F0C2F962B600F021F900F015F800F035
:1061B00017FA00F089F810BD10B501460A46002014
:1061C00003E0135C034C2354401CB0F5005FF8D38C
:1061D00010BD0000800000102DE9FF470020009056
:1061E00001900290039040F2046A002557E01DB927
:1061F0002D4EDFF8B8900EE0012D03D12C4EDFF8C4
:10620000B49008E0022D03D12B4EDFF8B09002E0ED
:106210002B4EDFF8B09000243DE00020009001906C
:10622000029003900C225146684600F005F90AF1ED
:106230000C0A9DF80000012803D09DF800000228F8
:1062400027D19DF8010006EB441108709DF800006D
:1062500006EB4411487006EB441000F102080027D9
:1062600006E0781C1DF8000008F80700781C87B2CB
:106270000B2FF6DB06EB44104078022804D006EB27
:1062800044104078012804D199F80000401C89F896
:106290000000601C84B2802CBFDB681C85B2042D1A
:1062A000A5DBBDE8FF870000E0C50720180000104F
:1062B000E0D5072019000010E0E507201A000010C3
:1062C000E0F507201B0000102DE9F04140F20446E4
:1062D00000241FE014B9DFF844800BE0012C02D148
:1062E000DFF83C8006E0022C02D1DFF8388001E0C4
:1062F000DFF83480002509E008EB850701223146EC
:10630000384600F099F8361D681C85B2052DF3DB80
:10631000601C84B2042CDDDBBDE8F081300608206F
:1063200044060820580608206C060820FEB50546DD
:106330000E461446002702AA31462846FFF74EFCB7
:1063400010B9FF20E07033E09DF80800E07001AA6A
:1063500031462846FFF711FC10B9FF20207227E0D4
:106360009DF8080020726A4631462846FFF792FAE7
:1063700010B9FF2060601BE0BDF8000060606A4655
:1063800031462846FFF72CFB10B9FF2060720FE062
:10639000BDF8000060726A4631462846FFF706FBEA
:1063A00010B9FF20A07203E0BDF80000A072012721
:1063B0003846FEBD00B502460023104600F0CAF97B
:1063C00070B911891068435C1089401C10811089D4
:1063D0009188884201DB002010815089401E508145
:1063E000184600BD014648897047000010B50424D6
:1063F000042221460F4800F01FF8241D04222146E4
:106400000C48083800F018F8241D042221460948D9
:10641000001F00F011F8241D02222146054810300B
:1064200000F00AF8A41C022221460248143000F0B1
:1064300003F810BD882800102DE9F04105460E46EE
:106440001746002405E03019FDF786FD2855601C2D
:1064500084B2BC42F7DBBDE8F08100002DE9F041D9
:106460000025002700262E48007820B1012805D0FD
:10647000022809D105E04FF4203605E04FF44036FC
:1064800002E04FF4603600BF00BF2648066047F6C2
:10649000FF743FE023480068005DFF2839D02148A1
:1064A0000068005D80BB601E1E490968085CFF280B
:1064B0002FD0601E1B490968085C28BBA01E194923
:1064C0000968085CFF2824D0A01E16490968085CEA
:1064D000D0B9E01E13490968085CFF2819D0E01EF6
:1064E00010490968085C78B9650B6D1C4FF40040D1
:1064F000B0EB453F09D80A480078FFF733FC18B1E4
:1065000037463846BDE8F08103E006EB45373846AC
:10651000F8E7641E002CBDD137463846F2E700008C
:10652000080000101000001010B500F005F8044637
:106530002046FFF741FE10BD30B5002300200022A9
:10654000254C247824B1012C05D0022C09D105E07A
:106550004FF4203205E04FF4403202E04FF4603255
:1065600000BF00BF1D4C226047F6FF712EE01B4CA0
:106570002468645CFF2C28D0184C2468645C24BB1D
:106580004C1E164D2D682C5DFF2C1ED04C1E134D3D
:106590002D682C5DCCB98C1E104D2D682C5DFF2C08
:1065A00013D08C1E0D4D2D682C5D74B9CC1E0B4D77
:1065B0002D682C5DFF2C08D0CC1E084D2D682C5D5D
:1065C0001CB94B0B02EB433030BD491E0029CED124
:1065D000104600BFF8E70000080000100C00001093
:1065E0002DE9F0414FF4017600241FE014B9DFF8E3
:1065F00044800BE0012C02D1DFF83C8006E0022C45
:1066000002D1DFF8388001E0DFF83480002509E0AE
:1066100008EB8507042231463846FFF70DFF361D8B
:10662000681C85B2052DF3DB601C84B2042CDDDB15
:10663000BDE8F081E0050820F405082008060820E0
:106640001C06082070B504460025002600BFA100E6
:10665000491C4FF4185202EBC100FEF79DFA0646A2
:10666000A100491C4FF4185202EBC10101F58070E2
:10667000FEF792FA00EB062086B2AEB1A100491CEB
:106680004FF4185202EBC100FEF786FA0546A1004E
:10669000491C4FF4185202EBC10101F58070FEF75E
:1066A0007BFA00EB052085B2B542D0D1284670BDFB
:1066B00070B504460025002600BFA100491C4FF418
:1066C000005202EBC100FEF767FA0646A100491C22
:1066D0004FF4005202EBC10101F58070FEF75CFA45
:1066E00000EB062086B2AEB1A100491C4FF4005267
:1066F00002EBC100FEF750FA0546A100491C4FF419
:10670000005202EBC10101F58070FEF745FA00EB83
:10671000052085B2B542D0D1284670BD70B504467B
:106720000D4629462046014A904770BDF11FFF1FC4
:1067300010B5034800F076FA0249086010BD000069
:106740003CA1000000C00720818000220281C2809D
:10675000428170470146488908B9012070470020EE
:10676000FCE700B502461046FFF73CFE91888842E0
:1067700001DB012000BD0020FCE70EB5802200B146
:1067800009B110460AE001780129FAD101A900F007
:1067900045F8042801D0002000E01020DDE90112B6
:1067A00003B000BD70B50D46040003D012B92078C7
:1067B000012801D0802070BD204601F0E5F928B104
:1067C0002946204600F055F8002070BD812070BD9C
:1067D00070B50C4601F048FD4FF0004108B1220CA5
:1067E00001D0084670BD058BC178A0B200F002F858
:1067F000284670BD0A460146074810B500EB8200E6
:1068000050F8040C002805D001F066FBBDE81040EC
:1068100001F052BB10BD00001430082010B5044632
:106820008089002824D0608904EB8000006908601A
:10683000606840B16078022805D10021204601F04F
:106840004BFB01F039FB04F10C0000BFD0E85F1FE7
:10685000491E8AB2C0E8512F0029F7D16089401C37
:1068600080B26081E189884201D1002060810420EA
:1068700010BD10B501F030FBBDE8104001F01CBBAD
:1068800070B504460D462B48058000BF082C02DD7C
:106890004FF0FF3070BD00BF00BFA100491C0022B7
:1068A00002EBC100FEF778F900F00F00012802D0DA
:1068B0006FF00400EEE700BF00BFA100491C4FF4D9
:1068C000407202EBC100FEF767F9132802D06FF0A7
:1068D0000200DFE700BFA100491C4FF4807202EB09
:1068E000C1000221FEF7BEF905E01248008810B988
:1068F0006FF00C00CEE7A100491C4FF4807202EB50
:10690000C100FEF749F90028EFD107E04FF47A7192
:106910002046FEF72DFD6FF00300BBE7A100491CE8
:106920004FF4407202EBC100FEF736F91428EDD1A6
:106930000120AFE71CC0072010B5FFF775F9064826
:10694000FBF748F9FAF758FFFAF718FFFEF774FC5F
:10695000FDF769FD10BD00008028001000BF0F206A
:10696000FAF7A8FA00BFFEF728FB00BF00F0E0F935
:10697000FCE70000F0B50B30154D20F007010024B6
:10698000144A0FE003688B420BD38B4205D95E1A81
:1069900043184768C3E9006700E04368136002C01A
:1069A00004E0021D10680028ECD12046002802D126
:1069B000286808B10020F0BD064A07481060074A61
:1069C000121A22F00702C0E9002401202860D7E74C
:1069D000D4C007204C0000105472001050720010F8
:1069E0002DE9F04389B080460E4615461F46DDF876
:1069F00040908DF8186003208DF81900681E84B24D
:106A000020128DF81A00681E84B2E0B28DF81B00C7
:106A100000208DF81C0001208DF81D00062106A81D
:106A2000FEF72CFD0446E0B28DF81E0020128DF812
:106A30001F00072003AB082206A9CDE90009404644
:106A400000F0FEFCE8B19DF812404FF6FF7000EA3E
:106A500004249DF811000443052103A8FEF70EFD50
:106A6000A04203D0002009B0BDE8F0839DF80F409C
:106A70004FF6FF7000EA04249DF8100004433C80A8
:106A800001E00020EFE70120EDE72DE9F04188B0BB
:106A900080460F4615461E468DF8147006208DF868
:106AA0001500681E84B220128DF81600681E84B28C
:106AB000E0B28DF8170030128DF81800F0B28DF8A2
:106AC0001900062105A8FEF7D9FC0446E0B28DF8AE
:106AD0001A0020128DF81B004FF4FA60082102AB57
:106AE0000A46CDE9001005A9404600F0A9FC90B186
:106AF0009DF80F404FF6FF7000EA04249DF80E0049
:106B00000443062102A8FEF7B9FCA04205D00020EC
:106B100008B0BDE8F0810020FAE70120F8E70000A6
:106B2000EFF3058109B182207047DFF808C000DF6C
:106B300070470000A9930000EFF3058008B18220A0
:106B40007047EFF31480C00703D0DFF80CC000DFFC
:106B5000704702F033BC0000BD93000088B0EFF333
:106B6000058010B1822008B07047EFF3148010F058
:106B70000301134806D001291BD0022911D0032993
:106B800019D113E008A981F309880078C0070BD058
:106B90005FF0020080F31488BFF34F8FBFF36F8F55
:106BA00009E00078C00706D10320F3E70078C007AA
:106BB00001D0FF20D7E7DFF80CC000DFD3E70000EB
:106BC000B8A300002D940000EFF305820AB1002065
:106BD0007047EFF31482D20702D1044A52781AB1F7
:106BE000DFF80CC000DF704702F044BCC0C00720D3
:106BF00075940000EFF305820AB1FFF7BEBDDFF820
:106C000008C000DF7047000099940000EFF305838F
:106C10000BB1FFF7C7BDDFF808C000DF7047000009
:106C2000D3940000EFF3058109B100207047EFF322
:106C30001481C90702D10449497819B1DFF80CC0A1
:106C400000DF704702F060BCC0C00720099500005B
:106C5000EFF3058139B9EFF31481C90703D0DFF8E9
:106C60000CC000DF704702F06DBD000045970000CA
:106C7000EFF3058109B100207047EFF31481C907D4
:106C800002D10449497819B1DFF80CC000DF704720
:106C900002F048BCC0C0072025950000EFF3058234
:106CA0003AB9EFF31482D20703D0DFF80CC000DF4B
:106CB000704702F04CBD00004F970000EFF30582D3
:106CC0000AB1FFF785BDDFF808C000DF704700009C
:106CD0004D950000EFF305830BB182207047DFF87C
:106CE00008C000DF7047000071950000EFF30582D7
:106CF0000AB100207047EFF31482D20702D1044A90
:106D000052781AB1DFF80CC000DF704702F05ABCAD
:106D1000C0C00720C5950000DFF80CC000DFDFF819
:106D20000CC000DFFEE70000319600004D96000029
:106D3000EFF3058008B182207047DFF808C000DF5C
:106D40007047000085960000DFF804C000DF704740
:106D50008F960000EFF305830BB100207047EFF32F
:106D60001483DB0702D1044B5B781BB1DFF80CC046
:106D700000DF704702F098BCC0C00720A996000051
:106D8000EFF305820AB182207047DFF808C000DF08
:106D900070470000E1960000094C4FF0FF3529468E
:106DA0002068FFF727FF02460846102AF7D1FFF7B1
:106DB000CBFF0028F3D0024608469047EFE70000DB
:106DC00028000010012806D0022805D0032804D08E
:106DD000042804D102E003E002E001E000E000BF8B
:106DE00000BF00BFFEE700BFFEE7000007480168E4
:106DF0004FF0E020416100218161072101610448D9
:106E0000016841F07F41016040177047B4A3000062
:106E100020ED00E0704700002DE9FE4305460F46D7
:106E200014460020029000908046012D01D11C4E96
:106E30000AE0022D01D11B4E06E0032D01D11A4EAE
:106E400002E0042D00D1194E01AA3946304602F065
:106E50007BF900B39DF80400A0712820FFF760FEC5
:106E600002AA3946304602F041F988B1BDF808005F
:106E700020812820FFF754FE6A463946304601F04B
:106E80001FFF50B19DF8000020754FF0010804E08D
:106E9000FF20208101E0FF20A0714046BDE8FE8375
:106EA00000C0004000C009400080094000000140CF
:106EB0002DE9F0470446894616461F464FF0000864
:106EC00000254A48078000BF082C02DD681EBDE887
:106ED000F08700BF00BFA100491C002202EBC100E7
:106EE000FDF75AFE00F00F00012802D06FF00400F9
:106EF000EDE700BF00BF16B96FF00D00E7E700BF78
:106F0000A100491C4FF4F05202EBC100FDF744FE12
:106F10004FF6FF7101EA8025B54200DA2E463EE0C9
:106F20002046FFF78FFB0546A100491C4FF4407235
:106F300002EBC100FDF730FE8046B8F1170F23D0F9
:106F4000B8F11C0F18D105B12AE02046FFF7B0FBBD
:106F50008246A100491C4FF4F85202EBC100FDF734
:106F60001BFEBAEB802F0FD14FF47A712046FEF74B
:106F7000FFF96FF00600AAE74FF47A712046FEF79A
:106F8000F7F96FF00600A2E70120A0401849098830
:106F9000084010B10DB9002099E705B100E0BFE746
:106FA00000BFB54200DA2E4632464946204602F07E
:106FB000B1FCA100491C4FF4807202EBC1004021DA
:106FC000FDF750FE05E00948008810B96FF00C008D
:106FD0007DE7A100491C4FF4807202EBC100FDF770
:106FE000DBFD0028EFD1304671E700001CC0072010
:106FF00080C0072000B131B9054A064B1A61064B23
:10700000044A536102E0034A106151617047000075
:10701000959D00008CC00720939D000000BF094A89
:10702000128802F40072002AF9D000B131B9064A80
:10703000044B9A61054B034AD36102E0014A906117
:10704000D16170478CC00720039F0000079F00009C
:107050002DE9F04125480078FEF784FE10B90020A4
:10706000BDE8F0812148007800283DD1022001F0E0
:107070009DFA4FF46030FFF79FF84FF4203500245D
:1070800000BF15E01A48061913210846FAF738F828
:1070900040B94FF4805231462846F9F7FBFF18B14A
:1070A0000020DDE70020DBE705F5805504F580547E
:1070B000B4F5005FE6D34FF42037002407E0385DD5
:1070C0000B49095D884201D00020C9E7641CB4F572
:1070D000005FF4D3002001F069FAFFF72DFA804633
:1070E000FFF76AF80120BBE70020B9E708000010AD
:1070F0008000001010B580230122074901F217100B
:10710000FDF72BF8802301220349803101F1830030
:10711000FDF723F810BD000001C1072070B504463B
:107120000D46A148844249D10123032200219F48F2
:10713000FAF735F80123022200219C48FAF72FF8CC
:107140000023192201219948FAF729F8204600F076
:1071500043F9192201219648F9F755FF204600F01E
:107160003BF92046FAF75AFA29462046FAF7C4FABC
:107170001F212046FAF7F4F92046FAF7E6FA07212C
:107180002046FAF7DDFA802301228A4901F217101E
:10719000FCF7E3FF802301228649803101F183005F
:1071A000FCF7DBFF05212046FAF760FA01210520F4
:1071B000FDF7F4FD0520FDF7E3FDE5E07E488442A0
:1071C00049D10223012200217848F9F7E8FF0A2378
:1071D000002211467548F9F7E2FF00231D22012124
:1071E0007248F9F7DCFF204600F0F6F81D22012175
:1071F0006F48F9F708FF204600F0EEF82046FAF74E
:107200000DFA29462046FAF777FA1F212046FAF7A9
:10721000A7F92046FAF799FA07212046FAF790FADB
:1072200080230122654901F21710FCF796FF8023A5
:1072300001226249803101F18300FCF78EFF0521B4
:107240002046FAF713FA01210820FDF7A7FD0820D0
:10725000FDF796FD98E05A48844249D101230B225C
:1072600000215248F9F79BFF09230A2200214F48C9
:10727000F9F795FF00230D2202214C48F9F78FFF03
:10728000204600F0A9F80D2202214948F9F7BBFE7B
:10729000204600F0A1F82046FAF7C0F9294620461A
:1072A000FAF72AFA1F212046FAF75AF92046FAF788
:1072B0004CFA07212046FAF743FA8023012241497C
:1072C00001F21710FCF749FF802301223D4980316C
:1072D00001F18300FCF741FF05212046FAF7C6F9CA
:1072E00001210720FDF75AFD0720FDF749FD4BE07E
:1072F0003548844248D10223012219462B48F9F728
:107300004EFF0A23002202212848F9F748FF0023F4
:10731000022211462548F9F742FF204600F05CF8AA
:10732000022211462248F9F76EFE204600F054F87A
:107330002046FAF773F929462046FAF7DDF91F21AE
:107340002046FAF70DF92046FAF7FFF90721204603
:10735000FAF7F6F9802301221C4901F21710FCF715
:10736000FCFE802301221949803101F18300FCF7E2
:10737000F4FE05212046FAF779F901210620FDF7F0
:107380000DFD0620FDF7FCFC1148006858B90022ED
:1073900001211048FFF7DEFC0D4908600A210C4866
:1073A0000068FFF7EDFC70BD00C0004000C0024067
:1073B00000C0092001C1072000C009403DC20720CC
:1073C0000080094079C3072000000140B5C40720B0
:1073D00008C0072040A3000010B5044613488442AB
:1073E00006D10023192201211148F9F717FE1CE0EC
:1073F0001048844206D100231D2201210C48F9F7D0
:107400000DFE12E00C48844206D100230D22022119
:107410000748F9F703FE08E00848844205D1002335
:10742000022211460248F9F7F9FD10BD00C00040E4
:1074300000C0092000C00940008009400000014050
:107440002DE9F84304460E4617469846DDE90895AF
:10745000002000907548844238D164207449088027
:1074600006E000BF7248008810B90020BDE8F8832C
:1074700069467048FCF705FF0128F2D06B4800F020
:10748000E7F83B4632466B4914316848FAF70CF985
:10749000642268491431654800F048F920B963480E
:1074A000FFF79AFF0020E1E76048FFF795FFA9B2D8
:1074B0004A46604800F012F908B90020D6E74A466B
:1074C00041465C48FCF7F8FE0120CFE75A48844269
:1074D00036D164205649088004E05548008808B930
:1074E0000020C3E769465548FCF7CBFE0128F4D0DD
:1074F000514800F0ADF83B463246504914314E48F1
:10750000FAF7D2F864224D4914314B4800F00EF9D5
:1075100020B94948FFF760FF0020A7E74648FFF77A
:107520005BFFA9B24A46454800F0D8F808B90020E8
:107530009CE74A4641464148FCF7BEFE012095E7DC
:107540003F48844236D164203949088004E03848F5
:10755000008808B9002089E769463A48FCF791FE9F
:107560000128F4D0364800F073F83B4632463549DE
:1075700014313348FAF798F864223249143130480C
:1075800000F0D4F820B92E48FFF726FF00206DE761
:107590002B48FFF721FFA9B24A462A4800F09EF87F
:1075A00008B9002062E74A4641462648FCF784FEB7
:1075B00001205BE72448844236D164201C490880BE
:1075C00004E01B48008808B900204FE769461F48BF
:1075D000FCF757FE0128F4D01B4800F039F83B4671
:1075E00032461A4914311848FAF75EF864221749EE
:1075F0001431154800F09AF820B91348FFF7ECFE53
:10760000002033E71048FFF7E7FEA9B24A460F48CB
:1076100000F064F808B9002028E74A4641460B48C4
:10762000FCF74AFE012021E700201FE700C00040D0
:1076300004C0072004C2072000C0094040C307203F
:10764000008009407CC4072000000140B8C5072025
:1076500070B5044600251C48844206D10123192236
:1076600019461A48F9F7DAFC1CE01948844206D199
:1076700001231D2219461548F9F7D0FC12E01548E0
:10768000844206D101230D2202211048F9F7C6FCDD
:1076900008E01148844205D10123022211460B481B
:1076A000F9F7BCFC00250AE000BF00BF00BF00BF27
:1076B00000BF00BF00BF00BF00BF00BF6D1CB5F51D
:1076C0007A7FF1D370BD000000C0004000C00920E7
:1076D00000C009400080094000000140F8B50446A0
:1076E0000D4616461048058007E000BFE068216996
:1076F000401AB04201DB0120F8BD0B480088002889
:10770000F3D164200849088005E000BF06480088DE
:1077100008B90020F0E769462046FCF7B2FD0128D1
:10772000F3D00020E8E7000004C0072010B50346AE
:107730000C4802800FE000BFC8680C69A04201D16C
:10774000012000E0002030B100BF586900F0400087
:1077500008B1012010BD034800880028EBDC0020A0
:10776000F8E7000004C0072050E8001F31B10B68A3
:1077700040E80032002AF7D108467047BFF32F8F48
:10778000FAE710B568B161B10B3121F0030201686D
:1077900044680B1A1B1B934205D20846096800294E
:1077A000F5D1002010BD210007D021180368C1E9E0
:1077B0000032016001F1080010BD4260083010BDC8
:1077C00070B50D46002812D04FF6FF71084C884264
:1077D00004D222680146104600F0ACFB20684570D8
:1077E000044800F029F9BDE8704000F067BC70BDA6
:1077F000340000101C7200100F4810B50D4942688B
:107800000E480B680068934204D00A60CB88421E81
:107810001A448A808A8880B282420AD10020086095
:10782000054800F009F90146BDE81040024800F0A3
:10783000A5BB10BD440000101C7200103C000010DD
:1078400070B5194DE86800282CD0A88A401EA8827F
:10785000002621E0A06838B161684160606810B11D
:10786000A16881606660A6600F482146183800F064
:1078700085FBA08AA8826078042804D10B49E08A9D
:1078800009880844A08201206070E068E860E06830
:1078900008B10561E6602661A88A002802D1EC687B
:1078A000002CD7D170BD0000347200103C000010D5
:1078B00070B504000FD00D4DA1780126286882789C
:1078C00091420CD900F076FB286846702046BDE84E
:1078D000704000F0F3BB064800F0AEF8F7E76670C2
:1078E0002146BDE87040024800F048BB340000105B
:1078F0001C7200100321FFF763BF000010B504469F
:10790000008B084320836278618B062A18D0052AF1
:1079100019D1084217D001EA00026283884320830C
:10792000204600F072FB01206070628B0821204627
:1079300000F067FB2146BDE81040034800F01EBB85
:1079400031EA0002EAD010BD1C7200100246154850
:1079500010B500EB810050F8044C002C21D0208B96
:10796000104320836278618B062A17D0052A18D12C
:10797000084216D001EA0002628388432083204631
:1079800000F043FB01206070628B0821204600F06C
:1079900038FB2046BDE81040FFF78ABF31EA0002FD
:1079A000EBD010BD1430082070B503460C480D46CE
:1079B0000468208B42B133EA000101D0062109E0BE
:1079C00098432083022070BD10EA030101D0618337
:1079D000F6E7052163832846FFF7F2FE012070BD1C
:1079E00034000010814202D342688A4201D801204B
:1079F000704702680A60BFF35F8F50E8003F0A6873
:107A00009A42F6D140E80012002AF2D100207047D5
:107A100068B161B10022083902E00246006830B165
:107A20008842FAD12AB10068106000207047012016
:107A3000704700214160F8E70146406842684A60AB
:107A40000B780022022B05D0012B03D0032B01D091
:107A50004260704743680BB1996042608260704732
:107A60000649074B48681B6882789B789A4202D186
:107A700042684A6070470020704700001C72001086
:107A800034000010810700D00020704770B5044614
:107A900000201546207001226270A17084F8241025
:107AA0006060A060E06020612062A082E0822083AC
:107AB000608384F82500E08C18B90548FFF754FE70
:107AC000E06229462046BDE8704000F01DB8000085
:107AD000F007082008B1082901D2012070470144AD
:107AE000091F002201600A604260104670470000D2
:107AF00003480021016003490988C18070470000E4
:107B000044000010A8A3000070B5C28C1C4D93085F
:107B100002D12A88C2F38D03C26A02EB83025407A2
:107B200000D5121F4FF0807442E90214002426464B
:107B3000B2F1400242F82460641C0E2CFAD3C469EE
:107B40001462826201632968C90014D5112B12D90D
:107B50004FF0FF31103B11EB53014FF0CC3305D008
:107B600042F8043C42F8083D491EF9D1C16A121F8F
:107B70008A4200D91360C06A0249016070BD0000EA
:107B8000A4A30000A52E5AE2C1898089081A704773
:107B900001220270002242708270426002814281A2
:107BA000103982818908C181704700002DE9F041B8
:107BB000044640680E464FF0000804F10C05E8B397
:107BC0006078012701283ED0022813D003285CD119
:107BD0000846FFF7C9FD050057D02046FFF72CFFE8
:107BE0000446294600F00AFA6770204600F00DFAB4
:107BF000214621E02046FFF71FFF0646002100F046
:107C0000FDF92189F06904EB81010861D5E85F0F76
:107C1000401C81B2C5E8501F0028F7D12089401CC4
:107C200080B22081E189884201D1A4F80880777070
:107C3000304600F0EAF93146174800E00CE0BDE8B4
:107C4000F04100F09BB92046FFF7F6FE04463246AD
:107C5000102100F0D6F9C7E7A089E189884216D241
:107C6000208904EB80000661D5E85F0F401C81B2DB
:107C7000C5E8501F0028F7D12089401C80B2208120
:107C8000E189884201D1A4F80880BDE8F081BDE80F
:107C9000F0410320FFF796B81C72001070B516462D
:107CA00042680D4612B1417801290BD08189C489FF
:107CB0000023A14224D19EB11D4C216892B100F055
:107CC0005DF916E0FFF7B8FE04462A46102100F0E1
:107CD00098F9204600F099F92046FFF7E9FD25E0E4
:107CE000012070BD416021684B60216888600221DD
:107CF000417020680821C5613046FFF761FDEFE75C
:107D0000018900EB81010D6100F10C01D1E85F2FC9
:107D1000521C94B2C1E8524F002AF7D10189491C84
:107D200089B20181C289914200D10381002070BDD6
:107D30003400001070B50446808915460026C0B393
:107D4000608904EB8000006908606089401C80B293
:107D50006081E189884200D16681606810B16078F5
:107D600002280BD014F10C04D4E85F0F401E81B23E
:107D7000C4E8501F0028F7D1002070BD2046FFF74F
:107D80005BFE0546002100F039F92189E86904EB22
:107D9000810108612089401C80B22081E1898842EC
:107DA00000D12681284600F030F92846FFF780FDF3
:107DB000E2E7FFE73DB10B48626801682AB120465F
:107DC00000F0DCF808E0012070BD616001684E60E1
:107DD000006884600120607008212846FFF7F0FCED
:107DE000F1E7000034000010002814D0411C13D02B
:107DF0000C4A4FF6FE7190420CD800EB4002C2EBE9
:107E0000C0120948036803EBC202521EB2FBF3F032
:107E1000884204D9084670474FF6FF70704780B219
:107E20007047000000093D00C4A300000321017059
:107E30000021418041608160C160704770B51B487E
:107E4000012102685170006800F0B4F8184D6C7898
:107E500018E000BF05EBC40148680278EAB1012AC6
:107E600020D000F0FFF8E878641C844200D10024A0
:107E70000F48801CD0E84F1F491EC9B2C0E8421FFE
:107E8000002AF7D1A8780028E4D16C700948FFF7E0
:107E9000D3FDBDE8704000F011B9098989B2FFF740
:107EA0002DFDE0E78968FFF781FEDCE73400001074
:107EB000902F08201C7200100548017811B1012193
:107EC0004170704703494FF08050086070470000D0
:107ED000C8C0072004ED00E0F0B4154DAB1CEE78EF
:107EE0004FEA0507D3E84F2FB24202D1BFF32F8FDD
:107EF00011E0521CD4B2C3E8424F002AF2D100BFB5
:107F0000D7E84F2F541CB44200D10024E4B2C7E894
:107F1000434F002BF4D1EB78934205D905EBC20215
:107F2000C2E90101F0BC7047F0BC0220FEF74ABF75
:107F3000902F0820104A10B5D368ABB113469B8A26
:107F400003E08CB12246A48A2344D4688B42F8D340
:107F5000C460D0600261C46804B12061591A818292
:107F6000908A401A908210BD0024C460D060C91A63
:107F700002619182848210BD3472001030B50278A3
:107F80000023022A03D0012A01D0032A00D10123B1
:107F90008C7800E01046426812B19578A542F9D27B
:107FA0004A6041601BB102B19160886030BD002021
:107FB000FBE7000003494A68426000228260486093
:107FC000704700001C72001010B5836804462BB97E
:107FD000607801280ED1084B03E09B6818780028D0
:107FE000FBD0204600F026F82146BDE81040184698
:107FF000FFF7C4BF10BD00001C720010806A016250
:108000007047806AC0E90812704710B501690029FD
:108010000ED0C268CA60C36800223BB18B8A848AD2
:1080200023448B82C3681961C26000E08A820261C6
:1080300010BD0000816839B142684A60416800297A
:1080400001D0806888607047054906E04A6882422E
:1080500002D140684860704711460029F6D1704748
:108060001C72001010B5416881B1FFF7E5FC0446B1
:10807000FFF7CBFF0120607001462046FFF7BEFFEF
:108080002146BDE810400348FFF778BF4188491CEE
:10809000418010BD1C72001006480068D0E90A102B
:1080A000814203D300680449884202D00120FEF7D0
:1080B00089BE704734000010A52E5AE207490222FB
:1080C00048604270064A1278002A05D006C98A42E2
:1080D00002D0C078FDF7A2BA70470000340000104B
:1080E0004000001070B5FDF771FA00200446204AE8
:1080F000204902E042F82040401C0B889842F9D306
:108100001D48342201881D48FCF76BFE1C4800887E
:1081100080B240F000421B4801681B48FCF761FE3A
:108120001A48082201881A480068FCF75AFE194DBF
:10813000FF20194AE870EC8400212846FFF7A6FCCE
:10814000164804210170446015480170C460046140
:108150008482144815490560022068701248047032
:1081600044700978C170BDE87040FFF7C1BC0000E1
:1081700014300820A0A30000CCA30000A80608200B
:10818000A4A30000D0A30000F0070820F4A300007F
:1081900030000010E8710010E76D00001C72001044
:1081A0003472001034000010902F0820D8A3000073
:1081B0001B4810B5016841F47F01016000684FF071
:1081C0007F4101EA00201649C0431439B0FA80F01B
:1081D0000968C0F10800C1F30221814200D3481CA4
:1081E0000F49091F0B686FF08072824063F317021A
:1081F0000A60FEF7FBFD0B49002808600EDB00F16A
:10820000E021FF2281F8002400F01F0201219140AB
:108210004009800000F1E020C0F8001110BD00000E
:1082200020ED00E0CCC007200C4810B50268012109
:1082300051700068FFF7BEFEFFF7DEFA08480168DC
:10824000491C0160FFF7FCFA01F08CFA0548FFF7C2
:10825000F3FBBDE81040FFF731BF00003400001011
:108260003C0000101C720010002805D0810702D1CC
:108270000178002900D000207047000030B50B4C79
:108280000023626805E095688D4204D813461268A1
:10829000491B002AF7D10260816012B19568691A02
:1082A00091600BB1186030BD606030BDC0C0072068
:1082B0000D4B0022596803E0814204D00A46096848
:1082C0000029F9D104E019B1016822B1116003E07D
:1082D0004FF0FF3070475960016819B18A688068B3
:1082E0001044886000207047C0C007202DE9F0418D
:1082F0001E46174680460D4611F0FF0F00D14D1C5B
:108300001848FFF731FA041E16D0280AE762E08405
:10831000E9B242462046E661FFF7B8FB0125124864
:10832000124905E000EB850252F8042C32B16D1CB5
:108330000A889542F6D90020BDE8F081002DFAD0D8
:1083400000EB850040F8044C0948E570007818B14E
:1083500001212046FDF752F92046FFF7A9FA2846E9
:10836000EAE70000A806082014300820A0A30000B7
:10837000400000102DE9F05F584DDFF85891DFF80C
:10838000588129684FF0010A002618B1CA78AB4617
:10839000824243D14E70F7F7AEFE29688862FFF73C
:1083A0007BFE2868046A1FE06068C0B12046FFF7C2
:1083B00043FB07460021FFF721FE3846FFF725FE65
:1083C00087F801A039464648FFF7D8FDE168A4F8D0
:1083D00002A0A760386AE0603C620C4604E0E068F6
:1083E0006680A660E6600446002CDDD12868C2786D
:1083F00008EB820141F8046CC16A3A48FFF7F2FACF
:108400002868C66299F8001011B10021FDF7F6F84E
:1084100035482968FFF7E6FA2E6056E033490988A7
:1084200088420CD808EB800858F8045C3DB1284617
:10843000FFF700FE2846FFF7E8FD2C6A22E0FF2048
:10844000BDE8F09F6068C0B12046FFF7F5FA074627
:108450000021FFF7D3FD3846FFF7D7FD87F801A0CD
:1084600039461F48FFF78AFDE168A4F802A0A7601B
:10847000386AE0603C620C4604E0E0686680A66012
:10848000E6600446002CDDD148F8046C1548E96A22
:10849000FFF7A8FAEE6299F8000018B1002128460B
:1084A000FDF7ACF829461048FFF79CFA0C48DBF8BA
:1084B000001040688B7882789A4209D981F801A02F
:1084C0000748DBF80010FFF759FD0020FFF7F0F92F
:1084D0000020B5E7400000101430082034000010E0
:1084E0001C720010F0070820A8060820A0A30000B6
:1084F00070B5FFF7B5FA04000CD0074D074829689E
:10850000FFF73CFD2968012048702046BDE8704017
:10851000FFF7D4BD70BD0000340000101C720010C5
:1085200070B51A4D80B11A4A128890421FD8194A64
:1085300002EB800050F8044CCCB1A17084F82410F8
:108540002868A04205D014E028688170286880F867
:108550002410114840688078884215D90E4829684F
:10856000FFF70CFD29680120487000200AE0FF2079
:1085700070BD2046FFF728FD6078012804D1064829
:10858000FFF75AFAFFF794F9002070BD340000108D
:10859000A0A30000143008201C72001002480068DC
:1085A000002800D0C07870473400001018B10221B4
:1085B000034A117002E00021014A11707047000067
:1085C000080000102DE9FF4F85B004461546994676
:1085D000002600200090D348A0F8009000BF082C8F
:1085E00003DD701E09B0BDE8F08F00BF00BFA10021
:1085F000491C002202EBC100FCF7CEFA00F00F008C
:10860000012802D06FF00400ECE700BF00BF15B9ED
:108610006FF00D00E6E700BFA100491C4FF4407267
:1086200002EBC100FCF7B8FA0646172E04D01C2E48
:1086300002D06FF00600D5E70120A040BA490988B2
:10864000084050B3A100491C4FF4007202EBC10076
:10865000FCF7A2FA00F01F0606F0100080B1A1009E
:10866000491C4FF4007202EBC1001021FCF7FAFA2A
:108670000120A040AC4909888143AB4801800CE04F
:1086800006F0080038B14FF47A712046FCF770FE0E
:108690006FF00C00A6E70020A4E7A100491C4FF4EE
:1086A000F85202EBC100FCF777FA4FF6FF7101EACE
:1086B0008027BD4200DD3D4631E04FF0000A2046F4
:1086C000FDF7F6FF074600BFA100491C4FF44072BA
:1086D00002EBC100FCF760FA0646172E11D01C2EE3
:1086E0000FD00AF1010000F0FF0ABAF1050F00DA1D
:1086F000EAE74FF47A712046FCF73AFE6FF0060085
:1087000070E70120A04089490988084018B1BD429E
:1087100001DD002066E7BD4200DC01E000BFCCE7E0
:1087200000BF002D6FD0A100491C4FF4105202EB86
:10873000C10101F58070FCF72FFA8246A100491CA7
:108740004FF4105202EBC100FCF726FA0AEB0020AE
:1087500080B20390A100491C4FF4105202EBC101FA
:1087600001F58070FCF718FA8246A100491C4FF40D
:10877000105202EBC100FCF70FFA0AEB002081B2A5
:108780000291A100491C4FF4105202EBC10101F506
:108790008070FCF701FA8246A100491C4FF4105288
:1087A00002EBC100FCF7F8F90AEB002080B201905F
:1087B000A100491C4FF4105202EBC10101F5807079
:1087C000FCF7EAF98246A100491C4FF4105202EB73
:1087D000C100FCF7E1F90AEB00201FFA80F8DDE99F
:1087E0000210884201D0012100E00021019881425D
:1087F00001D0012000E00020404500D000BF08EB80
:1088000005001FFA80F82A462046069901F0C4F8B0
:108810004FF0000AA100491C4FF4807202EBC10026
:108820002021FCF71FFA00BFB5B1A100491C4FF48D
:10883000105202EBC10101F58070FCF7ADF98346DF
:10884000A100491C4FF4105202EBC100FCF7A4F93F
:108850000BEB002080B204900498804508D0BAF158
:10886000050F04DA0AF1010000F0FF0ADCE700BF9F
:1088700005E02C48008810B96FF00C00B2E6A100AA
:10888000491C4FF4807202EBC100FCF785F9002807
:10889000EFD1A100491C4FF4105202EBC10101F5C8
:1088A0008070FCF779F98246A100491C4FF4105200
:1088B00002EBC100FCF770F90AEB002080B20490D3
:1088C0000120A04018490988084317490880154825
:1088D000A0F8009024E0A100491C4FF4007202EBC4
:1088E000C100FCF759F900F01F0606F0100088B12E
:1088F000A100491C4FF4007202EBC1001021FCF7EB
:10890000B1F90120A0400849098881430648018047
:10891000284667E60348008810B96FF00C0061E64E
:10892000D9E700001CC0072082C0072080C00720B4
:108930002DE9F04705460E4617469846DDF820908B
:1089400000240B48A0F800900DE043463A4631461B
:108950002846FFF737FEC4B20548008818B96FF003
:108960000C00BDE8F087002CEFD02046F9E70000AE
:1089700020C007207CB506460D46002001907C48AB
:1089800086423AD17B480078802835DA02207A493D
:10899000784A127801EB4211487077487549097896
:1089A00000EB4110057074487249097800EB4110E2
:1089B000441C65700220A0706A462946304600F0CB
:1089C000C3FB18B19DF80000A07101E0FF20A07169
:1089D0001420FEF7A5F801AA2946654800F086FB99
:1089E00018B1BDF80400208101E0FF20208161481A
:1089F0000078401C5F490870B8E0604886423AD170
:108A00005F4800788028F7DA02205E495C4A1278D5
:108A100001EB421148705B485949097800EB41105D
:108A2000057058485649097800EB4110441C6570A0
:108A30000220A0706A462946304600F085FB18B136
:108A40009DF80000A07101E0FF20A0711420FEF746
:108A500067F801AA2946494800F048FB18B1BDF85B
:108A60000400208101E0FF20208145480078401C5F
:108A7000434908707AE0444886423AD14348007836
:108A8000802873DA02204249404A127801EB4211F1
:108A900048703F483D49097800EB411005703C485B
:108AA0003A49097800EB4110441C65700220A0701F
:108AB0006A462946304600F047FB18B19DF8000091
:108AC000A07101E0FF20A0711420FEF729F801AA8F
:108AD00029462D4800F00AFB18B1BDF8040020819A
:108AE00001E0FF20208129480078401C27490870B8
:108AF0003CE02848864239D127480078802835DA7A
:108B000002212648244A127800EB42104170234883
:108B10002149097800EB4110057020481E49097869
:108B200000EB4110441C65700220A0706A46294683
:108B3000304600F009FB18B19DF80000A07101E07B
:108B4000FF20A0711420FDF7EBFF01AA2946114870
:108B500000F0CCFA18B1BDF80400208101E0FF203C
:108B600020810D480078401C0B4908707CBD000036
:108B700000C0004018000010E0C5072000C00940F8
:108B800019000010E0D50720008009401A000010ED
:108B9000E0E50720000001401B000010E0F5072081
:108BA00030B501202AE0012803D1164A164D2C7851
:108BB00010E0022803D1154A154D2C780AE003284D
:108BC00003D1144A144D2C7804E0042802D1134A2E
:108BD000134D2C7800210DE002EB41156D78022D2C
:108BE00000D005E002EB41156B1C00255D7500BF50
:108BF0004D1CE9B2A142EFDB451CE8B20428D2DDEE
:108C000030BD0000E0C5072018000010E0D50720A7
:108C100019000010E0E507201A000010E0F5072019
:108C20001B00001038B5054600240CE06A462946B2
:108C30001F4800F069FA20B129461D48FFF79AFE47
:108C40000224601CC4B2022CF0DB00240CE06A4653
:108C50002946184800F058FA20B129461548FFF770
:108C600089FE0224601CC4B2022CF0DB00240CE05C
:108C70006A462946104800F047FA20B129460E48B6
:108C8000FFF778FE0224601CC4B2022CF0DB002443
:108C90000BE06A462946094800F036FA18B1294621
:108CA0000648FFF767FE601CC4B2022CF1DB38BD3A
:108CB00000C0004000C009400080094000000140A1
:108CC0007CB505460E461446642001AB40F6A772FB
:108CD000314600902846FDF783FE48B1BDF80400F8
:108CE00010B10120207001E00020207001207CBD27
:108CF0000020FCE72DE9F8430020009002202B49DA
:108D0000087001254BE0012D06D1DFF8A490294F12
:108D1000294890F8008019E0022D06D1DFF89C90D8
:108D2000274F284890F8008010E0032D06D1DFF887
:108D30009890264F264890F8008007E0042D05D132
:108D4000DFF89090244F254890F80080002622E01C
:108D500007EB4610407802281BD107EB4610441C55
:108D600061786A464846FFF7ABFF50B10020A07219
:108D70009DF80000012801D1207507E00020207532
:108D800004E00120A0722069401C20610520FDF74D
:108D9000C7FE701CC6B24645DADB681CC5B2042D9E
:108DA000B1DD002001490870BDE8F8831C00001007
:108DB00000C00040E0C507201800001000C00940B6
:108DC000E0D507201900001000800940E0E50720E9
:108DD0001A00001000000140E0F507201B00001001
:108DE0002DE9F04185B00427DFF8F0C08CF8007061
:108DF000012169E0002009E00027EC460CEB800C23
:108E0000ACF802702DF82070471CB8B20528F3DBCF
:108E1000012904D1324C334F3E78334D13E00229FF
:108E200004D1324C324F3E78324D0CE0032904D14C
:108E3000314C324F3E78324D05E0042903D1314C9C
:108E4000314F3E78314D002028E004EB40177F7809
:108E5000022F00D020E004EB40177B1CDF78052FA9
:108E600019DCDA78571E3DF827707F1C1FFA87FC43
:108E7000571E2DF827C01F7D6FB9571EEC460CEB0F
:108E800087077F887F1C1FFA87FC571EE84608EB80
:108E90008707A7F802C000BF471CB8B2B042D4DBB6
:108EA00000200DE06F4607EB80077F8805EB800C04
:108EB000ACF802703DF8207025F82070471CB8B25D
:108EC0000528EFDB4F1CF9B2042993DD0027DFF8FA
:108ED0000CC08CF8007005B0BDE8F0811C000010DB
:108EE000E0C5072018000010E0050820E0D50720A5
:108EF00019000010F4050820E0E507201A00001012
:108F000008060820E0F507201B0000101C060820BA
:108F100070B505460E46144644B140F22F4340F664
:108F2000A67231462846FDF7B0FD70BD002340F61D
:108F3000A67231462846FDF7A8FDF6E72DE9FE4F5B
:108F400003204B490870012587E0012D07D1DFF888
:108F50002491494890F800A0484802901CE0022D56
:108F600007D1DFF81C91474890F800A046480290CE
:108F700012E0032D07D1DFF81491454890F800A0C6
:108F80004448029008E0042D06D1DFF80C914348D4
:108F900090F800A04248029000275AE009EB4710E1
:108FA0004078022800D052E009EB4710441CA07919
:108FB00010B9012060754AE0607D00B147E094F887
:108FC00004B001206075207D012801D1019001E0ED
:108FD000002001906079012801D160780090B846A6
:108FE0001AE009EB4810461C3079584510D1012091
:108FF00070757079012801D170780090307D01285A
:1090000004D1019800F00100019001E000200190DE
:1090100008F1010000F0FF08D045E2DB01980128CB
:109020000AD100220099029800F03CF80122009930
:10903000029800F043F809E000220099029800F03D
:109040003DF801220099029800F02CF800BF781C2E
:10905000C7B25745A2DB681CC5B2042D7FF775AFB8
:10906000FFF79EFD002002490870BDE8FE8F00005A
:109070001C000010E0C507201800001000C00040D0
:10908000E0D507201900001000C00940E0E50720E6
:109090001A00001000800940E0F507201B000010B6
:1090A0000000014070B505460E461446234640F6C2
:1090B000AD7231462846FDF7E8FC70BD70B5054637
:1090C0000E461446234640F6AC7231462846FDF75C
:1090D000DCFC70BD70B505460E461446234640F6CE
:1090E000A97231462846FDF7D0FC70BDF8B505469B
:1090F0000E4614466420234640F6A972314600907D
:109100002846FDF76DFCF8BDF8B505460E46144639
:109110006420234640F6A872314600902846FDF7A9
:109120005FFCF8BD2DE9F04106460F4615460DB926
:10913000002400E00124234640F6AB723946304655
:10914000FDF7A3FCBDE8F0817CB505460E4614464C
:10915000642001AB40F6AB72314600902846FDF723
:109160003FFC08B900207CBDBDF80400012801D1F6
:10917000207001E0002020700120F4E72DE9F84381
:1091800004460E4617461D46DDF820806448A0F8C8
:10919000008000BF082C03DD4FF0FF30BDE8F883EE
:1091A00000BF012E04D0022E0ED0042E0ED10CE0F2
:1091B000042269464FF47060FBF71CFD009810B95B
:1091C0006FF00200EAE700BF00BF02E06FF00400AA
:1091D000E4E700BF05F0040010B16FF00500DDE723
:1091E00005B3012E02D0022E1AD106E005F02100AF
:1091F00010B96FF00500D1E713E005F0200028B1A9
:1092000005F0800010B96FF00500C7E705F0100009
:1092100028B105F0800010B96FF00500BEE700E04E
:1092200000BF00BF4FF47A712046FCF7A1F805F0AB
:10923000F00242EA0601A200521C002303EBC20026
:10924000FBF710FD7FB9374807880088401C354977
:109250000880084600884FF6F071884203D14FF429
:109260004040304908803912A200521C4FF48063FC
:1092700003EBC200FBF7F6FCF9B2A200521C4FF45C
:10928000806303EBC20202F58070FBF7EBFCA100E8
:10929000491C4FF4807202EBC1000121FBF7E2FC94
:1092A00005E01F48008810B96FF00C0076E7A100B8
:1092B000491C4FF4807202EBC100FBF76DFC0028E3
:1092C000EFD10120A0401849098881431648018048
:1092D00005F00100A040144909880843124908809C
:1092E0000120A040114909888143104801800020D5
:1092F0000F4921F814000F49085505E00848008877
:1093000010B96FF00C0049E7A100491C4FF44072FE
:1093100002EBC100FBF740FC0028EFD060B23DE754
:109320001CC007207EC0072080C0072082C0072005
:109330009406082084C0072010B5FDF7FDFBFDF75B
:10934000F7F9FBF779FFFCF7B7FCFCF727FF1048AC
:109350001049086000204860012088600003C86050
:1093600000210C48FDF7C2FC0B4908600B480C4972
:1093700008600020486001208860C002C8600021A9
:109380000748FDF7B3FC07490860FDF7E7FB10BD90
:10939000C93D00007000001024C00720893F000074
:1093A000600000101400001010B5002804D0FEF773
:1093B0001BFDFEF79FFA402010BD000010B5134CB6
:1093C000207860B91248400705D11248016810485A
:1093D000FEF780FB08B1852010BDFEF783FE0E4925
:1093E000FF2009688870207858B900210B4800F0E8
:1093F00041F80B49086000210A4800F0E3F80A49E7
:109400000860012020700020607010BDC0C00720DF
:1094100060110820D4A3000034000010ECA3000069
:1094200028000010DCA300002400001070B50F4DD0
:10943000687808B1002070BD0D4C206890F82410A9
:109440000020FFF76DF82068C178FF2903D1816AF9
:10945000203181F30988616811B9606000202060C3
:10946000FEF7A6FE01206870E4E70000C0C00720F8
:109470003400001010B5040005D0216819B16068EF
:1094800008B102780AB1002010BD8900103189B2FC
:10949000FEF77EFB606810BD3EB504000D464FF040
:1094A000800012D0217801290FD12846FEF79CFCBC
:1094B0000246204601A9FEF73DFC012801D01020FC
:1094C00003E00DB1402000E00020DDE9011203B00F
:1094D00030BD70B50E460400154602D02078012834
:1094E00001D0802070BD1046FEF77EFC024631465A
:1094F0002046FEF7D3FB012801D0002070BD0DB13E
:10950000C12070BD812070BD10B5002804D0046852
:109510000CB1207808B1002010BD2046FEF786FC73
:10952000204610BD10B504000ED0216861B16268FC
:1095300052B1A06840B1D21C22F0030251430C3159
:10954000FBF74FFCA06810BD002010BD70B50C46A5
:10955000FEF78AFE4FF0004108B1220C01D0084608
:1095600070BD058BC178A0B2FEF7F0F9284670BD3A
:1095700070B504460D46000C01D086201EE008465A
:109580002CB1FEF731FC0146A0B2012205E0FEF746
:109590002BFC014600224FF6FF70FEF705FA022869
:1095A00002D04DB1402008E008200CB1214605E072
:1095B00003490968498B01E000200021324670BD53
:1095C0003400001070B50E46040029D0206838B36E
:1095D000606810F1030F23DB032821DCE16829B167
:1095E0001048FEF7CEF805001AD000E000256068AC
:1095F000E168001D40EA012133462A462068FEF753
:1096000075FE40B1084901EB8000084950F8040C90
:10961000826A516370BD1DB129460248FEF7F8F910
:10962000002070BD6011082014300820196D000062
:1096300010B5FEF7B3FF002804D0034901EB80000A
:1096400050F8040C10BD00001430082010B5FEF7CF
:109650000BFE18B1C18C19B1C46A02E0802010BDA4
:109660000024C078FEF786FEFF2806D01CB12146F4
:109670000348FEF7CDF9002010BD812010BD000089
:109680006011082010B5FEF733FF002010BD10B5A3
:10969000FEF7F8F920B141690A680169104610BD6A
:1096A0000020014610BD000010B503000CD0186862
:1096B00050B15868002808D009B1012904D1074CDD
:1096C00024680CB104790CB1002010BD00240460A2
:1096D000012404714171C0E9042310BD240000106D
:1096E00070B50E46FEF7CEF9040016D0BEB1144A8E
:1096F00000214FF47A7310681268401E41F1FF3563
:10970000E6FB030529460023F6F79CFD0546207974
:1097100001280CD0022808D103E0802070BD8620EB
:1097200070BD2046FEF7C4FD20B1812070BD02202F
:109730002071E56029462046FEF7A0FD002070BD9F
:10974000C4A30000002801D0FEF70EB8704710B582
:1097500028B1FEF747F9002800D0862010BD8020F0
:1097600010BD00002DE9F041134E7468002C1CD090
:10977000A068124F401E4FF00108A06012E025467D
:1097800024687460002229463868FDF70BF810B190
:109790000420FDF717FB6879012808D085F80480BC
:1097A000002C02D0A0680028E9D0BDE8F08128464E
:1097B000E968FEF763FDF3E7C0C00720280000104A
:1097C000134909880A2905DB114909880A39104A11
:1097D000118002E000210E4A11800E4909880A29F1
:1097E00005DB0C4909880A390A4A118002E0002188
:1097F000084A1180084909880A2905DB06490988B1
:109800000A39054A118002E00021034A118070479D
:109810001CC0072020C007201EC007200649098859
:109820000A2905DB044909880A39034A118002E044
:109830000021014A1180704704C0072008B500F0DC
:109840001FFA11491148FDF7D5FB11491148FDF7E1
:10985000E5FB11490120FBF72DFE401C20B90FA0AC
:10986000FBF76AFA00BFFEE700BF69460F20FBF76F
:1098700021FE401C10B910A0FBF75EFA9DF8000015
:109880000028F2D008BD0000999D0000D19E000084
:109890007D9F0000A59E00000CC0072057495A4339
:1098A00048495020496E697469616C697A65642021
:1098B0006661696C2E0D0A00556E6B6E6F776E20B7
:1098C000504859204C696E6B207374617574732E07
:1098D0000D0A0000F8B504460D460026A100491CFB
:1098E0004FF4407202EBC100FBF756F970B94FF428
:1098F0007A7000232A46012100902046FFF73EFCA3
:109900000646A04201D03046F8BD00E000BF00BFCF
:109910003046F9E72DE9F04704460F461646002584
:10992000A8460EB9BDE8F087A100491C4FF42052AB
:1099300002EBC10101F58070FBF72EF98146A10011
:10994000491C4FF4205202EBC100FBF725F909EB4B
:10995000002085B22902A000C01C01EBC0083246DD
:1099600039464046FBF746F9A81985B22912A200EC
:10997000521C4FF4205303EBC200FBF773F9E9B21A
:10998000A200521C4FF4205303EBC20202F5807078
:10999000FBF768F900BFC5E72DE9F04104460E4624
:1099A000154600270DB9BDE8F081A100491C4FF410
:1099B000105202EBC10101F58070FBF7EDF8804613
:1099C000A100491C4FF4105202EBC100FBF7E4F870
:1099D00008EB00209F490880A100491C4FF4105259
:1099E00002EBC10101F58070FBF7D6F88046A100BB
:1099F000491C4FF4105202EBC100FBF7CDF808EB05
:109A0000002095490880A100491C4FF4105202EB38
:109A1000C10101F58070FBF7BFF88046A100491C29
:109A20004FF4105202EBC100FBF7B6F808EB002030
:109A30008A490880A100491C4FF4105202EBC10171
:109A400001F58070FBF7A8F88046A100491C4FF48F
:109A5000105202EBC100FBF79FF808EB0020804991
:109A60000880A100491C4FF4105202EBC10101F51E
:109A70008070FBF791F88046A100491C4FF410520A
:109A800002EBC100FBF788F808EB00207149088061
:109A90007148008871490988884201D0012000E09E
:109AA00000206F490988884201D0012000E0002091
:109AB0006C490988884200D000BF664800886A491E
:109AC0000880644800880102A000801C01EBC007E8
:109AD0002A4631463846FBF7F5F85E4800882844A8
:109AE0005C4908800A4612881112A200521C4FF4E9
:109AF000105303EBC200FBF7B5F8564A1178A200E9
:109B0000521C4FF4105303EBC20202F58070FBF7B6
:109B1000A9F8A100491C4FF4105202EBC10101F554
:109B20008070FBF739F88046A100491C4FF41052B1
:109B300002EBC100FBF730F808EB00204B4908802E
:109B4000A100491C4FF4105202EBC10101F58070D5
:109B5000FBF722F88046A100491C4FF4105202EB9B
:109B6000C100FBF719F808EB002041490880A1006B
:109B7000491C4FF4105202EBC10101F58070FBF754
:109B80000BF88046A100491C4FF4105202EBC100B3
:109B9000FBF702F808EB002036490880A100491CB9
:109BA0004FF4105202EBC10101F58070FAF7F4FF97
:109BB0008046A100491C4FF4105202EBC100FAF795
:109BC000EBFF08EB00202C49088028480088284932
:109BD0000988884201D0012000E000202549098839
:109BE000884201D0012000E00020234909888842F2
:109BF00000D000BF174800881F490988884208DD47
:109C0000144800881C490988401A052820DD00BF37
:109C10001EE0A100491C4FF4105202EBC10101F5F6
:109C20008070FAF7B9FF8046A100491C4FF410522A
:109C300002EBC100FAF7B0FF08EB00200F490880E3
:109C40000D48008803490988401A052800DD00BF37
:109C500000BFA8E66AC007206CC007206EC00720BE
:109C600070C0072072C0072068C0072074C007209A
:109C700076C0072078C007207AC007207CC0072064
:109C800010B50023132201213248F7F788FA002388
:109C9000122201212F48F7F782FA00231622012110
:109CA0002C48F7F77CFA2C480121132200EB4113D2
:109CB0001B6801249440234300EB4114236000BF40
:109CC00000F0FCF81420FCF72BFF00F0E1F8C820AE
:109CD000FCF726FF0323152201211E48F7F75FFA40
:109CE00000F05AF80B23142201211A48F7F757FA0B
:109CF0000323172201211748F7F751FA0B231822E3
:109D000001211448F7F74BFA1520F7F7D3F8002094
:109D10001249496821F004010143104A516000BF13
:109D200007200021C0220D4B1B6823F0FF030343D3
:109D30000B431343094C236000BF09492046F7F742
:109D400042FB00BF2046406840F0020021464860C8
:109D500000BF10BD00C0024000C0092000800840C4
:109D600040420F000146087870470170704770B597
:109D70000446E5B2261205F0F0014FF4A850FAF7B8
:109D800071FF31464FF4B850FAF76CFF70BD704761
:109D9000704770477047000010B50123152219461F
:109DA0000148F7F751F910BD00C0092070B5002631
:109DB000002400254FF4A850FAF7EEFE00F0F0065C
:109DC0004FF4B850FAF7E8FE0446254606EB0520A6
:109DD00085B2284670BD70B50026002400254FF4DA
:109DE000B050FAF7D9FE06464FF4C050FAF7D4FE49
:109DF0000446254606EB052085B2284670BD2DE9B0
:109E0000F04105460E46002700F07EF8F5B100BF90
:109E100000240AE0285D384447B2102F03DD4FF0DC
:109E2000FF30BDE8F081601C44B2082CF2DB002456
:109E30000AE0295DA200521C4FF4F85303EBC20064
:109E4000FAF710FF601C44B2082CF2DBEEB10027D9
:109E5000002409E0305D384447B2102F02DD4FF096
:109E6000FF30DEE7601C44B2082CF3DB00240AE07C
:109E7000315DA200521C4FF4F05303EBC200FAF71D
:109E8000F1FE601C44B2082CF2DB0020C9E70000A0
:109E900010B50123132219460148F7F7D5F810BD74
:109EA00000C0092008B5012269460348F7F70AFAFD
:109EB0009DF8010008BD00000080084010B5002397
:109EC000132201210148F7F7BFF810BD00C0092097
:109ED00010B50023152201210148F7F7B5F810BD90
:109EE00000C0092070B50446E5B2261229464FF499
:109EF000B050FAF7B7FE31464FF4C050FAF7B2FE51
:109F000070BD00207047704700B585B006226946D5
:109F10004FF41060FAF76EFE042204A99001FAF7DC
:109F200069FE042203A94FF4A060FAF763FE04223D
:109F300002A94FF47060FAF75DFE80210020FAF765
:109F400091FE0020FAF728FE062269464FF41060C1
:109F5000FAF7B8FE042204A99001FAF7B3FE04222E
:109F600003A94FF4A060FAF7ADFE042202A94FF452
:109F70007060FAF7A7FE05B000BD000001B5012230
:109F800069460248F7F74CFA08BD00000080084017
:109F900070B5044600254FF43850FAF7FDFD05462C
:109FA000C5F38010207005F03800202802D0382832
:109FB00003D100BF0120607002E00020607000BF8C
:109FC00000BF05F03800102805D0182802D020283E
:109FD00004D100BF00BF0120A07002E00020A070EB
:109FE00000BF00BF05F03800082805D0182802D0AF
:109FF000202804D100BF00BF0120E07002E0002053
:10A00000E07000BF00BF70BD10B54FF43850FAF7D4
:10A01000C3FD00F0010008B1012400E00024204647
:10A0200010BD10B500244FF43850FAF7B5FD00F01C
:10A03000300008B1012400E00024204610BD10B516
:10A040004FF43850FAF7A8FD044624F08004214666
:10A050004FF43850FAF706FE4FF43850FAF79CFDEB
:10A06000044644F0800421464FF43850FAF7FAFDD4
:10A0700010BD70B5054600242878012802D144F0AF
:10A08000400401E024F040046878012802D144F043
:10A09000380412E0E878012808D1A878012802D114
:10A0A00044F0180409E044F0080406E0A878012808
:10A0B00002D144F0100400E000BF21464FF43850B4
:10A0C000FAF7D0FDFFF7BBFF70BD70B50546002461
:10A0D0004FF43850FAF760FD044604F0400010B920
:10A0E0004FF0FF3070BD24F03804012D02D144F050
:10A0F000300401E044F0380421464FF43850FAF7B8
:10A10000B1FDFFF79CFF4FF43850FAF745FD0446C8
:10A11000012D04D104F0300030B10020E2E704F05A
:10A12000380008B10020DDE74FF0FF30DAE700002B
:10A13000001BB7000000000000800000500000106D
:10A1400000C1814001C0804101C0804100C1814007
:10A1500001C0804100C1814000C1814001C08041F7
:10A1600001C0804100C1814000C1814001C08041E7
:10A1700000C1814001C0804101C0804100C18140D7
:10A1800001C0804100C1814000C1814001C08041C7
:10A1900000C1814001C0804101C0804100C18140B7
:10A1A00000C1814001C0804101C0804100C18140A7
:10A1B00001C0804100C1814000C1814001C0804197
:10A1C00001C0804100C1814000C1814001C0804187
:10A1D00000C1814001C0804101C0804100C1814077
:10A1E00000C1814001C0804101C0804100C1814067
:10A1F00001C0804100C1814000C1814001C0804157
:10A2000000C1814001C0804101C0804100C1814046
:10A2100001C0804100C1814000C1814001C0804136
:10A2200001C0804100C1814000C1814001C0804126
:10A2300000C1814001C0804101C0804100C1814016
:10A2400000C0C101C30302C2C60607C705C5C404D6
:10A25000CC0C0DCD0FCFCE0E0ACACB0BC90908C846
:10A26000D81819D91BDBDA1A1EDEDF1FDD1D1CDC36
:10A2700014D4D515D71716D6D21213D311D1D010A6
:10A28000F03031F133F3F23236F6F737F53534F496
:10A290003CFCFD3DFF3F3EFEFA3A3BFB39F9F83806
:10A2A00028E8E929EB2B2AEAEE2E2FEF2DEDEC2CF6
:10A2B000E42425E527E7E62622E2E323E12120E066
:10A2C000A06061A163A3A26266A6A767A56564A456
:10A2D0006CACAD6DAF6F6EAEAA6A6BAB69A9A868C6
:10A2E00078B8B979BB7B7ABABE7E7FBF7DBDBC7CB6
:10A2F000B47475B577B7B67672B2B373B17170B026
:10A300005090915193535292965657975595945415
:10A310009C5C5D9D5F9F9E5E5A9A9B5B9959589885
:10A32000884849894B8B8A4A4E8E8F4F8D4D4C8C75
:10A3300044848545874746868242438341818040E5
:10A340001D980000D8C00720C19700008058001059
:10A35000010000001C0000009858001010000000D0
:10A36000C0580010010000001C000000105900102F
:10A370001000000038590010010000001C0000000F
:10A380008859001010000000B059001001000000B2
:10A390001C000000005A001010000000285A001095
:10A3A00006000000200304110A00010000E1F50589
:10A3B000640000009F86010001000000020001000F
:10A3C00052000400E8030000000000004401000007
:10A3D00070090000301E000010000000996D0000A0
:10A3E0000200000001000000000200000400000064
:10A3F0002C300820000000005D6900000000000013
:10A400000100000000040000DDDDDDDDDCBBBBDDA4
:10A41000DDDDDDDDDDDDDDDD988888888888888804
:10A420007777777777888888855555566666666624
:10A430006666666666688888833333322222222203
:10A44000222222222228888D3C4D41535445524ECF
:10A450004554504152414D45544552533E5B49503D
:10A460003A25642E25642E25642E25645D5B4754B1
:10A47000573A25642E25642E25642E25645D5B5392
:10A4800055423A25642E25642E25642E25645D5B95
:10A49000504F525453495354454D3A25645D5B50D7
:10A4A0004F525450433A25645D000000ECA4000074
:10A4B0000000001050000000C44D00003CA500004A
:10A4C00000C00720D8000000C44D00003CA50000DB
:10A4D0005000001000720000D44D000014A60000CF
:10A4E000D8C0072078710000D44D000000000000A3
:10A4F000000000000000000000000000000000005C
:10A50000000000000000000000000000000000004B
:10A51000000000000000000000000000000000003B
:10A52000000000000000000000000000000000002B
:10A53000000000000000000000000000000000001B
:10A5400000000000000000000202020202020202FB
:10A5500002020202020202020000000000000000EB
:10A560000000000000000000C0A801C8C0A8010150
:10A57000FFFFFF00000000000000000000000000DE
:10A5800000000000000000000000000000000000CB
:10A5900000000000000000000000000000000000BB
:10A5A00000000000000000000000000000000000AB
:10A5B0000000000000000000000000C000000000DB
:10A5C0000000000000000000010257353530300067
:10A5D0008F9D0000919D0000959D0000939D0000BF
:10A5E000659D00006B9D0000000000000000000061
:10A5F000000000000000000000E1F5050000000080
:10A60000000000000000000000000000000000004A
:04A610000000000046
:04000005000000CD2A
:00000001FF
